:400000000080002011000000C5060000C506000010B500F05FFBC04610B51222294B1A6001F08EFD284801F0ABFE302001F066FC264C8023DB0523600022254B1A60254B60
:40004000254A1A60FE22120224490A602449196024490A60244A1A60A021C900234A1160234A1A6080221206224B1A608022D202214B1A604223214A1360214A1360214A0F
:4000800013604022204B1A600132204B1A6002321F4B1A601F49082001F058FB082001F03FFB1D4A1D4B1A601D4B236008221D4B1A601C4B1B681B07FBD40122194B1A6013
:4000C00010BDC04630001040001BB7000C020B40080301400000014042FF00800003014040FF00800403014041FF00800C03014043FF008008010B4000010B4044010140F1
:40010000400101402C010140240101402001014008010140DD1C0000FF18000008020B400500004010020B4010B572B600240FE02C486200131959000B00411889881A5A72
:40014000C31858880004104300F082FA0134E4B2012CEDD9234801000C313C3000F05EFAEE221202204B1A60EE22204B1A60204A204B1A6099231B041F4A13608621C9036F
:400180001E4A11601E4A13601E4A13601E490B783C22934314221343DBB20B701B4A117816230B43DBB21370D8221201184B1A600322184B1A602132174B1A60073A174BBB
:4001C0001A60DB22D201164B1A600122154B1A603023154A1360154A1360FFF71DFF00F05DFA10BD981F00000003024000040240003808000005024000500F4008500F40B1
:4002000050500F4070500F4001700F4000700F40080304400004044008040440000504400805044018050440000904401809044010B5064C2378002B07D1054B002B02D0AB
:40024000044800E000BF0123237010BDA001002000000000741F0000084B10B5002B03D00749084800E000BF07480368002B00D110BD064B002BFBD09847F9E700000000DD
:40028000A4010020741F0000C00000200000000010B562B600F0BAFE00F068FF002000F0DBFF012000F0D8FF022000F0D5FFC8214901002001F094FC00F002FC00F062FB63
:4002C00000F0C2FA062000F029FC062001F0D0F8062001F0C1F8052000F008F910BDC04610B500F0F1FE002001F0C2F8002001F0B3F8002000F012FC00F0F2FB00F052FB1C
:4003000000F0B2FA01F0E6FB00F0FEFB00F05EFB00F0BEFA062001F0ABF8062001F09CF8062000F0FBFB00F0E7FE10BD10B504000100002001F054FC002001F07BFC0004AB
:40034000000CA04202D9082001F0B8FC10BDC046F8B5FFF79DFF002700250026002D13D1022000F05FFD01E001F0A6FB00F040FC0028F9D1023001F00BF8022000F058FFC4
:40038000441EA041C4B200E02C00002C55D0002D03D1F0208000FFF7C9FF00F0A5FD01E001F08AFB00F024FC0028F9D100F0F4FF022000F03DFF051E13D0022000F0E0FEC6
:4003C000301876008619B6083201921B5300F533FF331C4A934202D91B4B1A8001E01A4A138000F033F801280BD0002804D002280CD003280FD01CE0062000F077F8002794
:4004000017E0072000F072F8002712E0052000F06DF800270DE0002D0BD10137642F08D1C8204001FFF782FF002000F05FF80027002401F041FB250090E7FFF751FF25006A
:400440008CE7C046FF7F0000BC01002010B5002000F0EEFE441EA041C4B2012000F0E8FE431E9841C0B2400020431F4B1B78012B23D0002B13D0022B2DD1012805D002286B
:4004800008D0002829D002202CE00122164B1A70022027E00022144B1A70022022E0002806D001281BD102220F4B1A70002019E002220D4B1A70032014E0002806D0022836
:4004C0000FD10222084B1A7001380BE00222064B1A70032006E0022004E0032002E0022000E0022010BDC046C400002010B5072849D88000464B1B589F460022454B1A803F
:4005000044E00022444B1A7040E0434B1B78022B08D0032B02D0012B0CD107E002223E4B1A7033E001223C4B1A702FE003223A4B1A702BE00322384B1A7027E0364B1B780D
:40054000022B0CD0032B02D0012B0CD103E00122314B1A701AE002222F4B1A7016E003222D4B1A7012E003222B4B1A700EE00322294B1A700AE00222274B1A7006E00122E3
:40058000254B1A7002E00022234B1A70224B1B78012B27D0002B04D0022B18D0032B0BD02BE01C4C208800F039FA208800F0FAF8208800F095F92AE0164B188800F02EFAF4
:4005C000002000F0EFF8002000F08AF91FE0002000F024FA002000F0E5F80E4B188800F07FF914E0002000F019FA0A4B188800F0D9F8002000F074F909E0064B188800F0E2
:400600000DFA002000F0CEF8002000F069F910BD781F0000BC010020C5000020F0B50025002711E0BB00C658F3B2FF22964308E06A008A181478A419527822700135013BE0
:40064000DBB2002BF4D10137082FEBD9F0BDC04610B50A00002101F085FC10BD0C4B1B68002803D080221206134301E05B005B08074A1360074B1B68002803D08022920498
:40068000134301E0044A1340024A13607047C04680033A4008010B40FFFFFFFD10B50323054A1360054A13600022054B1A600120FFF7D4FF10BDC046300030403000314042
:4006C000000E3F4010B501F021FC03680C2B00D1FEE7FEE770B50F4E0F4D13E029686B68AC68002202E001C901C30432A242FAD1E868002202E0002102C304328242FAD19E
:400700001035013E002EE9D101F006FCFFF720FEFEE7C046010000003821000010B50E4A136801218B43136000230AE0032B03D89A000A49505800E009489900094A885066
:4007400001332F2BF2D9FFF7EFFC034A116801230B43136010BDC0460000104000000000C50600000000002010B501F012FB044A136840218B43136001F00FFB10BDC0468A
:40078000000020400004000C014B18607047C046880220400004000C014B18607047C046940220400004000C014B18607047C0468C02204070B504000D0001F0EAFAAC4061
:4007C000024B1C6001F0E9FA70BDC0460800204010B501F0DEFA064A116840230B43136001F0DBFA18214020FFF7E4FF10BDC04600002040014B18607047C046B802204040
:4008000010B50C4BC222D2041A601A681A600120FFF7B8FF0C22084B1A600020FFF7EAFF3F22064B1A600648FFF7B4FF0548FFF7B9FF10BD80022040A4022040A8022040C7
:40084000FFFF0000FF7F000010B5064B1B78002B04D1FFF7D5FF0122024B1A70FFF7B8FF10BDC046BE01002010B5074B1B685B0603D50122054B1A7002E00022034B1A7084
:40088000FFF772FF10BDC04600002040C001002010B5034B1B78002B01D0FFF799FF10BDC001002010B501F074FA044A136801218B43136001F071FA10BDC0460000204000
:4008C0000004000C014B18607047C046080120400004000C014B18607047C046140120400004000C014B18607047C0460C01204070B504000D0001F04CFAAC40024B1C60D8
:4009000001F04BFA70BDC0460800204010B501F040FA064A116801230B43136001F03DFA18210120FFF7E4FF10BDC04600002040014B18607047C0463801204010B50C4B84
:40094000C222D2041A601A681A600120FFF7B8FF0C22084B1A600020FFF7EAFF3F22064B1A600648FFF7B4FF0548FFF7B9FF10BD000120402401204028012040FFFF000027
:40098000FF7F000010B5064B1B78002B04D1FFF7D5FF0122024B1A70FFF7B8FF10BDC046C101002010B5074B1B68DB0703D50122054B1A7002E00022034B1A70FFF772FF56
:4009C00010BDC04600002040C401002010B5034B1B78002B01D0FFF799FF10BDC401002010B501F0D6F9044A136820218B43136001F0D3F910BDC046000020400004000C2D
:400A0000014B18607047C046480220400004000C014B18607047C046540220400004000C014B18607047C0464C02204070B504000D0001F0AEF9AC40024B1C6001F0ADF9EB
:400A400070BDC0460800204010B501F0A2F9064A116820230B43136001F09FF918212020FFF7E4FF10BDC04600002040014B18607047C0467802204010B50C4BC222D2047E
:400A80001A601A681A600120FFF7B8FF0C22084B1A600020FFF7EAFF3F22064B1A600648FFF7B4FF0548FFF7B9FF10BD400220406402204068022040FFFF0000FF7F00005F
:400AC00010B5064B1B78002B04D1FFF7D5FF0122024B1A70FFF7B8FF10BDC046C501002010B5074B1B689B0603D50122054B1A7002E00022034B1A70FFF772FF10BDC046FD
:400B000000002040C801002010B5034B1B78002B01D0FFF799FF10BDC8010020034A1168034B0B40000318431060704708050440FF8FFFFF70B5154C2368DBB2144A137046
:400B40000F2083431900134D2B780F2213400B43E13293432A788243134323600E4A0F4B1A600F4A0F4B1A600F490B688343062213430B60043000F0DDFD0C49132000F020
:400B8000E5FD0321132000F0F3FD70BD00FF29404402002082F2FF0F0002000108002940C008A0010400294000050240BD13000010B500F0A1FC00F075FC0021002000F05A
:400BC0007DFC0021002000F0A3FCFF2000F05CFC402000F083FC044A136804490B431360132000F09DFD10BD0400294000100880024B1878012318407047C046CC0100200D
:400C00004000024B181880887047C046CC010020F8B5104F3E5C3818037A5D005D19EDB29B00DCB201F0B5F8B300FB181E6932680F21A1408A4311000422A2400A435C6CA6
:400C400023680721A9408B432360326001F0A5F8F8BDC046F81F000070B50E4B1D5C6BB2002B02DBFFF7D4FF12E07F231D40094B1A007832551980001818C66FF6B2002488
:400C800004E0285DFFF7C4FF0134E4B2B442F8D370BDC046F81F0000F8B51A4A145C13181F7AB900C9B27D007D19EDB2164B185CA300D3181E6933680F228A409343336028
:400CC000022800D10020012801D1002600E0062601F05FF8A4000B4B1B19596C0B680722AA4093431A003300AB4013430B6001F054F8064B1C1921690B680122BA40934369
:400D00000B60F8BDF81F00004C0200207820000070B50E4B1D5C6BB2002B02DBFFF7BCFF12E07F231D40094B1A007832551980001818C66FF6B2002404E0285DFFF7ACFF77
:400D40000134E4B2B442F8D370BDC046F81F000010B5002403E02000FFF7DAFF0134022CF9D910BDF8B50600264B1B1844229B5C254C9B001F5900F0BFFB00F093FBA419C3
:400D8000207B013880B2002100F098FB207C013880B2002100F0BCFBFF2000F075FB402000F09CFB132000F0C5FC184D2A68402313432B60132000F0B3FC132000F0BAFC8A
:400DC00013480168134B1940237D227E120413430B4303602C68104B1C40104B1C43132000F09EFC3000FFF737FF00F0D2FF06002C60002000F0C4FF094B1F60300000F0E4
:400E0000CCFFF8BD78200000C8000020040029400800294000FF80FFFF1FDFFF200020000C00294010B5054B00221A70C2B29A7281221A70FFF796FF10BDC046CC010020EC
:400E400010B50E4B1A6843000D49CB189A80FFF75FFF132000F06EFC0A4A11680A4B0B40A02109020B431360084A1168084B0B401360132000F054FC10BDC0460C002940CA
:400E8000CC01002004002940FF1FDFFF0800294000FF80FF044A11684002C023DB001840084310607047C04604002940CA0807231940063B8B40825C134201D0012000E083
:400EC0000020704710B504000134E4B2032C06D0210004480C30FFF7E9FF0028F4D0200010BDC046CC01002010B50C4C00232370FF33A372A07AC0B2FFF7E4FFA072A37A81
:400F0000DBB2022B08D8217801230B43DBB22370A07AC0B2FFF726FF10BDC046CC01002010B5CC0807231940063B8B40DBB2002A04D0041922781343237003E00419227898
:400F40009A43227010BDC04670B50600002400250BE03000FFF766FFFFF74AFE0128FBD03000FFF74DFE24180135002DF1D0A0B270BDC046F8B505000F0016180023337008
:400F800080243378234333702800FFF7DDFFB84202D23378A34333706408F2D1F8BDC04630B50F4B1B5C5AB2002A15DA7F241C4080000B4B1818C56FADB2002308E0E2187B
:400FC000074882187820125C064881540133DBB29AB29542F3D801E0024B195430BDC046F81F00004C02002010B5002404E000212000FFF7D5FF0134022CF8D9FFF79AFD84
:401000000020FFF747FFFFF7A3FE10BD70B5224B5B7B002B04D1FFF7E7FF01221E4B5A73FFF7C6FD1D4A11681D4B0B401360002415E01C4B1B1944229B5C1B4D9B005859CF
:40104000000C830018180301C018642100F0D2FE01002A0014322000FFF78CFF0134022CE7D9002108E0104A5218137D5808107601335B08137501310229F4D9074A136803
:40108000802149040B431360084A13688021C9030B43136070BDC046CC01002008002940FFFFFFFC78200000C800002004002940034B1B68002B02DA0122024B1A70704786
:4010C00004002940DC01002010B5FFF7F1FF132000F030FB064A1168064B0B40136013685B005B08136000F007FA00F0DBF910BD04002940FFEFF7FF10B5FF2000F0EEF97B
:40110000FF2000F0C1F9034B1B78002B01D0FFF74FFD10BDDC01002030B5094B1A5C430008495C5A08495C52081800250572C81885810648805C8A181075054A9C5230BDE8
:40114000BC200000D0010020E0010020F80000205802002010B50400FFF764FEFFF748FD0028FBD12000FFF7D7FF10BD10B5002403E02000FFF7EEFF0134022CF9D910BD35
:401180004000024B181880897047C046E0010020F0B5474680B40400224B1D5C224A6B00D318998888469E8A575D01001F481830FFF77CFE002811D063001C4AD3189B89CD
:4011C0004246961BB34221DA184E3000183000222100FFF7A5FE75192F7517E06300134AD3189B894644B3420DDB55192B7D013BDBB22B75002B09D1012221000B4818304A
:40120000FFF78EFE02E0094B5D192F75210007481830FFF74BFE002800D0012004BC9046F0BDC046BC200000F8000020E001002070B5084B1C5C181805796519002620002C
:40124000FFF7A6FF002800D001260134A542F6D8300070BDC020000070B5084B1C5C181805796519EDB2012221000548FFF758FE0134E4B2A542F6D870BDC046C020000062
:40128000D80100204018400880B27047F8B54F464646C0B40400384B1E5C384A7300D3189F894100364BC85A2723D35C002B06D0344D8846495BFFF7E5FF424650536300A8
:4012C000314A9A5A904207D30021304B1955851AADB20123984603E0151AADB2002398464346002B17D173002449CB189B8B9D4211D9264B1B5D0A192421525C934206D35C
:401300002000FFF709FF0022204B1A5520E001331E4A13551CE0BD4208D97600174B9E19B38B9D4214D24346002B11D113029C46154B994619190B7A66463343C018801A0A
:40134000020A63004E46F252087200220F4B1A55BD4207D94346002B04D064000A4B1C19A58104E06400084B1C190023A3810CBC90469946F8BDC046BC200000F800002003
:40138000D001002058020020E00100205402002010B5FFF77BFF10BD10B5002409E021000548FFF783FD002802D02000FFF7F0FF0134022CF3D910BDD801002010B51320A7
:4013C00000F0B8F901221E4B1A601E4B1878C0B2FFF736FD1C4B1B785BB2002B05DA1A4A137801218B43137026E0164C2078C0B2FFF768FD20702378DBB2022B05D8114B54
:401400001878C0B2FFF7AEFC16E00F4B1A7801218A431A701B785B060ED500220B4B1A7006E00B4AD15C0B4AD1540133074A1370064B1B78002BF4D0132000F071F910BDBF
:4014400014002940D6010020CC010020F901002048020020D8010020034A1168034B0B40400218431060704708050440FFF1FFFF034A1168034B0B408001184310607047CA
:40148000080504403FFEFFFF044B1B68002BFBDB0002034B1843014B186070470000014040000080034B1B68002BFBDB024A014B1A607047000001404000004010B5064A35
:4014C00013680724234000021843CB00FF2119400143116010BDC04600030140044B1B68002BFBDB0002034B1843014B186070470000014041000080034B1B68002BFBDBA9
:40150000024A014B1A607047000001404100004010B5064A13680724234000021843CB00FF2119400143116010BDC04604030140024A1168024B0B401360704700002240A8
:40154000FFFFFFBF034B18688023DB05184000D0012070470000224030B52D4B1A783F231340042B01D9012000E0002000230AE0284A12683F210A402749C95C8A4201D158
:40158000033303E001332D2BF2D9032323490A680124A2430A60224A126822490A6000280FD021490D681F4C65601F24A2431F4C247822431A4C22601D4A1278D2B20A6017
:4015C00005E01F218A4317390A4315490A60302B0BD1002803D0174B1B78DBB202E0164B1B78DBB2154A13600CE0182B0AD1002803D0134B1B78DBB202E0124B1B78DBB2C9
:401600000E4A1360104A116802230B43136030BD00F3FF0F2CFF0B40C820000050000C4034FF0B40FC01002020FF0B40C0F1FF0FC1F1FF0FC3F1FF0F3FF3FF0F28FF0B4046
:40164000C2F1FF0F3EF3FF0F24002C4030B51A4B1A783F231340042B01D9012000E0002000230AE0154A12683F210A401449C95C8A4201D1033303E001332D2BF2D90323D9
:4016800010490A680224A2430A600F4C21681F2291430E4D2D682A400A432260002803D00A4A51680A4A11600A4A944663441B78DBB2094A136030BD00F3FF0F2CFF0B40DC
:4016C000C820000024002C4034FF0B40FC01002020FF0B404DF3FF0F28FF0B40034B1B680220184000D001207047C04624002C4010B5040000F04DFBE304E0229203134052
:401700001900054C2368054A1A400B001343236000F043FB10BDC04600010B40FFFFC7FF1F2318401E3B8340014A13607047C04600E100E01F2318401E3B8340014A1360B0
:401740007047C04680E100E001BE704770B504000D001F2802D90020FFF7F6FF1034A40080239B059C4664442068256070BDC04670B504000E00032902D90020FFF7E4FF66
:401780001F2C02D90020FFF7DFFF03252540ED00063500F0FEFAA408A400074B9C46644421680323AB4099430B003100A9401943216000F0F2FA70BD00E400E010B5040038
:4017C00006E0084B586800F0DBFA074B9C46644480231B029C42F4D8024B9868604300F0CFFA10BD200100200080FFFF30B583B000F0C6F900285FD000F0CBFA04002F4A60
:40180000116801230B43136000230AE02C4A12683F210A402B49C95C8A4201D1033303E001332D2BF2D90323274A1268D20606D1254802681F218A4313390A430260234AF0
:401840001168234A0A40234959438020C00184466144C90B01394905490D0A43A021490311430800192B02D81B4B1A430EE01B4A9A1812781A3B1349C9183023CB5CD31891
:40188000FF2B00D9FF239B0502001A430F4B1A60134D2B680193302000F082FA114A13688021C9050B4313601420FFF787FF019B2B60200000F071FA03B030BD50000C4059
:4018C0002CFF0B40C820000034FF0B400800224000F800C040420F000000D43F4DF3FF0F300010400000224010B5034B1B7B584300F046FA10BDC04620010020F0B55F4644
:4019000056464D464446F0B483B0040000F041FA0190FFF717FE002804D0FFF709FE01239A4601E000239A46FFF7D8FE002808D0182C01D0302C07D1FFF788FE01239B46D5
:4019400004E000239B4601E000239B46E61E2D2E74D8464B1B78DBB29C4208D8444B1B78DBB29946434B1B78DBB2984631E0424B1B78DBB29C4208D8404B1B78DBB2994660
:401980003F4B1B78DBB2984623E03E4B1B78DBB29C4208D83C4B1B78DBB299463B4B1B78DBB2984615E03A4B1B78DBB29C4208D8384B1B78DBB29946374B1B78DBB29846D1
:4019C00007E0364B1B78DBB29946354B1B78DBB29846344B9F5D2F2F09D92A2C07D91922314B1A60052000F0CBF9192503E02E4B1D683F231D40BD4206D92A4B9A5D2A4B6A
:401A00001A60052000F0BCF9254B9C4664442378DBB2264A1360264B4A461A60254B42461A600520FFF760FFBD420AD21D4B9A5D1D4B1A60052000F0A3F902E00020FFF731
:401A400083FE5346012B01D1FFF7D0FE5B46012B01D1FFF781FD019800F09FF903B03CBC90469946A246AB46F0BDC04640F3FF0F41F3FF0F42F3FF0F43F3FF0F44F3FF0F1B
:401A800045F3FF0F46F3FF0F47F3FF0F48F3FF0F49F3FF0F4AF3FF0F4BF3FF0F4CF3FF0F4DF3FF0FC82000002CFF0B4028FF0B401CFF0B4020FF0B4010B500F06AF9044A86
:401AC000136804218B43136030BF00F066F910BD10ED00E030B583B000F05BF904000E4A13685B005B0813600C4B1B889BB20C4A13600C4A116804230B4313600A4D2B6808
:401B000001930220FFF7F4FD30BF019B2B60200000F043F903B030BD00000B4052F2FF0F0C000B4010ED00E000010B40034B1868C0231B02184000D00120704700010B40CF
:401B400010B50D4B1A6801218A431A601A68022082431A60094A10683024A043203C204310601068093CA043014311601A68802109060A431A6010BD00002240000F22405B
:401B8000034B1B68002B01DA012000E0002070470000224010B500F0FCF8044A1368C02109020B43136000F0F8F810BD00010B4010B500F0EEF808490A68084B1A4080244D
:401BC000E40122430A600A6813408022120213430B6000F0E2F810BD00010B40FF3FFFFF70B505000C00012802D90020FFF7ACFD0D4B1B689B0F01D1C92000E05D20FFF74A
:401C000073FE0A490B682D01094AAA409343AC401C430C60044B1B689B0F01D1432000E01F20FFF761FE70BD0C020B4008020B40FFFF000010B5012809D0002802D002288C
:401C400009D00BE0084B18680004000C0AE0064B1868000C06E0054B186803E00020FFF773FD002010BDC04600020B4004020B4070B5050000F08DF80400FFF757FF00282F
:401C800003D0FFF795FF012100E0002108482840084A1568084B2B40184310601368012901D1FFF777FF200000F077F870BDC0460404040010020B40FBFBFBFF054A1168DE
:401CC000054B184008431060024B1A68024B1A42FAD1704710020B400808080010B5244B1B685B0715D5234B5B685B070ED5224B596A042001401F4C62688A4362605A6A7C
:401D000082435A629B69002B00D098470420FFF7AFFF174B1B685B0518D5164B5B685B0510D5154B596A8022D2001140114842688A434260596A114A0A405A62DB69002BF4
:401D400000D098478020C000FFF792FF084B1B685B030CD5074B5B685B0304D5064B1B6A002B00D098478020C002FFF781FF10BD10020B40340100201C020020FFFBFFFF2F
:401D80000230800803D00138FDD1C046C046C0467047EFF3108072B6704780F31088704770B50400FFF7F5FF0500102C05D8104A136803218B43136016E0202C07D80C49D2
:401DC0000B6803229343023A13430B600CE0302C07D807490B6803229343013A13430B6002E00020FFF7B0FC2800FFF7D6FF70BD30001040002243088B4274D303098B42F9
:401E00005FD3030A8B4244D3030B8B4228D3030C8B420DD3FF22090212BA030C8B4202D31212090265D0030B8B4219D300E0090AC30B8B4201D3CB03C01A5241830B8B4221
:401E400001D38B03C01A5241430B8B4201D34B03C01A5241030B8B4201D30B03C01A5241C30A8B4201D3CB02C01A5241830A8B4201D38B02C01A5241430A8B4201D34B02B4
:401E8000C01A5241030A8B4201D30B02C01A5241CDD2C3098B4201D3CB01C01A524183098B4201D38B01C01A524143098B4201D34B01C01A524103098B4201D30B01C01AE9
:401EC0005241C3088B4201D3CB00C01A524183088B4201D38B00C01A524143088B4201D34B00C01A5241411A00D20146524110467047FFE701B5002000F006F802BDC04660
:401F00000029F7D076E770477047C046014B18687047C0469C0100200E4B70B500251E000D4CE41AA410A54204D0AB00F35898470135F8E700F0EEF8084B00251E00084C69
:401F4000E41AA410A54204D0AB00F35898470135F8E770BD2021000020210000202100002821000003008218934202D019700133FAE7704700000000FA0400000205000033
:401F80007E050000760500006E0500008C0500000A0500003C05000000300F40000800400F4000088701B802BE01D804DF011B01A701AF01EC0854218401D440D620E61092
:401FC000A4201020A420C4103B083C02CE03AC01AF04000001310F4004320F4002330F4002350F4005400F4001410F4003420F4003450F4002460F40090980090900000008
:40200000040500040500000000000240000102400002024000030240000402400005024000060240000702400008024000090240000A0240000B0240000C0240080004409A
:40204000080104400802044008030440080404400805044008060440080704400808044008090440080A0440080B0440080C04400304000010000000200000000200000049
:40208000100000002000000000000440000104400002044000030440000404400005044000060440000704400008044000090440000A0440000B0440000C0440000102002B
:4020C0000001020001010000030405060708090A0B0C0E0F101112131415161718191B1C1D1E1F2021222325262728292A2B2E2F3031323334350000EEDBC9B9AA9B8E824B
:40210000766B60564D443B332C241D17100A044300000000F8B5C046F8BC08BC9E467047590200001D070000F8B5C046F8BC08BC9E4670473102000048210000C00000209D
:40214000E0000000C000000000000000020300000000FFFF0000FFFF0000FFFF06060600101010000D0B15000C0A15000809044008090440000000000809044008090440D2
:4021800002020100960096008C00000046004600460000000A000A000B000000140014001400000005050501010000000000C05D80BB000030000000006CDC02F000000062
:4021C0000404040000000000000000000000000000000000000000000000000000000000000000000F210000000000000000000000000000000000000000000000000000A3
:402200000000000000000000000000000000000000000000000000000000000000000000000000003C01002000000000000000000000000000000000000000000000000041
:40224000000000000000000000000000000000000000000000000000000000000000000000000000000000000000000000000000000000000000000000000000000000005E
:40228000000000000000000000000000000000000000000000000000000000000000000000000000000000000000000000000000000000000000000000000000000000001E
:4022C00000000000000000000000000000000000000000000000000000000000000000000000000000000000000000000000000000000000000000000000000000000000DE
:40230000000000000000000000000000000000000000000000000000000000000000000000000000000000000000000000000000000000000000000000000000000000009D
:020000040003F7
:0200000490303A
:02000000003DC1
:0200000490402A
:4000000000000000000000000000000000000000000000000000000000000000000000000000000000000000000000000000000000000000000000000000000000000000C0
:400040000000000000000000000000000000000000000000000000000000000000000000000000000000000000000000000000000000000000000000000000000000000080
:0200000490501A
:0C0000000002101311A00001101E11DD01
:0200000490600A
:0100000001FE
:00000001FF