:400000000080002011000000591100005911000010B501F0A9F8C04670B51222294B1A6003F092FE284803F057FF03F0BBFB302003F072FD254A264B1A60264C8025ED059D
:400040002560C0229200244B1A60244B244A1A60FE22120223490A602349196023490A60234A1A6088218901224A1160224A1A60A021C900214A1160214A1A6080221206A0
:40008000204B1A608022D2021F4B1A6042231F4A13601F4A13601F4A136040221E4B1A6001321E4B1A6003321D4B1A60013A1D4B1A601D49082003F057FC082003F03EFC50
:4000C000256070BD30001040001BB7000600008004010B400C020B40080301400000014042FF00800003014040FF00800403014041FF00801003014044FF00800C0301400D
:4001000043FF008008010B4000010B4044010140400101402C0101401C010140180101400C01014008010140353E000010B572B601223A4B1A7000240FE0394862001319E3
:4001400059000B00411889881A5AC31858880004104300F0C7FF0134E4B2012CEDD9304801000C314C3000F0A3FF2E4A2E4B1A60EE222E4B1A602E4A2E4B1A6099231B043F
:400180002D4A1360A82149032C4A11602C4A13602C4A13608A21C9032B4A11602B4A136001222B4B1A602B490B783B32934314221343DBB20B70284A117816230B43DBB252
:4001C00013704323254A1360254A13600322254B1A600223244A1360244A1360DB210901234A1160234A1360F722234B1A60D33A224B1A60D032224B1A60D83A214B1A60C2
:40020000DB22D201204B1A60FC23204A1360204A1360FFF701FF00F08BFF10BD1C700F401848000090EE00000003024000040240003808000005024000500F4008500F40E2
:4002400040500F4050500F4058500F4070500F402000104001700F4000700F400000044018000440000D04400C0D04400003044008030440180304400004044008040440E0
:40028000180404400005044008050440000704401807044010B5064C2378002B07D1054B002B02D0044800E000BF0123237010BDE00100200000000098450000084B10B52F
:4002C000002B03D00749084800E000BF07480368002B00D110BD064B002BFBD09847F9E700000000E401002098450000C00000200000000010B502F0E3FF114803F056F843
:4003000003F0E8F803F05AF903F0CCF9FA214900002000F09DF8062003F06CF8062003F051F8062003F05AF802F008FC02F076FC0121002001F032F802F05AFB10BDC046C8
:400340009C450000F8B562B6FFF7D4FF00250326002401F0DBF8012803D101F067F804000DE0012C06D1344803F020F83349002000F06EF80022324B1A700326002402F0B5
:40038000F1F900283BD1032E39D102F06BFE02F0CBFC070002F02CFBF8B200F057FD070000F0D4F8380000F0A7FD002C24D0012001F09AF8002804D1023001F095F800289A
:4003C0000AD0002D08D11D49032000F041F81D4802F0ECFF013512E0002D0AD108221A49012001F033F804221849022001F02EF805E0002D02D102E0002500E00026002D50
:40040000A7D0032EA5D0012001F016F8012805D108220D4901F01AF802231E43022001F00BF8012895D104220849013001F00EF801231E438DE7C046B4450000606D00006E
:4004400035030020C8450000200200202802002010B5002803D10022394B1A7005E0384B01221A705870374B1980082866D88000354B1B589F46002002F0D8FF002003F0E0
:40048000BDF8002003F046F858E02E4C208802F0CDFF208803F0B2F8208803F03BF84DE0284C208802F0C2FF208803F0A7F8002003F030F842E0234C2088800802F0B6FF32
:4004C000208803F09BF8002003F024F836E0002002F0ACFF1B4B188803F090F8002003F019F82BE0002002F0A1FF002003F086F8144B188803F00EF820E0124C208802F0E9
:4005000095FF002003F07AF8208803F003F815E00C4C208802F08AFF002003F06FF82088400802F0F7FF09E0064B188802F07EFF002003F063F8002002F0ECFF10BDC046C3
:40054000FC010020C4000020E445000010B59D4B1B68102B10D19C4B1B78002B05D09B4B19880020FFF774FF2AE1984B1988964B5878FFF76DFF23E1934B1B78002B00D168
:400580001EE10B2831D002D80A2806D012E10C2853D00D2800D1AEE00CE18B4B5A78072A1FD893008A4AD3589F460222864B5A7000E10322844B5A70FCE00422824B5A701D
:4005C000F8E00522804B5A70F4E006227E4B5A70F0E007227C4B5A70ECE001227A4B5A70E8E00122784B5A70E4E0774B5A78072A1FD89300774AD3589F460722724B5A70C4
:40060000D8E00122704B5A70D4E002226E4B5A70D0E003226C4B5A70CCE004226A4B5A70C8E00522684B5A70C4E00622664B5A70C0E00722644B5A70BCE0644B1B88FA2279
:40064000520193423AD012D8FA229200934226D004D8F53AFF3A93421CD048E0FA22D200934221D0FA221201934222D03FE05A4A934230D007D8594A934223D0FA2292017D
:40068000934224D033E0564A934228D0554A934229D02CE0FA2292004C4B1A808AE0FA22D2004A4B1A8085E0FA221201474B1A8080E0FA225201454B1A807BE0474A434BDF
:4006C0001A8077E0FA229201404B1A8072E0424A3E4B1A806EE0424A3C4B1A806AE0414A3A4B1A8066E03F4A384B1A8062E03A4A364B1A805EE0354B1B88FA2252019342D3
:400700003AD012D8FA229200934226D004D8F53AFF3A93421CD04AE0FA22D200934221D0FA221201934222D041E02B4A934231D007D82A4A934224D0FA229201934225D072
:4007400035E0274A93422AD0264A93422BD02EE0FA2252001D4B1A802CE0FA2252001B4B1A8027E0FA229200184B1A8022E0FA22D200164B1A801DE0FA221201134B1A802B
:4007800018E0FA225201114B1A8013E0134A0F4B1A800FE0FA2292010C4B1A800AE00E4A0A4B1A8006E00E4A084B1A8002E00A4A064B1A80054B1988034B5878FFF748FE41
:4007C00010BDC04604030020FC010020C40000200846000028460000204E0000E02E0000C05D0000606D0000830603D503070BD003200EE0C30603D5030707D0012008E0FA
:40080000002805D1FF3004E0042002E0002000E002207047830603D55A2924DDB43922E00F23034018D00A2B14D89B000F4AD3589F46432117E02D2115E0162113E0002189
:4008400011E0162149420EE02D2149420BE04321494208E0FA2106E0002803D1FA2102E05A2100E0002108007047C046484600002223FF33984231D00FD8E92834D004D849
:40088000B62825D0CE2835D020E00223FF33984224D00F3398421FD018E05023FF3398421CD007D81B3B984214D04623FF3398421AD00BE06823FF33984215D08A23FF333F
:4008C00098420BD06623FF3398420DD010201AE0072018E0062016E0052014E0FF290BD002290BD80B200EE0FF2909D0022909D80A2008E0082006E0102004E00D2002E0D9
:40090000102000E00C20704770B504000D0030230340302B01D1203B9C4303232340032B32D1A30612D506232B40042B02D1023B9C4329E0002B02D101339C4324E0032351
:400940009C432F4A126813401C431DE0002002F06FF90600012002F06BF9864202D902239C4311E0002002F063F90600012002F05FF9864202D201239C4305E003239C43FF
:400980001F4A126813401C430C2323400C2B32D1A30612D506231D40062D02D102339C4329E0022D02D104239C4324E00C239C43134A126813401C431DE0022002F038F9B8
:4009C0000500032002F034F9854202D908239C4311E0022002F02CF90500032002F028F9854202D204239C4305E00C239C43044A126813401C43024B1C60200070BDC04675
:400A000000020020FA281BD000280DDA43422D2B05DD5A3040000C4BC05E404212E05B00094A985E40420DE02D2805DD5A23181A4000054BC05E05E04000034BC05E01E0ED
:400A4000FA2080007047C04694460000FA2810D0002800DA40422D2805DD2D384000064BC05E404207E02D23181A4000024BC05E01E0FA20800070479446000010B5040009
:400A8000080016305A2801DD9E390800FFF7DEFF60438000001210BD10B50400080016305A2801DD9E390800FFF7ACFF60438000001210BD10B50B00FA290FD000280FD002
:400AC000002905DB2D21180003F046FC013008E02D21180003F040FC043002E0FF2000E0002010BDF8B505000C00C84B1A68072A00D983E19300C64AD3589F46FA2900D13A
:400B00007EE1C44B58609960FFF7D4FFBF4B586002221A60002088E1FA292FD0BD4BDB68FA229200934208D9B84B5B689B00BA4AD318DA6DB94B1A6002E00133B54AD360B6
:400B4000B44B5A68521B00D55242B24B9B681B1B00D55B42152B01DC012A05DD0322AB4B1A600022AB4BDA60AA4B1B69EB1AAC4A11688C4663441360002056E1A54BDB68C2
:400B8000632B07D8A14B5B689B00A34AD318DA6DA24B1A6007229D4B1A60002045E1FA293BD09C4B5B69CB1A2D2B01DDB43B03E01A002D3200DAB4339A4A11688C46634451
:400BC0001360944B1B69EB1A954A11688C466344136021002800FFF76DFF8C4B5A68904216D08C498B6901338B61032B00D809E1002A03D10632854B1A6002E00422834BAB
:400C00001A60824B98600022824B9A6100200CE10022804B9A61002007E107227B4B1A60002002E1FA2954D07A4B5B69CB1A2D2B01DDB43B03E01A002D3200DAB433794A68
:400C400011688C4663441360724B1B69EB1A744A11688C466344136021002800FFF72AFF6A4B9B6898422FD06A498A6901328A61032A00D8C8E0654E05223260F0606649D1
:400C800080000818076FFA00D2195200D0199B00CB181A6F13019A18821873689B00CB181B6F5800C0188000C318D018594B5968FFF7DEFDC31FDBB2012B01D8554B187768
:400CC0000022544B9A61B0E00022524B9A610020ABE007224D4B1A600020A6E0FA2958D04C4B5B69CB1A2D2B01DDB43B03E01A002D3200DAB4334B4A11688C46634413609B
:400D0000444B1B69EB1A464A11688C466344136021002800FFF7CEFE3C4BDB68984233D03C498A6901328A61032A00D87CE0374A916851609360D060374E80003018076FEC
:400D4000FA00D2195200D0199B00F3181A6F13019A188218890071180B6F5800C0188000C318D0182B4B5968FFF782FDC31FDBB2012B02D8274B187702E00022254B1A779E
:400D80000022244B9A6150E0224B00229A61187F4BE007221D4B1A60002046E0FA2911D01C4B5B69CB1A2D2B01DDB43B03E01A002D3200DAB4331B4A11688C4663441360BA
:400DC000092032E00722114B1A6000202DE0114A00239361D3600D49FF2088604860C8605060053890600E4803600E4803600B480360137701330B60002016E0002014E062
:400E0000002012E0002010E000200EE0C80000207446000000020020944600000403002018030020FC0200200020064B1B680133022B02D9FF22044B5A60034B1D615C6181
:400E4000F8BDC046180300200002002070B5002804D0234B1B781F251D4000E00025002002F008F8060004001E4B984209D020231D43162103F0E6F901002C2E02D80A343B
:400E800000E000212800FFF73FFD0600FFF7ACFC0500154B186021003000FFF7BBFC0100124C20602800FFF71DFE05002468FA2C0ED00D4B1E6821003000FFF7DFFD0C4B53
:400EC000186021003000FFF7E7FD0A4B186004E00023074A1360074A1360280070BDC046A4020020FFFF00000003002010030020140300200C03002070B504005B4B002227
:400F00001A709A70002304E0584AD218002111720133032BF8D9564B1B68022B0BD0102B12D0012B18D1514A117A0B431372514802F03CFA10E04D4A117A02230B43137291
:400F40004D4802F033FA07E0484A117A04230B4313724A4802F02AFA631FDAB2082A00D980E09300464AD3589F46464802F01EFA3E4B197803220A431A702B229A7071E015
:400F8000414802F013FA394B197801220A431A702B229A7066E0354B1B7B072B08D0334B00221A610432DA72384802F0FFF959E02E4A136901331361092B53D91500002369
:400FC0001361324802F0F2F90123EB724AE0274B1B7B082B08D0254B00221A61FC32DA722B4802F0E3F93DE0204A136901331361092B37D9150000231361254802F0D6F9D7
:40100000FF23EB722EE0194B1B7B092B02D0214802F0CCF9204B1B785BB2144AD90FCB185B1053721D4B1B785BB25B42D90FCB185B10937216E01A4802F0B8F912E0194871
:4010400002F0B4F90EE0094B1B7B0C2B0AD0164802F0ACF906E0054B1B7B0D2B02D0134802F0A4F9014B1C7370BDC04620020020040300203C4700004C4700005C47000003
:40108000184700006C4700007C4700008C47000098470000A8470000140300200C030020B8470000CC470000E8470000FC470000F0B50025002711E0BB00C658F3B2FF224F
:4010C000964308E06A008A181478A419527822700135013BDBB2002BF4D101370A2FEBD9F0BDC04610B50A00002103F04DFA10BD0C4B1B68002803D080221206134301E0EA
:401100005B005B08074A1360074B1B68002803D080229204134301E0044A1340024A13607047C04680033A4008010B40FFFFFFFD10B50323054A1360054A13600022054BA5
:401140001A600120FFF7D4FF10BDC0463000304030003140000E3F4010B503F0E9F903680C2B00D1FEE7FEE770B50F4E0F4D13E029686B68AC68002202E001C901C3043282
:40118000A242FAD1E868002202E0002102C304328242FAD11035013E002EE9D103F0CEF9FFF7D0F8FEE7C04601000000FC4D000010B50E4A136801218B43136000230AE060
:4011C000032B03D89A000A49505800E009489900094A885001332F2BF2D9FEF7A7FF034A116801230B43136010BDC0460000104000000000591100000000002010B5012228
:40120000244B1A60244A136820218B4313600A22224B1A60224C234B23602368224A134323602368042293432360022002F06AFC236808229343236002F076FB002800D02B
:4012400002201A4B18601A4A1A4B1A6007221A4B1A6003211E2002F099FB18491E2002F083FB03211F2002F091FB15491F2002F07BFB0321002002F089FB1249002002F020
:4012800073FB0321052002F081FB0F49052002F06BFB10BD74022C4048002C4030032C4000202C40030000040C0000B824002C401A00050030202C4028202C403D1A000065
:4012C000BD1A00007D1A0000A51D000010B50C00002304E00121234AD1540133DBB2012BF8D9214B18700023204A1370204A1370204A1370204A1370204A1370204A1370CF
:40130000204A13701E2002F019FB002002F016FB1F2002F013FB002C02D0012C06D00BE0194A136801218B4313600AE0164A116801230B43136004E0134A116801230B4319
:40134000136011490B68042293430B6000210F4B196001310E4B19607F310E4B19600E4B1A6010BDBC03002030030020360300203403002035030020310300201C030020DF
:4013800033030020AC03002024002C40A4002C40A0002C4020002C4048002C4070B504000D00074B1B78002B04D1FFF727FF0122034B1A7029002000FFF788FF70BDC046F1
:4013C00034020020002304E001210E4AD1540133DBB2012BF8D900230B4A13700B4A13700B4A13700B4A13700B4A13700B4A13700B4A137001220B4B1A607F320A4B1A60B5
:401400007047C046BC030020360300203403002035030020310300201C03002033030020AC030020A0002C4020002C40014B1878C0B2704735030020430018188300024A19
:40144000D3185878C0B2704740030020F0B5431EDBB2072B41D8060044002418A3001F4CE318DC8880239B001B1B9A4209D9420012189300194AD318DA8880239B009A1A81
:4014800092B2130A45002D18AC00144D2C19E4781C438301124D5C51D4B2AC4663445C60002909D10BE0CD5CB4010E4FBC466444256201339BB200E000239A42F3D8420002
:4014C00012189300054AD31800225A705B79DBB28001034A944660448360F0BD40030020F0FF2B40C0012C40431EDBB2072B07D88001054B9C46604483681020184000E039
:401500000020C0B27047C046F0FF2B40034B1B6804201840431E9841C0B27047040D044010B51F4B1B781F4A1188CB189BB2138000210EE01C4B5A681278D2B28C001B4841
:4015400022505A6801325A6001311A88013A92B21A80154B1B889BB2002B01D00729E9D90F4B1B78082B01D000290DD0104A107880235B424340DBB213700F220D4B1A7060
:401580000D3A0D4B1A7004E002230A4A13700A4A1370C9B2094B1970014B197010BDC046AC030020B20300202403002000002C40320300201D03002036030020AD03002036
:4015C0000222074B1A707E32064B1A70713A064B1A700023054A1370054A13700120704736030020320300201D030020AC030020AD03002010B5FFF793FF10BD30B5194B4B
:401600001B680F2119400239174A1088FF230B40C3189BB2138000200FE0144B5C688500134AAA58D2B222705A6801325A60013001391A88013A92B21A800C4B1B889BB2FA
:40164000002B01D00029E8D1C9B20A4B19700A4A117880235B424B40DBB213700B22074B1A7030BDA4002C40B20300202403002000002C40AD030020320300201D03002088
:401680000623064A1370064A13708022054B1A700022054B1A7001207047C046360300201D03002032030020AD030020064B9B68002B08D0044B9A6810709A680349098840
:4016C000518000229A60704724030020B203002010B5144B1A68FF210A401A601B68DAB21B0602D5104B1A701BE00220FFF7DEFF0E4B1B6860221340202B06D0402B07D0B0
:40170000002B08D100F03AFE06E002F0F5FB03E000F0BCFF00E00020002802D10322024B1A7010BDA0002C401D03002000002C4010B5084B1B78084A1188CB189BB2138052
:401740000022064B1A700120FFF7B0FF0322044B1A7010BDAC030020B2030020360300201D03002010B50B4B1B78DBB2042B06D0062B07D0022B0BD1FFF7DAFF08E0FFF7A0
:401780003DFF05E00320FFF791FF0322024B1A7010BDC046360300201D03002010B50022044B1A700120FFF781FF0322024B1A7010BDC046360300201D03002010B50C4B1C
:4017C0001B78002B09D00A4A117880235B420B43DBB208490B60002313700022064B1A700120FFF763FF0322044B1A7010BDC0461C03002020002C40360300201D0300204D
:4018000010B5094B1B78DBB2042B06D0062B07D0022B07D1FFF7EEFE04E0FFF7BFFF01E0FFF7CCFF10BDC0463603002010B5264B1B68DA0643D51A060CD50F221340012BB3
:4018400014D1FFF745FF214B1B785BB2002B0FDB012310E05A0603D5FFF7D2FF01230AE09B0607D5FFF77EFF012304E0002302E0002300E00023002B21D0134B1B681B06C6
:401880001DD4134B1B78134A12781343124A13601268934213D10D4B1B78DBB20A4A1268120607D4094B1B78DBB2074A136013680F221340054A1278D2B29342EBD1042283
:4018C000064B1A6010BDC046A0002C401D03002032030020AD030020A4002C4020202C400022064B1A80064B9B68002B05D0044A916800230B70926853807047B20300207E
:401900002403002010B5114B1B889BB2002B02D1FFF756FE17E002220D4B1A7000220D4B1A70FFF7DDFF0C4AD3691B029BB2926913439BB2054A128892B2934201D2034A78
:401940001380FFF7EDFD012010BDC04624030020360300203203002000002C4010B504220C4B1A707C320C4B1A70FFF7B9FF0B4AD3691B029BB2926913439BB2084A128811
:4019800092B2934201D2064A13800B22054B1A70012010BD360300203203002000002C40240300201D03002001220A4B1A600A4B9B6C0A4B1A7B03231340012B06D0074ABE
:4019C000D17B80235B424B40DBB2D3730122034B5A7370472C002C40F0FF2B404003002002220B4B1A6088230A4AD3580A4B1A7E03231340012B06D0074AD17E80235B424D
:401A00004B40DBB2D3760122034B5A767047C0462C002C40F0FF2B40400300200122014B1A60704720202C4010B50222024B1A60FFF7C8FC10BDC04620202C4070B50D4B40
:401A40001D682B0601D5002398470F2422002A40EC08FF235B011C401443002507E0E30703D5AB00044A9B58984764080135002CF5D170BD34202C409048000070B50D4B85
:401A80001D682B0601D5002398470F2422002A40EC08FF235B011C401443002507E0E30703D5AB00044A9B58984764080135002CF5D170BD38202C409048000070B50D4B41
:401AC0001D682B0601D5002398470F2422002A40EC08FF235B011C401443002507E0E30703D5AB00044A9B58984764080135002CF5D170BD3C202C409048000010B50C4B5E
:401B000018780138C0B200F0CFF90A4B1B69FF221A40931CDB00C0184168074B9B5CDB00CB185B68596A0B78044A1380516010BD3503002000002C40200300202403002096
:401B400010B50E4B18780138C0B200F0ADF90C4B1B69FF221A40931CDB00C0184168094B9B5CDB00CB185B68DB695A78120219780A4305490A8002334B6010BD3503002064
:401B800000002C40200300202403002070B500221C4B1A801C4B18780138C0B200F084F91A4BD968CCB21B69DDB2FF221A40931CDB00C0184068012D23D8154B9B5CDB00C1
:401BC000C3185B68013CE4B2022C1AD8FF221140104A94466144C90059180C4B9B68D8B20A7890420DD84968FF2213405A00D3189A008B18034A59685160198811809B6817
:401C0000936070BD240300203503002000002C4020030020FFFFFF1F10B55D4B1A69D1B21B681B0651D55A4B5B68022B2FD002D8012B22D090E0032B3AD0062B00D08BE03D
:401C4000534BDB68212B0AD1FFF758FF514B1B889BB2002B00D181E0FFF754FE97E04C4BDB68222B7CD1FFF76BFF4A4B1B889BB2002B77D0FFF746FE89E0FFF787FF454BED
:401C80001B889BB2002B6FD0FFF73CFE7FE001296CD83F4B9B68002B6AD13E4901330B80FE331A403C4BD2184A60FFF72BFE6EE001295FD8374901230B80FE331A40374BE4
:401CC000D2184A60FFF71EFE61E0314B5B680A2B0DD00B2B30D0092B4ED1FFF757FF2D4B1B889BB2002B49D0FFF738FE4FE0012946D8274B9B68002B44D1FF331A40244BD8
:401D0000DB68DBB224498B54895CC9B2244B9B5CDBB2994203D20021214B995409E0204B9B5CDBB2012B04D91B4B9B5CDBB21C498B54FFF7A5FC2AE0012925D8144B9B68D1
:401D4000012B23D8FF231A40114B9B68DBB213498B54FFF795FC1AE0002018E0002016E0002014E0002012E0002010E000200EE000200CE000200AE0002008E0002006E082
:401D8000002004E0002002E0002000E0002010BD00002C4024030020B4030020BC030020B803002010B501F08DFC10BDF0B589B0040003AB154A23CA23C3190013680B601F
:401DC00013790B71002C1FD0222323701F3B637001A801F077FF0020022313E001AA125C110903AD695CE154591C611800260E70991C0F273A40AA5C6254DA1CA2181670AD
:401E000001300433212BE9D909B0F0BDF448000010B5012338E09A010C201E4950505900C9188A001C498A185279002A16D05900C9188A0018498A18127952B2002A06DAB5
:401E40009A0116498C4662440C2191600CE09A0112498C4662440821916005E09A010F498C466244802191605900C9188A000A498A18D18889B29801094C0419A160D288C9
:401E800092B2074942500133082BC4D9FF22054B1A6010BDC0012C4040030020F0FF2B40D0112C4028002C40074B1B78DB00074AD3185B681A7C824204D9C000103018184F
:401EC000406800E00020704730030020CC4A0000F0B557464E464546E0B43F4B1B78002B75D03D4B18780138C0B2FFF7DDFF047AC3683A4A1078C0B2002266E01978884219
:401F000061D13749095CC9B25D78A9425BD199787F252940DD7803262E40B446314DA8464E007718BD004544AA460027EF709F782F71DF78B9467618B70046464D46BD5597
:401F40009E8855462E8102255D57002D0EDA6546012D01D1072700E00D274E007618B500204E75196F7101266E700DE06546012D01D1052700E009274E007618B500194ED6
:401F800075196F7100266E708D01174EB146A94401264F46BE604E0071188E00114989190E89360AB046104E4746AF510E89F6B24F467E60CE88B6B20C4FEF19BE60C988A3
:401FC00089B20A4EA95108330132A24296D31CBC90469946A246F0BD35030020310300202003002040030020F0FF2B40D0112C40034B1B78DB00034AD31858687047C0460D
:4020000030030020CC4A000010B5084B18780138C0B2FFF749FF002806D043681B790233DB00C018406800E0002010BD35030020F0B557464E464546E0B4002312E06E4EEE
:402040005900CC18A20000249455B2189470D4700025148195725570C9188A00B21855710133DBB2082BEAD9002808D10AE000226249CA546249CA540133DBB200E00023C7
:40208000012BF4D95F4B1B78002B00D1AFE05D4B18780138C0B2FFF707FF82464368DB795B0606D5584A117801230B43DBB2137004E0554A137801218B43137053461E7A1E
:4020C000012465E05346D96800235DE08A787F252A40944255D1270065002D19AA00464DAA18128992B28D88AA4208D262009446A4446246920040488446624415810A7837
:402100003E4DAA5CD2B24D78AA423AD18A789146394A94467A00D0198500654448462871C878D21995006246A854CA7803252A4002254D57002D12DA012A02D106329146B7
:4021400001E00D2291462C4A94467A00D01985006544484668712A000125557011E0012A02D10432914601E009229146224A94467A00D01985006544484668712A000025AF
:40218000557008310133DBB2B3429FD30134E4B2082C97D95346D86800220CE083787F210B4004785900CB189900134B59188C7208300132D2B2B242F0D3FFF725FF134B81
:4021C0001860002201230EE00B4D5900C81884002C19E28021898A1891B201220A4089188AB20133DBB2082BEED9FFF711FE1CBC90469946A246F0BD400300202003002016
:40220000B003002035030020330300203C03002010B5174B1B697F2213405A1E072A24D85900C9188A0013498A18907801210143C9B291700021D170507802210143C9B2C2
:402240005170127952B2002A06DA9B010A4A944663448D229A6005E09B01074A9446634489229A60FFF70CFA00E0002010BDC04600002C4040030020F0FF2B4070B5284B62
:402280001B697F2213405A1E072A46D85900C9188A0024498A1891780120814391700021D17021489C0121588025A94321505178022081435170127952B2002A15DA5900C9
:4022C000C9188A0017498A185278012A06D12300154A944663440C229A601BE09B01124A944663440D229A6014E05900C9188A000C498A185278012A06D19B010A4A944698
:40230000634408229A6005E09B01074A9446634409229A60FFF7B4F900E0002070BDC04600002C4040030020F0FF2B4070B50F4B1C69E5B20E4B18780138C0B2FFF7B4FD85
:4023400043681B799D4201D9022D0CD8FF2323400849CA5CD2B20848C254044A9268D2B2CA54012000E0002070BDC04600002C403503002020030020B003002010B5B34B91
:402380001B680021B24A11801A0600D4A1E0AF4A5268062A0AD002D8002A5ED037E1082A00D183E00A2A00D188E030E1A74BDB68012B09D1FFF71CFE4268A54B5A601222B9
:4023C0001A80FFF79FFA3FE1A04BDB68022B14D19E4B9868C0B2FFF767FD002800D118E143689B4A53605368DB781B02516889780B431380FFF786FA26E1944BDB68032BD7
:4024000005D027E0117852180133DBB201E00023904A8E498968994202D911780029F1D18A4B9B68002B0AD0884B99688A4B1B7C994204D1894C2000FFF7B8FC2200137823
:40244000002B00D1E7E0137881490B804A60FFF759FAF9E001F050FDF6E00322134017D0022B00D0D9E07A490B80784B1B697C3213405A00D3189A00794B9A189278D2B24B
:40248000784B1A7000225A704B60FFF73BFADBE06F4902230B80744B1A78D2B2714B1A7000225A704B60FFF72DFACDE0684B01221A806E4A5A60FFF725FAC5E0644A012300
:4024C0001380624B19696A4BCB185360FFF71AFABAE05E4A52680B2A00D9A0E0920065498A589746594B9B68DBB2634A1370FFF7C7F8A9E0554B9C68002C03D0601EC0B207
:40250000FFF7D2FC002C01D0002802D1002C00D087E0564B1B78DBB29C4208D0E4B2534B1C700122554B1A700120FFF781FDFFF7A7F889E0FFF7FAFE002874D0434B1969FB
:402540001B69DBB24E4A13704E4B5A5CD2B2484B5B5CDBB29A4204D00122484B1A70FFF7B7FCFFF78DF86FE003221340012B16D0002B08D0022B58D1344B9B68002B56D16B
:40258000FFF77CFE60E0314B9B68012B51D1364A137802218B431370FFF772F854E02B4B1B69012B47D8294B98681A6936498B5C83438B54FFF764F846E003221340012B28
:4025C00017D0002B08D0022B37D1204B9B68002B35D1FFF71DFE37E01C4B9B68012B30D1214A117802230B43DBB21370FFF748F82AE0164B1B69012B25D8144B98681A69B7
:4026000021498B5C83438B54FFF73AF81CE000201AE0002018E0002016E0002014E0002012E0002010E000200EE000200CE000200AE0002008E0002006E0002004E00020AC
:4026400002E0002000E0002010BDC04600002C40240300203C4C0000C44D00001C0500204003002038020020330300203503002020030020C44800001C03002034030020A8
:4026800031030020B003002038030020034B1B681B0601D5014B5B680020704700002C4070B516480368DBB2154A13700F24A3431900144D2B780F2213400B43E132934330
:4026C0002A78A243134303600F4A104B1A60104A104B1A60104A1168104B0B40C021C9000B431360122001F033F90D49122001F03BF90321122001F049F970BD00FF284040
:40270000C003002062F2FF0F00020001080028400008A0010400284000040240FFF0FFFF8930000010B501F00DF800F0E1FF0021002000F0E9FF0021002001F00FF8FF20E4
:4027400000F0C8FF402000F0EFFF044A136804490B431360122001F0F1F810BD0400284000100880024B1878012318407047C0463C0200204000024B181880887047C046BA
:402780003C020020F8B5104F3E5C3818037C5D005D19EDB29B00DCB201F0A7FBB300FB181E6A32680F21A1408A4311000422A2400A435C6D23680721A9408B4323603260A4
:4027C00001F097FBF8BDC04608490000F8B51A4A145C13181F7CB900C9B27D007D19EDB2164B185CA300D3181E6A33680F228A4093433360022800D10020012801D10026F7
:4028000000E0062601F071FBA4000B4B1B19596D0B680722AA4093431A003300AB4013430B6001F066FB064B1C19A1680B680122BA4093430B60F8BD08490000FC0300200F
:402840008849000010B5002403E02000FFF7BEFF01340C2CF9D910BD044A11684002C023DB001840084310607047C04604002840CA0807231940063B8B40825C134201D074
:40288000012000E00020704710B504000134E4B20D2C06D0210004481830FFF7E9FF0028F4D0200010BDC046D8000020F8B50400394B1B183C229D5CAA00384BD658010018
:4028C0003748FFF7D5FF374B9E4203D88640FF231B041E4300F036FF00F00AFF324B185D013880B2002100F00FFF304B185D013880B2002100F032FFFF2000F0EBFE40205B
:4029000000F012FF2A4BDB7F002B1CD0122001F01FF8284B196880239943403B0B43234A105D214A175D0203121A1004AD001B4AAA587A43904201D2C0230B431D4A1360BB
:40294000122000F0FBFF122001F002F81A4801681A4B19401A4B1B5D1A4A125D120413430B430360134F3D68174B1D40174B1D43122000F0E3FF2000FFF704FF01F0B5FA83
:4029800004003D60002001F0A7FA114B1E60200001F0AFFAF8BDC04688490000D8000020C4030020FFFFFEFF0C040020CC0300203C020020040028400800284000FF80FFF3
:4029C000DC030020EC030020FF1FDFFF20E020000C00284010B5054B00221A70C2B29A7781221A70FFF762FF10BDC0463C02002010B50C4C00232370FF33A377A07FC0B28E
:402A0000FFF742FFA077A37FDBB20C2B08D8217801230B43DBB22370A07FC0B2FFF746FF10BDC0463C02002070B50500184B1C68A4B24300174AD3189C80174B1B183C2255
:402A40009B5C9B00154A9A58154B9A4208D801001448FFF70DFF6B000E4AD31804419C802800FFF7B3FE122000F072FF0E4A11680E4B0B40A02109020B4313600C4A1168B6
:402A80000C4B0B401360122000F058FF70BDC0460C0028403C02002088490000D8000020FFFFFEFFC403002004002840FF1FDFFF0800284000FF80FF10B5CC080723194066
:402AC000063B8B40DBB2002A04D0041922781343237003E0041922789A43227010BDC04670B50600002400250BE03000FFF772FFFFF738FE0128FBD03000FFF73BFE241812
:402B00000135002DF1D0A0B270BDC046014B19547047C046FC03002010B5002404E000212000FFF7F3FF01340C2CF8D9FFF7B8FD0020FFF791FEFFF785FE10BD10B5202385
:402B40000C4AD35C002B05D1FFF7E6FF01212023084AD154FFF7E6FD00F03AFB01212123044AD154044A13688021C9030B43136010BDC0463C02002004002840F0B50027E1
:402B800014E00C4BDE5D0C4BDB5DF6181A00002404E08D5CAC4200D22C000132B242F8D301E0CC540133B342FBD301378742E8D3F0BDC046104A0000084A000030B50C4BBA
:402BC0001A5C44000B4BE15A0B4BE1521B1800241C772C255C55002A06D0531E074CA45C054AD3183C229C544000054BC15230BDC4490000400200206002002028010020FF
:402C00003C04002010B50400FFF7E4FEFFF7AAFD0028FBD12000FFF7D1FF10BD10B5002403E02000FFF7EEFF01340C2CF9D910BD024B18182C23C05C7047C046600200204D
:402C4000F0B5474680B40500294B1B5C294AD118097A88462849CE5CD75C002B05D10122264B3C335A71052401E0013BDCB2290022484430FFF7FCFD002812D01F4B5B1902
:402C80002C229A5C43469B1B9A4226DA1B4E3000443000222900FFF70FFF34193C23E7541BE0164B5B192C229A5C330043449A420FDB3C21114B1C19625C013AD2B26254BD
:402CC000002A0AD10132290018004430FFF7F4FE03E00A4B1C193C23E754290007484430FFF7C6FD002800D0012004BC9046F0BDC4490000280100205804002060020020A3
:402D000070B5084B1C5C1818057A651900262000FFF796FF002800D001260134A542F6D8300070BD084A000070B50025002406E02000FFF7E5FF002800D001250134052C1B
:402D4000F6D9280070BDC04670B5094D2C352D180026FF20002308E0EC5C944203D9A64201D2260018000133DBB28B42F4D370BD60020020F0B583B004001600019308AB88
:402D80001878344A13002C335B181D5D48325570002C09D19A19013A17782E4A4821575448325B78937017E0721E94420BD11B19013B1F78274B48229F5459181C3A8A5C4C
:402DC00048339A7008E01B195A1E1778214A482157545B784832937048231E4AD35C834204D91B1A48221B498B5403E000214823184AD154174A483253781B1ADBB25370B5
:402E00009278904204D2101A124A4832907003E00021104A483291700E490A00483292784820095C501AC9188918000201F094FA2402041901D53602A4196B460420185E8F
:402E40004443FE23DB019C466444240CE0B203B0F0BDC04660020020884202D9030008001900914200D91100031C884200D20B1C98B27047F0B5474680B484B00500234B24
:402E80001B1820229F5C224A145C1218167A1A7A31002000FFF758FFFF282DD01D4B5B5D0093C8235B0132002100FFF763FF040080B27D1CEDB2154BDB1920229B5C002BEB
:402EC00009D1124B59198C5401355D19AC54DF190123BB5416E00D4B20265F19BA5D90466946CA81C98901355D19AA5DFFF7B4FF4346AB55BC5505E0044BDF1900222023A6
:402F0000FA54054804B004BC9046F0BD28010020084A00001C040020FFFF0000401849004018800880B27047F0B5474680B482B004003F4B1E5C3F4B9B5D019342003E4B3B
:402F4000D75A24233D4AD35C002B09D03C4D43009846595B3800FFF7E1FF070043465853E1B2354A374801F0EFF86300364A9A5A974207D30021354B1955BD1AADB201231C
:402F8000984603E0D51BADB2002398464346002B15D12F4B9B5D9D4211D92C4B1B5D274A1219127C934206D32000FFF707FE0022264B1A551EE00133244A13551AE06B4694
:402FC0009B889D4206D9224B9B5D9D4212D24346002B0FD113029C461B4801190B7F66463343FF18BF1A3A0A6300C2520F770022164B1A556B469E88B5420FD94346002B87
:403000000CD0FF2D05D9104B1C19FF222C23E25409E00D4B1C192C23E55404E00A4B1C1900222C23E25402B004BC9046F0BDC046C44900001C04002040020020280100206E
:403040003C040020E404002060020020240400203404002010B5040000F064F82000FFF763FF10BD10B5002409E021000548FFF7FFFB002802D02000FFF7ECFF01340C2CD4
:40308000F3D910BDF000002010B5122000F060FC01221E4B1A601E4B1878C0B2FFF7C4FC1C4B1B785BB2002B05DA1A4A137801218B43137026E0164C2078C0B2FFF7E4FB43
:4030C00020702378DBB20C2B05D8114B1878C0B2FFF7ECFB16E00F4B1A7801218A431A701B785B060ED500220B4B1A7006E00B4AD15C0B4AD1540133074A1370064B1B78C7
:40310000012BF4D9122000F019FC10BD140028405A0200203C020020AB020020C8030020F0000020064B1B5C064AD25C51080648C1540648C154D2080549CA547047C0460C
:40314000C4490000300100201C0400203404002058040020024A136840218B431360704704002840044A1168044B0B40802189000B4313607047C04608002840FFFCFFFCE2
:4031800070B5002208E00D498B5C5D080C4CA55401335B088B54013203789A42F3D3122000F0D6FB074A1168074B0B4007490B431360122000F0C2FB70BDC046DC030020AB
:4031C000EC03002008002840FFFCFFFC0002000170B5274B0D221A70062159709A702332DA80244A9A80244A9A60FFF7B3FF002304E099002148224A885001331C4A527815
:403200009342F6D3002306E010211E4AD1540C391D4AD15401330C2BF6D9FFF7A3FF1B4E134C3100200000F0EFFE194D29000620FFF7A4FC200000F0F8FE0122154B1A7032
:403240003100200000F0E0FE29000620FFF796FC200000F00BFF2000FFF792FF002403E02000FFF75FFF01340C2CF9D970BDC046E4040020CC040000184A00000000FF0F62
:40328000D8000020CC0300200C0400209A0D0000DC0300205B02002010B500F075F810BD10B500F01DF810BD10B5044A1368802109060B431360FFF7EFFF10BD0000254039
:4032C00010B5064B1B78002B04D1FFF7E9FF0122024B1A70FFF7E8FF10BDC046AC020020154A164B1A600023154A13601549164A1160072215490A6015490A60154A1360E6
:403300000121154A11601549154A1160154A13600421154A1160154A1360154A1360154A1360154A1360154A1360154A13601268144B1A807047C0460B0000020000254018
:403340004000254001000A00480025400003254004032540100325404400254007000080000225400402254050002540880E2540C80E2540480F2540080F2540C80F254043
:40338000880F2540AE02002005490B68F0229343603A13430B60034B1A88034B1A60704700030240AE020020880F254070B50500002402E000F0D0FD0134285D0028F9D124
:4033C00070BDC046034A1168034B0B408001184310607047080504403FFEFFFF034A1168034B0B40400218431060704708050440FFF1FFFF034A1168034B0B40000318438D
:403400001060704708050440FF8FFFFF0004000C014B18607047C046480220400004000C014B18607047C046540220400004000C014B18607047C0464C02204070B504009E
:403440000D0000F052FDAC40024B1C6000F051FD70BDC0460800204010B500F046FD064A116820230B43136000F043FD18212020FFF7E4FF10BDC04600002040014B186034
:403480007047C0467802204010B50D4C8223DB042360236823600020FFF7B8FF236823600C22084B1A600020FFF7E8FF3122064B1A600648FFF7B2FF0548FFF7B7FF10BD96
:4034C000400220406402204068022040FFFF0000FF7F000010B5064B1B78002B04D1FFF7D3FF0122024B1A70FFF7B6FF10BDC046B00200200004000C014B18607047C046D2
:40350000080120400004000C014B18607047C046140120400004000C014B18607047C0460C01204070B504000D0000F0DEFCAC40024B1C6000F0DDFC70BDC0460800204005
:4035400010B500F0D2FC064A116801230B43136000F0CFFC18210120FFF7E4FF10BDC04600002040014B18607047C0463801204010B50D4C8223DB0423602368236000208C
:40358000FFF7B8FF236823600C22084B1A600020FFF7E8FF3122064B1A600648FFF7B2FF0548FFF7B7FF10BD000120402401204028012040FFFF0000FF7F000010B5064B7E
:4035C0001B78002B04D1FFF7D3FF0122024B1A70FFF7B6FF10BDC046B10200200004000C014B18607047C046880220400004000C014B18607047C046940220400004000C13
:40360000014B18607047C0468C02204070B504000D0000F06AFCAC40024B1C6000F069FC70BDC0460800204010B500F05EFC064A116840230B43136000F05BFC182140200E
:40364000FFF7E4FF10BDC04600002040014B18607047C046B802204010B50D4C8223DB042360236823600020FFF7B8FF236823600C22084B1A600020FFF7E8FF3122064BF9
:403680001A600648FFF7B2FF0548FFF7B7FF10BD80022040A4022040A8022040FFFF0000FF7F000010B5064B1B78002B04D1FFF7D3FF0122024B1A70FFF7B6FF10BDC0467E
:4036C000B2020020024A10680123184010607047100D0440044B1B68002BFBDB0002034B1843014B186070470000014040000080034B1B68002BFBDB024A014B1A60704799
:40370000000001404000004010B5064A13680724234000021843CB00FF2119400143116010BDC04600030140044B1B68002BFBDB0002034B1843014B186070470000014003
:4037400041000080034B1B68002BFBDB024A014B1A607047000001404100004010B5064A13680724234000021843CB00FF2119400143116010BDC04604030140024A1168D7
:40378000024B0B401360704700002240FFFFFFBF034B18688023DB05184000D0012070470000224030B52D4B1A783F231340042B01D9012000E0002000230AE0284A1268AF
:4037C0003F210A402749C95C8A4201D1033303E001332D2BF2D9032323490A680124A2430A60224A126822490A6000280FD021490D681F4C65601F24A2431F4C247822439F
:403800001A4C22601D4A1278D2B20A6005E01F218A4317390A4315490A60302B0BD1002803D0174B1B78DBB202E0164B1B78DBB2154A13600CE0182B0AD1002803D0134B1E
:403840001B78DBB202E0124B1B78DBB20E4A1360104A116802230B43136030BD00F3FF0F2CFF0B40844A000050000C4034FF0B40B402002020FF0B40C0F1FF0FC1F1FF0F3A
:40388000C3F1FF0F3FF3FF0F28FF0B40C2F1FF0F3EF3FF0F24002C4030B51A4B1A783F231340042B01D9012000E0002000230AE0154A12683F210A401449C95C8A4201D199
:4038C000033303E001332D2BF2D9032310490A680224A2430A600F4C21681F2291430E4D2D682A400A432260002803D00A4A51680A4A11600A4A944663441B78DBB2094ABB
:40390000136030BD00F3FF0F2CFF0B40844A000024002C4034FF0B40B402002020FF0B404DF3FF0F28FF0B40034B1B680220184000D001207047C04624002C401F231840B1
:403940001E3B8340014A13607047C04600E100E01F2318401E3B8340014A13607047C04680E100E001BE704770B504000D001F2802D90020FFF7F6FF1034A40080239B0579
:403980009C4664442068256070BDC04670B504000E00032902D90020FFF7E4FF1F2C02D90020FFF7DFFF03252540ED00063500F09CFAA408A400074B9C46644421680323D6
:4039C000AB4099430B003100A9401943216000F090FA70BD00E400E010B5040006E0084B586800F079FA074B9C46644480231B029C42F4D8024B9868604300F06DFA10BD14
:403A0000600100200080FFFF30B583B000F0BCF900285FD000F069FA04002F4A116801230B43136000230AE02C4A12683F210A402B49C95C8A4201D1033303E001332D2BC2
:403A4000F2D90323274A1268D20606D1254802681F218A4313390A430260234A1168234A0A40234959438020C00184466144C90B01394905490D0A43A021490311430800FF
:403A8000192B02D81B4B1A430EE01B4A9A1812781A3B1349C9183023CB5CD318FF2B00D9FF239B0502001A430F4B1A60134D2B680193302000F05EFA114A13688021C90543
:403AC0000B4313601420FFF787FF019B2B60200000F00FFA03B030BD50000C402CFF0B40844A000034FF0B400800224000F800C040420F000000D43F4DF3FF0F3000104083
:403B00000000224010B5034B1B7B584300F0E4F910BDC04660010020F0B55F4656464D464446F0B483B0040000F0DFF90190FFF72FFE002804D0FFF721FE01239A4601E06E
:403B400000239A46182C01D0302C04D1FFF7A4FE01239B4601E000239B46E61E2D2E74D8454B1B78DBB29C4208D8444B1B78DBB29946434B1B78DBB2984631E0414B1B7817
:403B8000DBB29C4208D8404B1B78DBB299463F4B1B78DBB2984623E03D4B1B78DBB29C4208D83C4B1B78DBB299463B4B1B78DBB2984615E0394B1B78DBB29C4208D8384B5B
:403BC0001B78DBB29946374B1B78DBB2984607E0354B1B78DBB29946344B1B78DBB29846334B9F5D2F2F09D92A2C07D91922314B1A60052000F070F9192503E02D4B1D68A6
:403C00003F231D40BD4206D9294B9A5D294B1A60052000F061F9254B9C4664442378DBB2254A1360254B4A461A60254B42461A600520FFF767FFBD420AD21D4B9A5D1D4B0C
:403C40001A60052000F048F902E00020FFF78AFE5346012B01D1FFF7D7FE5B46012B01D1FFF7A0FD019800F044F903B03CBC90469946A246AB46F0BD40F3FF0F41F3FF0F31
:403C800042F3FF0F43F3FF0F44F3FF0F45F3FF0F46F3FF0F47F3FF0F48F3FF0F49F3FF0F4AF3FF0F4BF3FF0F4CF3FF0F4DF3FF0F844A00002CFF0B4028FF0B401CFF0B4082
:403CC00020FF0B40134B1B78DAB20260124B1B781B0213430360114A12781204134303600F4A12781206134303600E4B1B78DAB242600D4B1B781B02134343600B4A127853
:403D00001204134343600A4A12781206134343607047C04678F2FF0F79F2FF0F7AF2FF0F7BF2FF0F7CF2FF0F7DF2FF0F7EF2FF0F7FF2FF0F034B1868C0231B02184000D0F6
:403D40000120704700010B4010B50D4B1A6801218A431A601A68022082431A60094A10683024A043203C204310601068093CA043014311601A68802109060A431A6010BDE8
:403D800000002240000F2240034B1B68002B01DA012000E0002070470000224010B500F0A4F8044A1368C02109020B43136000F0A0F810BD00010B4010B500F096F8084923
:403DC0000A68084B1A408024E40122430A600A6813408022120213430B6000F08AF810BD00010B40FF3FFFFF70B5050000F07DF80400FFF79FFF002803D0FFF7DDFF012133
:403E000000E0002108482840084A1568084B2B40184310601368012901D1FFF7BFFF200000F067F870BDC0460404040010020B40FBFBFBFF10B5244B1B685B0715D5234BDA
:403E40005B685B070ED5224B596A042001401F4C62688A4362605A6A82435A629B69002B00D098470420FFF7BFFF174B1B685B0518D5164B5B685B0510D5154B596A802286
:403E8000D2001140114842688A434260596A114A0A405A62DB69002B00D098478020C000FFF7A2FF084B1B685B030CD5074B5B685B0304D5064B1B6A002B00D09847802083
:403EC000C002FFF791FF10BD10020B4074010020D4020020FFFBFFFF0230800803D00138FDD1C046C046C0467047EFF3108072B6704780F31088704710B5144B1B68032291
:403F00001340012B02D0022B04D00FE00F4B1B69DBB20CE00D4B1B697F2213405A00D3189A000B4B9A18937ADBB200E00023022B07D8084A1268D35C032B04D1FDF76CFE2D
:403F400002E0002000E0002010BDC04600002C40400300203C030020044B1B681F221340082BF9D0024B18607047C046080225404002254070B50400FFF7B7FF0500102C2E
:403F800005D8104A136803218B43136016E0202C07D80C490B6803229343023A13430B600CE0302C07D807490B6803229343013A13430B6002E00020FFF7D4FC2800FFF742
:403FC00098FF70BD30001040F7B59C180023071C08268025019100922370237800982B432370BB689B6C9847019B984202D22378AB432370013E6D08002EEED12378F82B4B
:4040000001D9F8232370F7BD70B5051C0E1C00242B789C4208D2AB68221C281C311C1B68FFF7D2FF0134F3E770BD38B5051C00242B789C4219D2AA6813681B5DDB080F2B2D
:4040400000D90F23D16BD268C95C1155AA68042B04D9936D906B211C012203E0936D906B211C002298470134E2E738BDF0B5041C002687B063789E4262D2A3685A6C925DDB
:404080000392002A01D1013203921A6C925D019201992278914251D29A689B69515C0F221140B2000492002205910499019D5A50019B5B000293039B019A9B189D423DD2F5
:4040C000A768E388A0885843FB68595D00F044F93B68595D00F0B6F8059B5843194B40005A2802D95B084008FAE7BA6904991B0C1B045350A36882085B6B01215855A368A0
:40410000C008DB69029F5A550F22A36849421B6A5855A3685B6A5A55A368986AC1530021D86AC153186B9B68C1535B19197801350A401A703B1C02330293BCE7013699E7EF
:4041400007B0F0BD0000FFFFF0B585684E002B6B925B9B191C8887B0141B0094AC6A1A80A45B6B6A0294EC6A5F5CA45B2B6A03946C6B7F00645C5B180494AC680193645C49
:404180001B780594009CE40FA4460F24251C6744009C3D40AC46E51764196C409C4203D2012B05D0013B00E00133FF273F2B00D89F00019D2B7065460F2D29D0002D24D0C6
:4041C000BC4225D8059C029F24090094974200D9171C039D954200D2151C009A092A01D8141C01343A1C0A2C14D1EA1B934206D9049A92089A42924152429B1A00E00133E9
:404200008268D26953543A1C04E0151C644601E0151C00246746836824015B6A5F5483689F6ABA53DA6A9B6895530F225B181D782A401A7083689B6859180B781C430C7018
:4042400007B0F0BD002243088B4274D303098B425FD3030A8B4244D3030B8B4228D3030C8B420DD3FF22090212BA030C8B4202D31212090265D0030B8B4219D300E0090A04
:40428000C30B8B4201D3CB03C01A5241830B8B4201D38B03C01A5241430B8B4201D34B03C01A5241030B8B4201D30B03C01A5241C30A8B4201D3CB02C01A5241830A8B4254
:4042C00001D38B02C01A5241430A8B4201D34B02C01A5241030A8B4201D30B02C01A5241CDD2C3098B4201D3CB01C01A524183098B4201D38B01C01A524143098B4201D3C8
:404300004B01C01A524103098B4201D30B01C01A5241C3088B4201D3CB00C01A524183088B4201D38B00C01A524143088B4201D34B00C01A5241411A00D2014652411046D5
:404340007047FFE701B5002000F0F0F802BDC0460029F7D076E7704703460B437FD4002243088B4274D303098B425FD3030A8B4244D3030B8B4228D3030C8B420DD3FF220F
:40438000090212BA030C8B4202D31212090265D0030B8B4219D300E0090AC30B8B4201D3CB03C01A5241830B8B4201D38B03C01A5241430B8B4201D34B03C01A5241030BCB
:4043C0008B4201D30B03C01A5241C30A8B4201D3CB02C01A5241830A8B4201D38B02C01A5241430A8B4201D34B02C01A5241030A8B4201D30B02C01A5241CDD2C3098B42C9
:4044000001D3CB01C01A524183098B4201D38B01C01A524143098B4201D34B01C01A524103098B4201D30B01C01A5241C3088B4201D3CB00C01A524183088B4201D38B0022
:40444000C01A524143088B4201D34B00C01A5241411A00D201465241104670475DE0CA0F00D04942031000D34042534000229C4603098B422DD3030A8B4212D3FC22890167
:4044800012BA030A8B420CD3890192118B4208D3890192118B4204D389013AD0921100E08909C3098B4201D3CB01C01A524183098B4201D38B01C01A524143098B4201D36F
:4044C0004B01C01A524103098B4201D30B01C01A5241C3088B4201D3CB00C01A524183088B4201D38B00C01A5241D9D243088B4201D34B00C01A5241411A00D201466346A9
:4045000052415B10104601D34042002B00D54942704763465B1000D3404201B5002000F005F802BD0029F8D016E770477047C046014B18687047C046DC0100200E4B70B53E
:4045400000251E000D4CE41AA410A54204D0AB00F35898470135F8E700F03EFC084B00251E00084CE41AA410A54204D0AB00F35898470135F8E770BDE44D0000E44D00004E
:40458000E44D0000EC4D000003008218934202D019700133FAE77047000000004170706C69636174696F6E205374617274732E2E2E0A0D0055534220446973636F6E6E6505
:4045C00063746564200A0D00484944204472697665727320496E7374616C6C6564200A0D0000000076040000A0040000B6040000CE040000E4040000FA0400001005000074
:40460000280500008A040000E2050000AA050000B2050000BA050000C2050000CA050000D2050000DA05000032060000FA050000020600000A060000120600001A060000E0
:40464000220600002A060000540800003208000042080000540800003A080000360800003E080000540800004E0800006008000048080000FC0D0000FC0A0000180B000044
:404680009E0B0000240C0000DC0C00009C0D0000CE0D00000000090012001B0024002C0035003E0047004F0058006000680070007800800088008F0096009E00A500AB0003
:4046C000B200B800BE00C400CA00CF00D400D900DE00E200E600EA00ED00F100F300F600F800FA00FC00FE00FF00FF00000100011000000004000000010000000800000028
:4047000002000000020000000300000005000000070000000B0000006A0F0000800F0000960F0000CE0F000006100000361000003E10000046100000561000004C656674E0
:4047400020436C69636B0A0D00000000526967687420436C69636B0A0D0000004D6964646C6520436C69636B0A0D00004C6566742053776970650A0D000000005269676841
:40478000742053776970650A0D00000055702053776970650A0D0000446F776E2053776970650A0D000000004F7574776172642053776970650A0D00496E6E657220436C7B
:4047C0006F636B776973650A0D000000496E6E657220436F756E7465722D436C6F636B776973650A0D0000004F7574657220436C6F636B776973650A0D0000004F75746542
:404800007220436F756E7465722D436C6F636B776973650A0D00000000300F40000800400F400008B80ABE05D804DF0118A0B450E28052806801D420DA40A401A6801280FB
:40484000A401A680C4108801A4015020D40438043C049004B424CE03EC0A2D088908CA01E201000004320F4001330F4001350F4001370F4004400F4002410F4004420F4032
:4048800002430F4002450F4006460F4004470F401D1A0000291A00002D1800000000000000000000A9190000E119000000000000000000000000000000000000000000001E
:4048C000000000001E260000682500001E260000BA2500001E260000E42400001E2600001E2600001E260000F42400001E2600003425000030313233343536373839414267
:404900004344454600000000040404040007070700000707070000000507040606040302010007060500000000000240000102400002024000030240000402400005024058
:4049400000060240000702400008024000090240000A0240000B0240000C02400800044008010440080204400803044008040440080504400806044008070440080804405A
:4049800008090440080A0440080B0440080C044000000440000104400002044000030440000404400005044000060440000704400008044000090440000A0440000B04402B
:4049C000000C044001020304050000000000000000000000200000008000000010000000400000004000000010000000080000000400000002000000010000008000000089
:404A0000400000002000000005000102030400000801010101010000DC030020EC03002050010020CC0300200C040020C4490000D80000209C04002060040020700400207F
:404A4000C804002080040020AC040020F0040020C4030020744A0000084A0000104A0000E12A0000AD2800007527000071280000B92A0000040404080808081010101010FD
:404A800010101010030405060708090A0B0C0E0F101112131415161718191B1C1D1E1F2021222325262728292A2B2E2F3031323334350000EEDBC9B9AA9B8E82766B60568F
:404AC0004D443B332C241D17100A040001000000D44A000001000000C44D0000000000000000000001000000EC4A000001000000884D000002000000184B00000100000071
:404B0000304B000001000000284B000000000000144B0000030300000000810308000300010082030800030001000000384B0000010000006C4B000000000000604B00001A
:404B40000000000000000000000000000000000001000000AC4B000001000000B34D000005000000080500200405002000000000A04B000000000000944B00000000000017
:404B80000000000001000000F44B0000010000009A4D0000020000004005002044050020090000001005002000050020430005010902A1010901A100050919012903150090
:404BC00025019503750181029501750581030501093009311581257F950275088106C0A10005010938950175081581257F8106C0C00000003F0005010906A101050719E025
:404C000029E71500250175019508810295017508810195057501050819012905910295017503910195067508150025650507190029658100C00000000203000004030904A2
:404C40002C0343007900700072006500730073002000530065006D00690063006F006E0064007500630074006F007200360343005900380043004B00490054002D00300008
:404C800034003600200055005300420020004D006F007500730065002000440065006D006F0012034B006500790062006F006100720064000C034D006F0075007300650054
:404CC0002A0343005900380043004B00490054002D0030003400360020004B006500790062006F00610072006400240343005900380043004B00490054002D0030003400B9
:404D0000360020004D006F00750073006500280343005900380043004B00490054002D0030003400360020004500780061006D0070006C00650024034300590038004300F9
:404D40004B00490054002D003000340036002D004D006F007500730065002A0343005900380043004B00490054002D003000340036002D004B006500790062006F006100D3
:404D8000720064000000000009023B00020107C032090400000103000005092111010001223F000705810308000A090401000103000006092111010001224300070582033A
:404DC00008000A001201000200000008B40442F10000010280014300F8B5C046F8BC08BC9E467047BD020000B1110000F8B5C046F8BC08BC9E46704795020000104E0000D0
:404E0000C000002020010000680300000000000000000000F401000001000000FF000000FF000000FF0000000000FF0F0000FF0F0000FF0F0000FF0F0000FF0F0000FF0FBF
:404E4000FF1F0000080404400804044008040440080404400800044008070440080704400807044008000440080004400807044008070440080704400102020202010000F4
:404E800064C8C8C8C86400001E1E1E1E1E1E1E1E1E1E1E1E1E000000010000000100000008080808080808080808080808000000010000000000C05D80BB00003000000091
:404EC000006CDC02F0000000040404000000000000000000000000000000000000000000000000000000000000000000D64D00000000000000000000000000000000000049
:404F000000000000000000000000000000000000000000000000000000000000000000000000000000000000000000007C01002000000000000000000000000000000000D4
:404F40000000000000000000000000000000000000000000000000000000000000000000000000000000000000000000000000000000000000000000000000000000000031
:404F800000000000000000000000000000000000000000000000000000000000000000000000000000000000000000000000000000000000000000000000000000000000F1
:404FC00000000000000000000000000000000000000000000000000000000000000000000000000000000000000000000000000000000000000000000000000000000000B1
:405000000000000000000000000000000000000000000000000000000000000000000000000000000000000000000000000000000000000000000000000000000000000070
:020000040003F7
:0200000490303A
:02000000A75700
:0200000490402A
:4000000000000000000000000000000000000000000000000000000000000000000000000000000000000000000000000000000000000000000000000000000000000000C0
:400040000000000000000000000000000000000000000000000000000000000000000000000000000000000000000000000000000000000000000000000000000000000080
:0200000490501A
:0C0000000002101311A00001102BB8F733
:0200000490600A
:0100000001FE
:00000001FF