:400000000080002011000000550300005503000080B500AF00F0A8F980B500AF1B4B12221A60302000F0AAFD194B1A4A1A601A4BF02212011A60194B194A1A60194B80227E
:4000400012061A60184B8022D2021A60174B40221A60174B1900082000F0A6FE082000F0C9FE144B144A1A60144B05221A60144B08221A60C046124B1B6808221340FAD1DF
:400080000F4B01221A60C046BD4680BD3000104004010B4006000080000301400000014040FF008008010B4000010B402C0101406111000008020B40FF7C00000C020B40C0
:4000C00010020B4080B582B000AF72B62E4B01221A70FB1D00221A7022E0FB1D1A7813005B009B185B00294A9B183B603B681A78597809020A43997809040A43DB781B0655
:40010000134318003B681A795B791B0213439BB2190000F0B9F8FB1D1A78FB1D01321A70FB1D1B78012BD8D9194A1A4B1100180000F0BAF8184B00221A60184B00221A6035
:40014000174B992212041A60164B174A1A60174B01221A60164B01221A60164A154B1B78DBB206210B43DBB21370134B08221A60124BC02212011A60FFF74EFF00F0D6F865
:40018000C046BD4602B080BD1C700F406C1400008814000078140000000302400803044000500F40200120401E0E00002000104000800F4000700F4000050440080504404C
:4001C00010B5064C2378002B07D1054B002B02D0044800E000BF0123237010BD500100200000000068140000084B10B5002B03D00749084800E000BF07480368002B00D196
:4002000010BD064B002BFBD09847F9E7000000005401002068140000C80000200000000080B582B000AF00237B6000233B6062B600F07AF9FA23DB01180000F019F90300AF
:400240007B607B68013B1900002000F0C5FE002000F00AFF03003B607B685A1E3B689A4202D2082000F062FF7D2000F00BFE00F01DFE00F0C9F903005A425341DBB218008F
:4002800000F09AF9D6E7C04680B582B000AF786039603A687B680021180001F0DDF8C046BD4602B080BDC04680B586B000AF7860396000233B6100237B612FE07B699B0018
:4002C0007A68D3181B68BB600F23FB18BA681A70BB68FF229343BB6018E03B695B003A68D3181B781A00BB68D31819003B695B003A68D3185B780B703B6901333B610F2395
:40030000FB181A780F23FB18013A1A700F23FB181B78002BE1D17B6901337B617B69032BCCD9C046BD4606B080BDC04680B500AF054B03221A60054B03221A60044B002279
:400340001A60C046BD4680BD3000304030003140000E3F4080B500AF01F052F803001B680C2B00D1FEE7FEE780B586B000AF224B7B61224B3B61204B7B6135E03B691B6889
:40038000FB603B695B68BB603B699B683B6000237B600CE0FB681A68BB681A60BB680433BB60FB680433FB607B6804337B607A683B689A42EED13B69DB683B6000237B60B3
:4003C00008E0BB6800221A60BB680433BB607B6804337B607A683B689A42F2D13B6910333B617B69013B7B617B69002BC6D101F00DF8FFF715FFFEE7010000001015000098
:4004000080B582B000AF154B144A126801218A431A6000237B600FE07B68032B04D8104B7A689200D35800E00E4B0F4A796889008B507B6801337B607B682F2BECD9FFF770
:4004400041FE0A4B00221A60044B044A126801210A431A60C046BD4602B080BD00001040000000005503000000000020C000002090B589B000AF0200BB1D1A80BB1D1B8890
:40048000264A53435B09BB611623FC1800F068F8030023801623FB181B88002B0ED01623FB181B8819001E4800F01EFF03009BB2643B9AB21C23FB181A8003E01C23FB18A4
:4004C00000221A801C23FB1800229B5E64335B013B61BB696421180000F006FF03001A003B695343FB60FB680E4A934205D91E23FB18012252421A8009E0FB680749180015
:4005000000F0F2FE03001A001E23FB181A801E23FB181B881800BD4609B090BD1027000082240000FFFF0F2780B500AF00F07AF800F0BEF81821012000F0F8F8C046BD4678
:4005400080BDC04680B582B000AF00F0E3F80200BB1D1A80BB1D1B881800BD4602B080BD90B583B000AFBC1DFFF7ECFF030023803C1DFFF7E7FF0300238009E03C1DFFF7C4
:40058000E1FF03002380BC1DFFF7DCFF03002380BA1D3B1D12881B889A42EFD1BB1C3A1D1288032149428A1A1A80BB1C1B881800BD4603B090BDC04680B584B000AF0200F3
:4005C000FB1D1A700F4B1B68DAB20F23FB1808218A431A70FB1D1B78DB00DBB208221340D9B20F23FB180F22BA1812780A431A70044B0F22BA1812781A60C046BD4604B054
:4006000080BDC0460005044080B500AF044B1B6808221340DB08DBB21800BD4680BDC0460405044080B500AF024B01221A60C046BD4680BD80E100E080B500AF094B0A4AFF
:400640001A600A4B0C221A60002000F08DF8084B180000F04FF8064B180000F03BF8C046BD4680BD000120400000010224012040FFFF000090B583B000AFFC1D00F0F1FDF5
:4006800003002370094B094A126801210A431A60FB1D1B78180000F0E8FD1821012000F045F8C046BD4603B090BDC0460000204080B500AF064B1B78002B04D1FFF7BCFF93
:4006C000034B01221A70FFF7D5FFC046BD4680BD6C01002080B582B000AF7860044B7A681204120C1A60C046BD4602B080BDC0460801204080B582B000AF7860044B7A680F
:400700001204120C1A60C046BD4602B080BDC0461401204080B500AF034B1B681B041B0C1800BD4680BDC0460C01204090B585B000AF786039600F23FC1800F092FD030070
:400740002370084B79683A6891400A001A600F23FB181B78180000F088FDC046BD4605B090BDC0460800204080B582B000AF7860034B7A681A60C046BD4602B080BDC04647
:400780003801204090B587B000AF0023BB6000F0C3FB031E00D184E0FC1D00F062FD03002370424B414A126801210A431A6003233B6100237B6111E03D4B1B681A003F2381
:4007C00013403C497A698A181278934203D17B6903333B6105E07B6901337B617B692D2BEAD9354B1B681F22134007D1324B324A12681F218A430C210A431A602F4B1B68FB
:400800002F4A1340FB603B692E4A53438022D20194466344DB0B013B5B055B0DFA681343FB60FB68A02252031343FB603B69192B05D8FB68FF2292051343FB6016E03B6996
:40084000214A944663441B78DBB219003B691A3B1E4AD35CCB18BB60BB68FF2B00D9FF23BB60BB689B05FA681343FB60134BFA681A60174B1B683B60302000F0F9FC154B3D
:40088000144A12688021C9050A431A60142000F0D3FA0F4B3A681A60FB1D1B78180000F0E4FCC046BD4607B090BDC04650000C402CFF0B40A014000034FF0B40080022406F
:4008C00000F800C040420F004DF3FF0FD0140000300010400000224080B500AF044B044A126804490A401A60C046BD4680BDC04600002240FFFFFFBF80B500AF054B1A686F
:400900008023DB05134001D0012300E000231800BD4680BD0000224080B584B000AF3C4B1B78DBB21A003F231340042B01D9012300E000237B600323BB600023FB6011E0E6
:40094000344B1B681A003F2313403349FA688A181278934203D1FB680333BB6005E0FB680133FB60FB682D2BEAD92C4B2B4A126801218A431A602A4B1A682A4B1A607B6852
:40098000002B13D0284B1A68284B1A60244A254B1B681F218B4326490978C9B20B431360214B244A1278D2B21A6007E01C4A1D4B1B681F218B4308210B431360BB68302B9C
:4009C0000CD11D4B7A68002A03D01C4A1278D2B202E01B4A1278D2B21A600EE0BB68182B0BD1154B7A68002A03D0164A1278D2B202E0154A1278D2B21A60144B134A1268B4
:400A000002210A431A60C046BD4604B080BDC04600F3FF0F2CFF0B40A014000050000C4034FF0B408801002020FF0B408C010020C0F1FF0FC1F1FF0F28FF0B40C3F1FF0F14
:400A40003FF3FF0FC2F1FF0F3EF3FF0F24002C4080B584B000AF254B1B78DBB21A003F231340042B01D9012300E000237B600323BB600023FB6011E01D4B1B681A003F230D
:400A800013401C49FA688A181278934203D1FB680333BB6005E0FB680133FB60FB682D2BEAD9154B144A126802218A431A60134A124B1B681F218B431900114B1B681F201A
:400AC00003400B4313607B68002B03D00D4A0E4B1B6813600D4BBA680D498C4662441278D2B21A60C046BD4604B080BD00F3FF0F2CFF0B40A014000024002C4034FF0B4068
:400B00008801002020FF0B408C01002028FF0B404DF3FF0F80B500AF054B1B680222134001D0012300E000231800BD4680BDC04624002C4090B585B000AF78600F23FC18DA
:400B400000F08FFB030023700A4B7A68D104E02292031140074A1268074802400A431A600F23FB181B78180000F07FFBC046BD4605B090BD00010B40FFFFC7FF90B587B05D
:400B800000AF786000233B610023FB600B23FC1800F067FB03002370FFF7AEFE031E03D001233B61FFF798FEFFF7B4FF031E09D07B68182B02D07B68302B03D10123FB6039
:400BC000FFF746FF7B68022B00D8AFE07B68302B00D9ABE0614B1B78DBB21A007B689A420AD35F4A1723FB1812781A705D4A1623FB1812781A703FE05B4B1B78DBB21A000F
:400C00007B689A420AD3594A1723FB1812781A70574A1623FB1812781A702DE0554B1B78DBB21A007B689A420AD3534A1723FB1812781A70514A1623FB1812781A701BE09C
:400C40004F4B1B78DBB21A007B689A420AD34D4A1723FB1812781A704B4A1623FB1812781A7009E0494A1723FB1812781A70484A1623FB1812781A707B68DA1E0A23FB182D
:400C800044498A5C1A700A23FB181B782F2B0DD97B682A2B0AD9404B19221A60052000F0D7FA1523FB1819221A7007E03A4B1B68DAB21523FB183F210A401A700A23FA189A
:400CC0001523FB1812781B789A4208D2324B7A68033A30498A5C1A60052000F0B9FA2F4B7A682B498C4662441278D2B21A602C4B1722BA1812781A602A4B1622BA1812783A
:400D00001A60052000F0BEF80A23FA181523FB1812781B789A420CD91F4B7A68033A1D498A5C1A60052000F093FA02E0002000F077F83B69012B01D1FFF724FDFB68012B6C
:400D400001D1FFF7E9FD0B23FB181B78180000F08CFAC046BD4607B090BDC04640F3FF0F41F3FF0F42F3FF0F43F3FF0F44F3FF0F45F3FF0F46F3FF0F47F3FF0F48F3FF0FE3
:400D800049F3FF0F4AF3FF0F4BF3FF0F4CF3FF0F4DF3FF0FA01400002CFF0B4028FF0B401CFF0B4020FF0B4080B584B000AF02003960FB1D1A7080239B05FB60FB1D1B78AD
:400DC0001F2B02D9002000F02BF8FB1D1B7810339B00FA68D3181B68BB60FB1D1B7810339B00FA68D3183A681A60BB681800BD4604B080BD80B582B000AF0200FB1D1A704C
:400E0000064BFA1D12781F210A40012191400A001A60C046BD4602B080BDC04600E100E080B582B000AF0200FB1D1A7001BEC046BD4602B080BDC04680B582B000AF78609B
:400E400009E00D4B1B68180000F002FA7B680B4A944663447B607A6880231B029A42F0D8074B1B687A685343180000F0F1F9C046BD4602B080BDC046D80000200080FFFF1D
:400E8000D000002080B582B000AF0200BB1D1A80BB1D1B88044A12785343180000F0D8F9C046BD4602B080BDD400002090B583B000AFFC1D00F0D5F903002370114B114ABF
:400EC0001268520052081A600F4B104A128892B21A600F4B0E4A126804210A431A600D4B1B683B600220FFF725FE30BF094B3A681A60FB1D1B78180000F0B7F9C046BD46B2
:400F000003B090BD00000B400C000B4052F2FF0F10ED00E000010B4080B500AF044B1B68002B01DA012300E000231800BD4680BD0000224090B583B000AFFC1D00F091F93D
:400F400003002370074B074A1268C02109020A431A60FB1D1B78180000F087F9C046BD4603B090BD00010B4080B500AF054B1A68C0231B02134001D0012300E0002318006A
:400F8000BD4680BD00010B4090B583B000AFFC1D00F067F9030023700D4B0D4A12680D490A408021C9010A431A60094B084A126808490A40802109020A431A60FB1D1B78AB
:400FC000180000F052F9C046BD4603B090BDC04600010B40FF3FFFFF80B584B000AF786039607B68002B02D07B68012B01D1012300E00023002B02D10020FFF711FF174B10
:401000001B689B0F9B0701D1C92300E05D231800FFF738FF124B1B68FB607B681B01114A9A401300DA43FB681340FB600C4B7A68120139689140FA680A431A60074B1B6812
:401040009B0F9B0701D1432300E01F231800FFF719FFC046BD4604B080BDC0460C020B4008020B40FFFF000080B584B000AF78600023FB607B68012B09D002D3022B0BD0C5
:401080000EE00C4B1B681B041B0CFB600CE0094B1B681B0CFB6007E0074B1B68FB6003E00020FFF7BDFEC046FB681800BD4604B080BDC04600020B4004020B4090B585B024
:4010C00000AF78600B23FC1800F0CBF803002370FFF74AFF031E04D00123FB60FFF754FF01E00023FB607B680D4A13407B600D4B0C4A12680C4911407A680A431A60094B50
:401100001B68FB68012B01D1FFF714FF0B23FB181B78180000F0A9F8C046BD4605B090BD0404040010020B40FBFBFBFF80B582B000AF7860084B084A11687A680748024062
:401140000A431A60C046044B1B68044A1340FAD1C046BD4602B080BD10020B400808080080B500AF344B1B68042213401FD0334B1B680422134017D0314B1B6804221340D0
:40118000DA432E4B1B681A402C4B1A602C4B1B68042293431A002A4B1A602A4B1B68002B02D0284B1B6898470420FFF787FF224B1A688023DB00134022D0204B1A68802320
:4011C000DB00134017D01E4B1A688023DB001340DA431A4B1B681A40184B1A60184B1B68194A1A40164B1A60164B5B68002B02D0144B5B6898478023DB001800FFF75EFF59
:401200000D4B1A688023DB02134011D00B4B1A688023DB02134006D00A4B9B68002B02D0084B9B6898478023DB021800FFF746FFC046BD4680BDC04610020B40E400002095
:40124000980100209C010020FFFBFFFF000000000230800803D00138FDD1C046C046C0467047EFF3108072B6704780F31088704790B585B000AF78600F23FC18FFF7F1FF63
:40128000030023707B68102B06D8164B154A126803218A431A601AE07B68202B08D8114B104A126803218A4301210A431A600EE07B68302B08D80B4B0A4A126803218A43C4
:4012C00002210A431A6002E00020FFF7A9FD0F23FB181B781800FFF7C8FFC046BD4605B090BDC04630001040002243088B4274D303098B425FD3030A8B4244D3030B8B42D0
:4013000028D3030C8B420DD3FF22090212BA030C8B4202D31212090265D0030B8B4219D300E0090AC30B8B4201D3CB03C01A5241830B8B4201D38B03C01A5241430B8B4240
:4013400001D34B03C01A5241030B8B4201D30B03C01A5241C30A8B4201D3CB02C01A5241830A8B4201D38B02C01A5241430A8B4201D34B02C01A5241030A8B4201D30B0281
:40138000C01A5241CDD2C3098B4201D3CB01C01A524183098B4201D38B01C01A524143098B4201D34B01C01A524103098B4201D30B01C01A5241C3088B4201D3CB00C01A78
:4013C000524183088B4201D38B00C01A524143088B4201D34B00C01A5241411A00D20146524110467047FFE701B5002000F006F802BDC0460029F7D076E770477047C0464E
:40140000014B18687047C046480100200E4B70B500251E000D4CE41AA410A54204D0AB00F35898470135F8E700F060F8084B00251E00084CE41AA410A54204D0AB00F358B4
:4014400098470135F8E770BDF8140000F8140000F81400000015000003008218934202D019700133FAE770470000000000300F40000800400F40000801310F4004400F4047
:4014800004440F4003450F40E2026B208720DA40E240240227018701C8044C019002D204030405060708090A0B0C0E0F101112131415161718191B1C1D1E1F2021222325E4
:4014C000262728292A2B2E2F3031323334350000EEDBC9B9AA9B8E82766B60564D443B332C241D17100A044300000000F8B5C046F8BC08BC9E467047E9010000010400009D
:40150000F8B5C046F8BC08BC9E467047C101000020150000C8000020880000006800000000000000006CDC0280BB0000300000000000C05D01000000F00000000404040047
:401540000000000000000000000000000000000000000000000000000000000000000000E71400000000000000000000000000000000000000000000000000000000000070
:401580000000000000000000000000000000000000000000000000000000000000000000E80000200000000000000000000000000000000000000000000000000000000023
:4015C00000000000000000000000000000000000000000000000000000000000000000000000000000000000000000000000000000000000000000000000000000000000EB
:4016000000000000000000000000000000000000000000000000000000000000000000000000000000000000000000000000000000000000000000000000000000000000AA
:40164000000000000000000000000000000000000000000000000000000000000000000000000000000000000000000000000000000000000000000000000000000000006A
:40168000000000000000000000000000000000000000000000000000000000000000000000000000000000000000000000000000000000000000000000000000000000002A
:020000040003F7
:0200000490303A
:020000003F249B
:0200000490402A
:4000000000000000000000000000000000000000000000000000000000000000000000000000000000000000000000000000000000000000000000000000000000000000C0
:400040000000000000000000000000000000000000000000000000000000000000000000000000000000000000000000000000000000000000000000000000000000000080
:0200000490501A
:0C0000000002101311A00000101A50C4E0
:0200000490600A
:0100000001FE
:00000001FF