:400000000080002011000000191A0000191A000010B501F021FDC04670B512224C4B1A6005F03AFE4B4805F0FFFE05F02FF9302005F054FB484A494B1A608022D205484B56
:400040001A600022474B1A601F32474B1A60053A464B1A60FA20C00005F016FC444805F033FB44490A68444B1340902213430B60424D434B2B60434C434B2360F02005F000
:40008000D3FE424B2B60424B2360002405E0F020400005F0C9FE0134E4B2182C07D83D4B1B68002BF3D03C4B1B68002BEFD000223A4B1A603A4B3B4A1A60FE2212023A49FB
:4000C0000A603A4919603A490A603A4A1A6088218901394A1160394A1A60A021C900384A1160384A1A6080221206374B1A60374A204B1A604223364A1360364A1360402249
:40010000354B1A600132354B1A600332344B1A60013A344B1A603449082005F0FBF9082005F0C2F9F8225203304B1A608022D2050B4B1A60802212012D4B1A602C4B1B6882
:400140001B05FBD480225200294B1A6070BDC04630001040001BB7000600008004010B400C020B4008000C400CFF0C4010FF0C40DC05000000010B4007FEFFFF14000C4064
:400180000A06028020000C40150F02800A0602C0150F02C018000C4024000C40080301400000014042FF00800003014040FF00800403014041FF00801003014044FF00809F
:4001C0000C03014043FF008008010B4090000400300101402C0101401C010140180101400C01014008010140855D000008020B4010020B4070B572B601225D4B1A7000247B
:400200000FE05C486200131959000B00411889881A5AC31858880004104301F0BFFB0134E4B2032CEDD9002414E0524EA20011194B00F318198B588B000408439D8BD98BA2
:400240000904294313195A00B218128C01F0ACFB0134E4B2012CE8D946492C314648583001F082FB0122454B1A704549454B1960EE21454B1960C0218905444B1960992337
:400280001B0443490B608020C0054249086042490B6042490B608A20C0034149086041490B60B1210906404B1960D0213F4B196010313F4B1960D9393E4B19602A313E4B7B
:4002C000196002393D4B19603D4B1A602D393D4B196003203C4B186004243C4B1C6006233B4D2B603B4D2A603B4A11603B4A10603B4A146001343B4A14603B4A13603B4CB4
:4003000023783C22934314221343DBB22370384A147816232343DBB213704323354A1360354A1360354B1860354B19607222354B1A60354A354B1A60354B1960F722354BB1
:400340001A60D33A344B1A60D032344B1A60743A334B1A60C0221204324B1A60FC23324A1360324A1360FFF757FE01F041FB70BD1C700F40B8730000B877000020700F40B7
:4003800090EE330300030240000402400005024000500F4008500F4040500F4050500F4058500F4070500F4078500F4020012040600120402000104000200140042001400E
:4003C0000022014004220140082201400C220140102201400026014004260140082601400C2601401426014000800F4001700F4000700F400000044018000440000D044078
:400400000C0D044000030440B06D3B0008030440180304400004044008040440180404400005044008050440000704401807044010B5064C2378002B07D1054B002B02D0D0
:40044000044800E000BF0123237010BD880200200000000070700000084B10B5002B03D00749084800E000BF07480368002B00D110BD064B002BFBD09847F9E700000000A5
:400480008C02002070700000C00000200000000010B500F091FA00F013FA164804F09CFC002401F067FE01280ED101F087FC00281AD000F0A9FE00F0D3FA002C14D10E48E4
:4004C00004F08AFC01340FE00C4804F085FC01F051FE0028FBD00A4804F07EFC04F00EFC0028FBD105F04EF800F084FC00F046FAD7E7C0467470000088700000A070000025
:40050000B470000070B505000C00642200211A2004F094FDC0B2002816D16D00230A0130034028001843642104F016FEC0B200280AD1E0B2642104F00FFEC0B2002803D161
:40054000643004F0DDFDC0B270BDC04610B581B20820FFF7D7FF10BD10B5502800D950200100B031FF310220FFF7CCFF10BDC04610B501210920FFF7C5FF10BD10B50021F0
:400580000920FFF7BFFF10BD10B500210F20FFF7B9FF10BD10B5FFF7F7FF0A2004F0FEFF0020FFF7D9FF34210420FFF7ABFF10210520FFF7A7FF61210620FFF7A3FF0020DC
:4005C000FFF7C4FF10BDC04610B5044B5A681043586081B20620FFF795FF10BDC400002010B5044B59688143596089B20620FFF789FF10BDC400002010B50400644B1A681E
:40060000102A2FD89300634AD3589F46624A117804230B431370614804F0DEFB22E05E4A117802230B4313705D4804F0D5FB19E0594A117810230B4313705A4804F0CCFB6E
:4006400010E0554A117808230B431370564804F0C3FB07E0504A117801230B431370534804F0BAFB601F08284CD88000504B1B589F46504804F0B0FB474A117804230B43C7
:40068000137042E04C4804F0A7FB434A117802230B43137039E0494B1B68002B07D1484804F09AFB3C4A117820230B431370434A136801331360312B27D900223F4B1A60BF
:4006C00023E03E4B1B68002B07D13E4804F084FB314A117840230B431370384A136801331360312B11D90022344B1A600DE0334B1B79002B09D10122304B1A710022324BE6
:400700001A6002E000222D4B1A602C4B1B79002B20D02E4B1B68FF2B19D0022B17D92A4B1B68062B08DD063B274A13601A4A117840230B4313700DE09A1D0BDA0633224A75
:400740001360154A117820230B43137002E000221A4B1A7101F032FB002818D0042001F047FB012813D1154B5A790B4B1B789A4201D1002B0BD0164A1370104A5371002291
:40078000054B1A7001320021042001F055FB10BD280F0020D4700000C50300203C7100004C7100005C710000647100006C710000187100007C71000098710000A402002028
:4007C000B4710000C8710000200F0020240F0020C603002030B587B0324B5C7864B2312C00DC3224304B1B78002B56D12F4B9B689C421DD02D4B9C602300333B4C2B09D8F9
:40080000323CA000041920014D2105F0E3FEFF24044000E00024E0B2FFF79EFE05002200234901A806F000F801A804F0D5FA00E00025204B1B78DBB21C4A127B93422DD0AE
:400840001C4B1B78DBB2194A1373002B07D00020FFF782FE0500184804F0BEFA1EE0134B9C602300333B4C2B09D8323CA000041920014D2105F0AEFEFF24044000E0002458
:40088000E0B2FFF769FE050022000C4901A805F0CBFF01A804F0A0FA00E00025280007B030BDC046880F0020C60F0020A4020020E0710000A80F0020F871000000720000E2
:4008C00010B5254A136825490B43136062B604F0F7F9102004F0DEFD102803D0204804F07BFA02E01F4804F077FA04F097FAFFF751FE002803D11C4804F06EFA02E01B48CA
:4009000004F06AFAFFF766FF03F070F90121002001F00CFA0123164A1370164A11680B43136001F04BFA0028FBD100210E3004F003FE01221049042001F07EFA0122002103
:40094000042001F079FA03F051FA03F0F7FD03F065FE03F04DFD10BD380010402222222220720000347200005872000070720000CD02002028202C40C603002010B503F032
:40098000F1FB002810D104F06DF803F0CDFEC0B200F0B2FF040003F02BFD01F00FFA012802D12000FFF728FE01F008FA012801D1FFF710FF10BDC04610B5002004F0F0FB3D
:4009C00005F030F800F0C0F800F036FA05490A780C231A43D2B20A70034A11780B43DBB2137010BD93000F4094000F4010B5040000F018FB00F0D8F9FFF7C0FD002C0DD1A8
:400A00000121002004F064FF012004F015FD002004F0C6FB0020FFF799FD18E0012C0DD10121012004F054FF002004F005FD012004F0B6FB2020FFF789FD08E0002004F054
:400A4000FBFC012004F0F8FC0020FFF77FFDFFF78FFD0122014B1A7010BDC046B202002010B52D4B1B78002B54D12C4B1B78002B50D02B4B1B78002B49D12A4B1B78002BCC
:400A800045D1264B1B78012B03D0244B1B78022B3DD1224A1378DBB223485900CB18C3189B7819041378DBB25C00E318C3185B781B020B431178C9B24C006118095C0B43A6
:400AC00000211170194A934206D10022184B5A70184804F081F908E0174A934205D10122134B5A70154804F077F9154B1A78104B5B789A420ED0124C2370002000F05EFBF4
:400B00002078FFF773FF01220E4B1A7002E00022024B1A7010BDC046C60F0020A70F0020BA020020C40200208C0F002080BB0000B20200209072000044AC0000BC7200008A
:400B4000CC000020CA02002010B503F085FA9022D2000021012005F029F8104A0021012005F00CF80E4A0021012004F0F1FF0021012004F0D3FF03F07DFA032004F07CFF73
:400B8000084803F05BFA0849032004F065FF032004F08AFC03F018FA10BDC046C803002044000F40811000006D100000F8B54F464646C0B4744B1B78012B00D0E0E0734BC2
:400BC0001B78002B04D0714B00225A809A801A70032004F063FF6E4B1B78002B02D0012B09D011E06B4B1B78302B0FD82F2B10D99024640015E0674B1B782C2B0CD82B2B9E
:400C00000DD9842464000CE000240AE09324640007E08D24640004E08724640001E081246400A7B25C4B1F8003F002FA574EB388FB18B38003F0F6F97388E1189022D200C6
:400C400091424CD9D51A2A000021032004F0AEFF524E32000021032004F090FF4B4B98465A884F4B99464A440021032004F070FF902292050021032004F0E0FF80221206C7
:400C80000021032004F0B8FF621B0121032004F08DFFAA190121032004F070FF4A460121032004F055FFB02292050121032004F0C5FF8022D2050121032004F09DFF0021A6
:400CC000032004F011FF0021032004F027FF0121032004F023FF7D1B43465D8030E022000021032004F062FF2C4A0021032004F045FF264C62882A4BD2180021032004F066
:400D000027FFC02212050021032004F097FF8022D2050021032004F06FFF0021032004F0E3FE0021032004F0F9FE6388FD18ADB265809023DB009D4202D10022134B5A8081
:400D4000032004F099FE032004F0B8FE0F4B9B79002B15D10D4B9A88124B9A4210D901220A4B9A7102F0A4FF0220FFF739FC02F0B3FF012004F080FE03F00EF902F082FFD4
:400D80000CBC90469946F8BDB2020020B4020020CC0000201E0F0020CA0C0020D00C0020C80300203F02000010B50F4B9B79002B19D003F0C5F802F07BFF012004F06EFE1C
:400DC0000A4AD36A1B0C1B04D362074B01221A70DA719021C900064A118000221A819A710220FFF7F1FB10BDB402002000181040CE0000200C4BDB79002B0DD113E0202294
:400E0000FF32934202D80021084AD1540021084AD15401339BB200E00023064A9342EED90022014BDA717047B4020020D00C0020C80300207F04000010B503F041F89022DF
:400E4000D2000021002004F0B1FE0C4A0021002004F07EFE0A4A0021002004F08FFE0021002004F05BFE00F041FE022004F004FE03F010F8034803F055F810BD4808002007
:400E800043000F40C1100000F0B54F4680B4604B1B78012B00D0B8E05E4B1B78002B04D05C4B00225A809A801A70022004F0F6FD012000F0A7FF060003F02EF8554DAB8859
:400EC000F318AB8003F022F86B8899199022D20091424BD9D41AA4B222000021022004F065FE4C4F7A884C4B99464A440021022004F044FE494D2A000021022004F028FE58
:400F0000902292050021022004F098FE802212060021022004F070FE321B0121022004F045FE4A460121022004F028FE62190121022004F00DFE902292050121022004F047
:400F40007DFE8022D2050121022004F055FE0021022004F0C9FD0021022004F0DFFD0121022004F0DBFD341B7C8030E032000021022004F01BFE274D6A88274BD218002112
:400F8000022004F0FBFD254A0021022004F0E0FD8022D2040021022004F050FE8022D2050021022004F028FE0021022004F09CFD0021022004F0B2FD6B88F418A4B26C80D6
:400FC0009023DB009C4202D10022124B5A80022004F052FD022004F071FD0E4B9B79002B13D10C4B9A880E4B9A420ED90122094B9A7102F035FE1020FFF7F2FA002004F092
:401000003BFD02F02FFF02F001FE04BC9146F0BDB2020020BE02002048080020F80D00203F02000010B50F4B9B79002B18D002F0EDFE02F001FE142004F046FB002004F008
:401040002DFD094AD3681B0C1B04D3601020FFF7BBFA044B01221A7000221A815A819A7110BDC046BE0200200018104010B5034B1A880021022000F0DFFE10BDCA0C002022
:4010800010B50B4B18880B490B88C31A9BB20A4C2288D31A9BB223800880084A934202D9FFF782FE02E09033034A138010BDC046B8020020BC020020CE0000207F04000006
:4010C00010B50F4B18880F490B88C31A9BB20E4C22889B189BB22380088090225200934202D8FFF79FFF02E0903B074A1380064B1A88064B9A4201D9FFF794FF10BDC046BF
:40110000C2020020C8020020C60200208604000010B502F03DFE224B1870224A13781B1A21490B701070214B1B78002B37D01F4B5B78012B33D193791B02527913431C4AA9
:4011400013801C4A12881C498A420AD817498978002906D10833164A13800122134B9A700DE0D82189008A4209D9104A9278002A05D1083B0E4A138001220C4B9A700C4B25
:401180001A88110A074B99715A71032000F030FE012804D103220021023000F04DFE10BDCC0C0020D00000201E0F0020CA020020C80C0020C60200203F0200000F4B5B7821
:4011C000012B19D10E4B1B78002B02D0012B07D00DE00C4B00221A715A710C329A7106E0084B66221A71603A5A7105329A71002802D00022014B9A707047C046CA020020DA
:40120000CC000020D000002010B5464B01225A70DB78002B01D1434BDA70424BDB78012B12D102223F4BDA70002306E000223E49CA543E49CA5401339BB22022FF32934242
:40124000F4D901323A4B1A8000F0BEFD002868D0384B1C7A012000F0C5FD844239D0012000F0C0FD334C2072FFF79EFDFFF7DAFE02F044FD8F2002F0DFFD02F0F3FD02F0C7
:40128000B5FC237A002B18D0932252002649012000F0BCFE012000F055FF224B5B78012B14D1032223490431032000F0C5FD03220021032000F0C0FD08E01F4B5A781F489A
:4012C00002431F490A60DB7803430B600020FFF775FF184B5C7A022000F084FD844220D0022000F07FFD134C6072FFF75DFD8F2002F03CFE637A002B0DD00D4C9322520098
:4013000022800A49022000F097FD22880021022000F092FD05E0084B9B78084A1343084A136010BDCA020020F80D0020D00C0020CA0C0020D000002070790000000102C082
:4013400000060140830603D503070BD003200EE0C30603D5030707D0012008E0002805D1FF3004E0042002E0002000E002207047830603D55A2924DDB43922E00F2303400B
:4013800018D00A2B14D89B000F4AD3589F46432117E02D2115E0162113E0002111E0162149420EE02D2149420BE04321494208E0FA2106E0002803D1FA2102E05A2100E0A6
:4013C000002108007047C046E87200002223FF33984231D00FD8E92834D004D8B62825D0CE2835D020E00223FF33984224D00F3398421FD018E05023FF3398421CD007D843
:401400001B3B984214D04623FF3398421AD00BE06823FF33984215D08A23FF3398420BD06623FF3398420DD010201AE0072018E0062016E0052014E0FF290BD002290BD83D
:401440000B200EE0FF2909D0022909D80A2008E0082006E0102004E00D2002E0102000E00C20704770B504000D0030230340302B01D1203B9C4303232340032B32D1A3067A
:4014800012D506232B40042B02D1023B9C4329E0002B02D101339C4324E003239C432F4A126813401C431DE0002003F0C1F80600012003F0BDF8864202D902239C4311E09B
:4014C000002003F0B5F80600012003F0B1F8864202D201239C4305E003239C431F4A126813401C430C2323400C2B32D1A30612D506231D40062D02D102339C4329E0022D17
:4015000002D104239C4324E00C239C43134A126813401C431DE0022003F08AF80500032003F086F8854202D908239C4311E0022003F07EF80500032003F07AF8854202D2BA
:4015400004239C4305E00C239C43044A126813401C43024B1C60200070BDC046D002002010B50B00FA290FD000280FD0002905DB2D21180005F02EF8013008E02D21180008
:4015800005F028F8043002E0FF2000E0002010BDF8B505000C00C84B1A68072A00D983E19300C64AD3589F46FA2900D17EE1C44B58609960FFF7D4FFBF4B586002221A6064
:4015C000002088E1FA292FD0BD4BDB68FA229200934208D9B84B5B689B00BA4AD318DA6DB94B1A6002E00133B54AD360B44B5A68521B00D55242B24B9B681B1B00D55B42F5
:40160000152B01DC012A05DD0322AB4B1A600022AB4BDA60AA4B1B69EB1AAC4A11688C4663441360002056E1A54BDB68632B07D8A14B5B689B00A34AD318DA6DA24B1A60F9
:4016400007229D4B1A60002045E1FA293BD09C4B5B69CB1A2D2B01DDB43B03E01A002D3200DAB4339A4A11688C4663441360944B1B69EB1A954A11688C4663441360210083
:401680002800FFF76DFF8C4B5A68904216D08C498B6901338B61032B00D809E1002A03D10632854B1A6002E00422834B1A60824B98600022824B9A6100200CE10022804BFD
:4016C0009A61002007E107227B4B1A60002002E1FA2954D07A4B5B69CB1A2D2B01DDB43B03E01A002D3200DAB433794A11688C4663441360724B1B69EB1A744A11688C460D
:401700006344136021002800FFF72AFF6A4B9B6898422FD06A498A6901328A61032A00D8C8E0654E05223260F060664980000818076FFA00D2195200D0199B00CB181A6F7D
:4017400013019A18821873689B00CB181B6F5800C0188000C318D018594B5968FFF736FEC31FDBB2012B01D8554B18770022544B9A61B0E00022524B9A610020ABE00722A7
:401780004D4B1A600020A6E0FA2958D04C4B5B69CB1A2D2B01DDB43B03E01A002D3200DAB4334B4A11688C4663441360444B1B69EB1A464A11688C46634413602100280054
:4017C000FFF7CEFE3C4BDB68984233D03C498A6901328A61032A00D87CE0374A916851609360D060374E80003018076FFA00D2195200D0199B00F3181A6F13019A188218C9
:40180000890071180B6F5800C0188000C318D0182B4B5968FFF7DAFDC31FDBB2012B02D8274B187702E00022254B1A770022244B9A6150E0224B00229A61187F4BE00722F9
:401840001D4B1A60002046E0FA2911D01C4B5B69CB1A2D2B01DDB43B03E01A002D3200DAB4331B4A11688C4663441360092032E00722114B1A6000202DE0114A0023936147
:40188000D3600D49FF2088604860C8605060053890600E4803600E4803600B480360137701330B60002016E0002014E0002012E0002010E000200EE0DC00002014730000BD
:4018C000D002002034730000280F00203C0F0020200F00200020064B1B680133022B02D9FF22044B5A60034B1D615C61F8BDC0463C0F0020D002002070B5002804D0164BC1
:401900001B781F251D4000E00025002002F0B2FF06000400114B984209D020231D43162104F0CEFD01002C2E02D80A3400E000212800FFF797FD0600FFF704FD0500084B7E
:40194000186021003000FFF713FD0100054B18602800FFF71DFE70BD5C030020FFFF0000240F0020340F0020F0B50025002711E0BB00C658F3B2FF22964308E06A008A18E8
:401980001478A419527822700135013BDBB2002BF4D10137112FEBD9F0BDC04610B50A00002104F038FF10BD10B504F02BFF10BD0C4B1B68002803D080221206134301E046
:4019C0005B005B08074A1360074B1B68002803D080229204134301E0044A1340024A13607047C04680033A4008010B40FFFFFFFD10B50323054A1360054A13600022054BDD
:401A00001A600120FFF7D4FF10BDC0463000304030003140000E3F4010B504F0C7FE03680C2B00D1FEE7FEE710B50300084A1068C318084A9A1A802A02DC054A136005E044
:401A400004F0B4FE0C2303600120404210BDC046EC000020E811002070B50F4E0F4D13E029686B68AC68002202E001C901C30432A242FAD1E868002202E0002102C3043263
:401A80008242FAD11035013E002EE9D104F094FEFEF7FEFCFEE7C04601000000EC7E000010B50E4A136801218B43136000230AE0032B03D89A000A49505800E009489900F0
:401AC000094A885001332F2BF2D9FEF793FB034A116801230B43136010BDC0460000104000000000191A000000000020C0229205034B9A60034B044A9A649A657047C046A7
:401B00008010104000181040BB00A05410B50E4B00221A625A629A62DA621A630B49082003F09AFF0A49092003F096FF09490A2003F092FF08490B2003F08EFF07490C20FD
:401B400003F08AFF10BDC04680101040E52A0000A92B00006D2C0000352D0000FD2D000010B50122254B1A60254A136820218B4313600A22234B1A60234C244B23602368F0
:401B8000234A134323602368042293432360022003F09AFD236808229343236003F038FC002800D002201B4B18601B4A1B4B1A6007221B4B1A6001211E2003F0BDFC194940
:401BC0001E2003F0A7FC02211F2003F0B5FC16491F2003F09FFC0321002003F0ADFC1349002003F097FC0321052003F0A5FC1049052003F08FFCFFF789FF10BD74022C40F7
:401C000048002C4030032C4000202C40030000040C0000B824002C402800200430202C4028202C40C52E0000452F0000052F00002D32000010B50C00002304E001212B4A45
:401C4000D1540133DBB2032BF8D9294B18700023284A1370284A1370284A1370284A1370284A1370284A1370284A13701E2003F01BFC002003F018FC1F2003F015FC2F22AA
:401C8000234B1A602132234B1A6003F0CBFE00210E2003F051FC0E2003F006FC002C02D0012C06D00BE01C4A136801218B4313600AE0194A116801230B43136004E0164A74
:401CC000116801230B43136013490B68042293430B600021114B19600131114B19607F31104B1960104B1A6010BDC04650100020C00F0020C60F0020C40F0020C50F0020DC
:401D0000C10F0020AC0F0020C30F00203C10002078022C4070022C4024002C40A4002C40A0002C4020002C4048002C4070B504000D00074B1B78002B04D1FFF711FF012286
:401D4000034B1A7029002000FFF774FF70BDC046ED020020002304E001210E4AD1540133DBB2032BF8D900230B4A13700B4A13700B4A13700B4A13700B4A13700B4A1370FE
:401D80000B4A137001220B4B1A607F320A4B1A607047C04650100020C60F0020C40F0020C50F0020C10F0020AC0F0020C30F00203C100020A0002C4020002C40014B187822
:401DC000C0B27047C50F0020054B1B78002B05D0034B1878C0B200221A7000E000207047C40F0020014B185CC0B27047B00F0020430018188300024AD3185878C0B270474F
:401E0000D00F0020431EDBB2072B10D88301094A985880B20002F02212011040054A944663445B68184380B2023880B200E000207047C046F0FF2B40F0B557464E46454627
:401E4000E0B4431EDBB2072B00D9C0E0130A45002D18AC00604D2C19E4781C4383015F4D5C51D4B2AC4663445C60002923D05C4B1C5C82005B4BD1505B4AA1008B585B0075
:401E80005B088B508001594B9C4660446301584DAC46634458605861564898609861564805680123A3402B4303608B588020000603438B508BE0410009188B004649CB1840
:401EC00000215970002A76D0454B195C5209D2B24A4B1A541F231C40494B1C5401D0012300E023009A18D3B2444A1354002C02D0013CE4B200E01F24414A1454012B01D1F6
:401F0000A44601E01F229446022B01D1A24601E01F229246DB0701D5002300E080231C43374B1C54304B99468F00FB585B005B084A46BB502B4C82004B012D4EB046155972
:401F40009D511459203443441C619C68240C2404624622439A609A69120C1204544622439A6180221206DA604B46FA58254B13404A46BB50214B1B5C012B04D94B01434426
:401F800080221206DA611D4B1B5C022B02D9023BDBB200E00023194A1354134A89008B588024240623438B50174A8001815801230B4383500BE0420012189300064AD318B1
:401FC0005B79DBB28001054A9446604483601CBC90469946A246F0BDD00F0020F0FF2B4058790000640F002080101040E0012C400018104000009064F8171040580F002001
:402000004C0F0020FFFFFFBFC0012C40F0B5474680B4002978D0002878D0082878D83F4B1D5C5309DBB23E4C23541F2414403D4E345401D0012600E02600F318DBB2384EC2
:402040003354002C02D0013CE4B200E01F24354E3454012B01D1270000E01F27022B01D1A04601E01F26B046022B01D9402600E0002634432B4E3454DE0701D5002600E0E2
:4020800080263443274E34548400274EA151274C2354022B02D9023BDBB200E00023204C2354234CAE0033595B005B0833518401204B9C4664446B011F4EB4469C516344AD
:4020C0001C615960203159611C490F439F6046460E439E611A4C26680121A9403143216080210906D960114B1B5C012B04D96B01634480210906D9610D49AD006B588020F1
:40210000000603436B5004E0002202E0002200E00022100004BC9046F0BDC04658790000580F00204C0F0020640F0020400F002080101040E0012C40001810400000606405
:40214000F8171040431EDBB2072B0DD8420012189300064AD31800225A705B79DBB28001034A9446604483607047C046D00F0020F0FF2B40034B1B6804201840431E9841A8
:40218000C0B27047040D044010B55A4B196803220A40D968CCB219697F2001401B681B065FD5022A12D1534B5B68812B00D086E0012C00D085E0504A7E3B13804B005918F8
:4021C0004E4BC918516000F095FA91E0012A7AD1484B5B68832B28D004D8812B07D0822B19D072E0842B2BD0FF2B34D06DE0012C07D1414B01221A80414A5A6000F07AFAEF
:4022000076E0022C63D13C4B02221A803D4A5A6000F070FA6CE0022C5BD1374B02221A80394A5A6000F066FA62E0022C53D1324A02231380344B0433536000F05BFA57E0E6
:40224000022C4AD12C4A022313802F4B0833536000F050FA4CE00022274B1A8000F076FA46E0022A12D1234B5B68012B37D1012C37D12148023303804B005B181F4A9B18C1
:402280004360224B197000F061FA31E0012A2AD1184B5B68012B28D1012C06D1164B1A80174A5A6000F052FA22E0022C1FD1124B02221A80134A5A6000F048FA18E00020C6
:4022C00016E0002014E0002012E0002010E000200EE000200CE000200AE0002008E0002006E0002004E0002002E0002000E0002010BDC04600002C40B40F00208C0F00207D
:40230000A80F0020880F0020F0000020A70F002010B51F4B1B781F4A1188CB189BB2138000210EE01C4B5A681278D2B28C001B4822505A6801325A6001311A88013A92B2F9
:402340001A80154B1B889BB2002B01D00729E9D90F4B1B78082B01D000290DD0104A107880235B424340DBB213700F220D4B1A700D3A0D4B1A7004E002230A4A13700A4A69
:402380001370C9B2094B1970014B197010BDC0463C10002044100020B40F002000002C40C20F0020AD0F0020C60F00203D1000200222074B1A707E32064B1A70713A064BB5
:4023C0001A700023054A1370054A137001207047C60F0020C20F0020AD0F00203C1000203D10002010B5FFF793FF10BD30B5194B1B680F2119400239174A1088FF230B4009
:40240000C3189BB2138000200FE0144B5C688500134AAA58D2B222705A6801325A60013001391A88013A92B21A800C4B1B889BB2002B01D00029E8D1C9B20A4B19700A4A0E
:40244000117880235B424B40DBB213700B22074B1A7030BDA4002C4044100020B40F002000002C403D100020C20F0020AD0F00200623064A1370064A13708022054B1A70AA
:402480000022054B1A7001207047C046C60F0020AD0F0020C20F00203D100020064B9B68002B08D0044B9A6810709A6803490988518000229A607047B40F00204410002011
:4024C00010B5144B1A68FF210A401A601B68DAB21B0602D5104B1A701BE00220FFF7DEFF0E4B1B6860221340202B06D0402B07D0002B08D101F0BEF906E003F0A5FC03E059
:4025000001F040FB00E00020002802D10322024B1A7010BDA0002C40AD0F002000002C4010B5084B1B78084A1188CB189BB213800022064B1A700120FFF7B0FF0322044BC7
:402540001A7010BD3C10002044100020C60F0020AD0F002010B50B4B1B78DBB2042B06D0062B07D0022B0BD1FFF7DAFF08E0FFF73DFF05E00320FFF791FF0322024B1A708F
:4025800010BDC046C60F0020AD0F002010B50022044B1A700120FFF781FF0322024B1A7010BDC046C60F0020AD0F002010B50C4B1B78002B09D00A4A117880235B420B4362
:4025C000DBB208490B60002313700022064B1A700120FFF763FF0322044B1A7010BDC046AC0F002020002C40C60F0020AD0F002010B5094B1B78DBB2042B06D0062B07D027
:40260000022B07D1FFF7EEFE04E0FFF7BFFF01E0FFF7CCFF10BDC046C60F002010B5264B1B68DA0643D51A060CD50F221340012B14D1FFF745FF214B1B785BB2002B0FDB0F
:40264000012310E05A0603D5FFF7D2FF01230AE09B0607D5FFF77EFF012304E0002302E0002300E00023002B21D0134B1B681B061DD4134B1B78134A12781343124A13600A
:402680001268934213D10D4B1B78DBB20A4A1268120607D4094B1B78DBB2074A136013680F221340054A1278D2B29342EBD10422064B1A6010BDC046A0002C40AD0F0020DD
:4026C000C20F00203D100020A4002C4020202C400022064B1A80064B9B68002B05D0044A916800230B7092685380704744100020B40F002010B5114B1B889BB2002B02D190
:40270000FFF756FE17E002220D4B1A7000220D4B1A70FFF7DDFF0C4AD3691B029BB2926913439BB2054A128892B2934201D2034A1380FFF7EDFD012010BDC046B40F002076
:40274000C60F0020C20F002000002C4010B504220C4B1A707C320C4B1A70FFF7B9FF0B4AD3691B029BB2926913439BB2084A128892B2934201D2064A13800B22054B1A70A3
:40278000012010BDC60F0020C20F002000002C40B40F0020AD0F00200822104B1A6034230F4AD35C5BB2002B16DA84235B000D4AD35830230A4AD25C2D3B1340012B07D0FD
:4027C00007493322885C80235B424340DBB28B5401213123024AD1547047C0462C002C40D00F0020F0FF2B402022104B1A604C230F4AD35C5BB2002B16DAC4235B000D4ABD
:40280000D35848230A4AD25C453B1340012B07D007494B22885C80235B424340DBB28B5401214923024AD1547047C0462C002C40D00F0020F0FF2B40F0B5574B1A68012340
:40284000A5E0D10700D4A0E0980154498C466044816840680140C80719D55C00E418A0004F4C2018007940B2002810DA6546980144590126B44344515D00ED18AC00484DED
:402880002C196479E4B2474DAC4660448460880676D54548C05C454CE45C022C02D9023CE4B200E00024424DEC54424D86007459640064087451404CE45C404D2C43404D83
:4028C0002C60404D9E0044013F4FBC466444775967607559203565613C4CE65C740614D5F40945002D192D016544AD682D0C2D04B60601D50F2600E01F2635434600341922
:402900002401314EB4466444A56044012E4DAC46644480252D06E560244CE45C012C04D94401644480252D06E561224C80000659274D354005510559802636063543055176
:402940009801184CA446604480685800C01884001348245C0320204001280AD05C00E418A0000F4C2018C578802464426C40E4B2C4705C00E418A000094C201801244470E9
:402980009801064CA4466044816001335208002A00D056E7F0BDC0467C022C40C0012C40D00F0020F0FF2B4058790000400F0020580F00208010104064790000000302C08C
:4029C00000060140640F0020001810404C0F0020FFFFFFBF10B5FEF757FA01220C4B1A600C4B1B7C5BB2002B11DA0B4B9B6C094B1A7B03231340012B06D0064AD17B80234E
:402A00005B424B40DBB2D3730122024B5A7310BD2C002C40D00F0020F0FF2B4010B5FEF7C5F802220D4B1A600D4B1B7F5BB2002B12DA88230B4AD358094B1A7E032313408D
:402A4000012B06D0064AD17E80235B424B40DBB2D3760122024B5A7610BDC0462C002C40D00F0020F0FF2B4010B50120FEF7A6FB04220F4B1A6028230E4AD35C5BB2002B90
:402A800015DAC8230C4AD35824230A4AD25C213B1340012B07D007492722885C80235B424340DBB28B5401212523024AD15410BD2C002C40D00F0020F0FF2B4010B5FEF741
:402AC00027FB0122014B1A6010BDC04620202C4010B50222024B1A60FFF73CF910BDC04620202C40284B5B78002B4CD0022B0FD8264B5A78D3091B0125498C4663440933F3
:402B0000FF331968090C09041F2002400A431A60204B1B7C5BB2002B0ADA1D4A80214900535818004030505060331031535009E0174A822149005358180040305050603323
:402B4000103153508021090686235B00104AD1500D4A5378013BDBB25370002B07D08E235B000B4AD150084A5378013B53700A4A136A802109060B431362084B5B78084A38
:402B80001343084A13607047580F00204C0F002000181040D00F00208010104070790000000102C000060140284B9B78002B4CD0022B0FD8264B9A78D3091B0125498C466B
:402BC00063442933FF331968090C09041F2002400A431A60204B1B7F5BB2002B0ADA1D4A90214900535818004030505060331031535009E0174A9221490053581800403070
:402C000050506033103153508021090696235B00104AD1500D4A9378013BDBB29370002B07D09E235B000B4AD150084A9378013B93700A4A536A802109060B435362084BC9
:402C40009B78084A1343084A13607047580F00204C0F002000181040D00F00208010104070790000000102C000060140294BDB78002B4DD0022B0FD8274BDA78D3091B0102
:402C800026498C4663444933FF331968090C09041F2002400A431A602823214AD35C5BB2002B0ADA1D4AA0214900535818004030505060331031535009E0184AA221490080
:402CC000535818004030505060331031535080210906A6235B00114AD1500E4AD378013BDBB2D370002B07D0AE235B000B4AD150084AD378013BD3700A4A936A80210906CA
:402D00000B439362084BDB78084A1343084A13607047C046580F00204C0F002000181040D00F00208010104070790000000102C000060140294B1B79002B4DD0022B0FD8E0
:402D4000274B1A79D3091B0126498C4663446933FF331968090C09041F2002400A431A603423214AD35C5BB2002B0ADA1D4AB02149005358180040305050603310315350DD
:402D800009E0184AB2214900535818004030505060331031535080210906B6235B00114AD1500E4A1379013BDBB21371002B07D0BE235B000B4AD150084A1379013B13717F
:402DC0000A4AD36A802109060B43D362084B1B79084A1343084A13607047C046580F00204C0F002000181040D00F00208010104070790000000102C000060140294B9B793A
:402E0000002B4DD0022B0FD8274B9A79D3091B0126498C4663448933FF331968090C09041F2002400A431A604C23214AD35C5BB2002B0ADA1D4AC02149005358180040300F
:402E4000505060331031535009E0184AC2214900535818004030505060331031535080210906C6235B00114AD1500E4A9379013BDBB29371002B07D0CE235B000B4AD15015
:402E8000084A9379013B93710A4A136B802109060B431363084B9B79084A1343084A13607047C046580F00204C0F002000181040D00F00208010104070790000000102C0A8
:402EC0000006014070B50D4B1D682B0601D5FFF7B3FC0F2422002A40EC08FF235B011C401443002507E0E30703D5AB00044A9B58984764080135002CF5D170BD34202C40DF
:402F00007C79000070B50D4B1D682B0601D5FFF793FC0F2422002A40EC08FF235B011C401443002507E0E30703D5AB00044A9B58984764080135002CF5D170BD38202C400C
:402F40007C79000070B50D4B1D682B0601D5FFF773FC0F2422002A40EC08FF235B011C401443002507E0E30703D5AB00044A9B58984764080135002CF5D170BD3C202C40E8
:402F80007C79000010B50C4B18780138C0B200F0E9F90A4B1B69FF221A40931CDB00C0184168074B9B5CDB00CB185B68596A0B78044A1380516010BDC50F002000002C40C5
:402FC000B00F0020B40F002010B50E4B18780138C0B200F0C7F90C4B1B69FF221A40931CDB00C0184168094B9B5CDB00CB185B68DB695A78120219780A4305490A800233C4
:403000004B6010BDC50F002000002C40B00F0020B40F002070B500221C4B1A801C4B18780138C0B200F09EF91A4BD968CCB21B69DDB2FF221A40931CDB00C0184068032D99
:4030400023D8154B9B5CDB00C3185B68013CE4B2022C1AD8FF221140104A94466144C90059180C4B9B68D8B20A7890420DD84968FF2213405A00D3189A008B18034A59683B
:403080005160198811809B68936070BDB40F0020C50F002000002C40B00F0020FFFFFF1F10B55D4B1A69D1B21B681B0651D55A4B5B68022B2FD002D8012B22D090E0032B65
:4030C0003AD0062B00D08BE0534BDB68212B0AD1FFF758FF514B1B889BB2002B00D181E0FFF708FB97E04C4BDB68222B7CD1FFF76BFF4A4B1B889BB2002B77D0FFF7FAFAF7
:4031000089E0FFF787FF454B1B889BB2002B6FD0FFF7F0FA7FE003296CD83F4B9B68002B6AD13E4901330B80FE331A403C4BD2184A60FFF7DFFA6EE003295FD8374901230E
:403140000B80FE331A40374BD2184A60FFF7D2FA61E0314B5B680A2B0DD00B2B30D0092B4ED1FFF757FF2D4B1B889BB2002B49D0FFF7ECFA4FE0032946D8274B9B68002B59
:4031800044D1FF331A40244BDB68DBB224498B54895CC9B2244B9B5CDBB2994203D20021214B995409E0204B9B5CDBB2012B04D91B4B9B5CDBB21C498B54FFF759F92AE005
:4031C000032925D8144B9B68012B23D8FF231A40114B9B68DBB213498B54FFF749F91AE0002018E0002016E0002014E0002012E0002010E000200EE000200CE000200AE0C0
:40320000002008E0002006E0002004E0002002E0002000E0002010BD00002C40B40F002048100020501000204C10002010B501F0BDFF10BDF0B589B0040003AB154A23CAAF
:4032400023C3190013680B6013790B71002C1FD0222323701F3B637001A802F087FB0020022313E001AA125C110903AD695CE154591C611800260E70991C0F273A40AA5C12
:403280006254DA1CA218167001300433212BE9D909B0F0BDE079000010B50020012335E09A010C24264954508C4662443D2151605900C9188A0023498A185279002A1ED0B5
:4032C0005900C9188A001F498A18127952B2002A09DA9A011C4951188C60624451681434A143516011E09A0117498C46624408219160591E01228A400243D0B205E09A01AA
:4033000011498C466244802191600133082BC7D955220E4B1A60353A0D4B1A600F320D4B1A600D4B18600D4B1A6880210A431A601A688A431A60FF22094B1A6010BDC046E7
:40334000C0012C40D00F0020F0FF2B4030022C40F0122C4038022C403C022C4070022C4028002C40074B1B78DB00074AD3185B681A7C824204D9C00010301818406800E04B
:4033800000207047C00F0020C87B0000F0B557464E464546E0B4544B1B78002B00D19EE0514B18780138C0B2FFF7DCFF057AC3684E4A1078C0B200228EE01978884200D0C4
:4033C00088E04B49095CC9B25C78A14200D081E099787F240C40D97803260E40B4464549884666003719B90041448A460027CF709F780F71DF78B9463619B70046464946B3
:40340000B9559E8851460E810221595600290EDA6146012901D1072700E00D2766003619B100344E71184F7101264E700DE06146012901D1052700E0092766003619B10022
:403440002C4E71184F7100264E70A6012A4971180127BC468F6029498846775861468F4341467750671E7900254EB04631603168664631434646316021490968C906FBD5CB
:4034800002215956002910DA1E498C4609680126BE40B14366463160A40118498C46644461682026B14361600FE0164E31688C460121B940674639433160A4010F498C4681
:4034C000644466682021314361600D4C21680126B143216008330132AA4200D26DE71CBC90469946A246F0BDC50F0020C10F0020B00F0020D00F0020F0FF2B40C0012C4077
:4035000050002C403C022C40034B1B78DB00034AD31858687047C046C00F0020C87B000010B5084B18780138C0B2FFF71BFF002806D043681B790233DB00C018406800E072
:40354000002010BDC50F0020F0B54F464646C0B483B0002312E0664E5900CC18A20000249455B2189470D4700025148195725570C9188A00B21855710133DBB2082BEAD9FE
:40358000002808D10AE000225A49CA545A49CA540133DBB200E00023032BF4D9574B1B78002B00D19FE0554B18780138C0B2FFF7D9FE4368DB795B0606D5514A11780123E2
:4035C0000B43DBB2137004E04D4A137801218B431370067A01256CE0C468002365E0A2787F210A4095425DD10195690049198A003F498A18128992B2A1888A4205D26A003B
:403600005719BA003A4FBA181181227839498A5CD2B261788A4245D1A3789846344B9946019F7B00BC469C44624692004A4441461171E2789446B84643449A006346494682
:403640005354E378032213400222A256002A14DA012B02D106339C4601E00D239C462449019F7B00DC19A2008A1864465471DF19BB00CB1801225A7019E0012B02D10433AD
:403680009C4601E009239C461949019F7B00DC19A2008A1864465471DF19BB00CB1800225A7004E008340133DBB2B34297D30135EDB2082D90D9C06800220CE083787F210E
:4036C0000B4004785900CB189900094B59188C7208300132D2B2B242F0D3FFF721FF094B1860FFF7D9FD03B00CBC90469946F0BDD00F0020B00F002040100020C50F0020F8
:40370000C30F0020CC0F002010B5174B1B697F2213405A1E072A24D85900C9188A0013498A18907801210143C9B291700021D170507802210143C9B25170127952B2002A26
:4037400006DA9B010A4A944663448D229A6005E09B01074A9446634489229A60FEF788FE00E0002010BDC04600002C40D00F0020F0FF2B4070B5284B1B697F2213405A1EBC
:40378000072A46D85900C9188A0024498A1891780120814391700021D17021489C0121588025A94321505178022081435170127952B2002A15DA5900C9188A0017498A1837
:4037C0005278012A06D12300154A944663440C229A601BE09B01124A944663440D229A6014E05900C9188A000C498A185278012A06D19B010A4A9446634408229A6005E040
:403800009B01074A9446634409229A60FEF730FE00E0002070BDC04600002C40D00F0020F0FF2B4070B50F4B1C69E5B20E4B18780138C0B2FFF796FD43681B799D4201D92A
:40384000042D0CD8FF2323400849CA5CD2B20848C254044A9268D2B2CA54012000E0002070BDC04600002C40C50F0020B00F00204010002010B5B34B1B680021B24A11806C
:403880001A0600D4A1E0AF4A5268062A0AD002D8002A5ED037E1082A00D183E00A2A00D188E030E1A74BDB68012B09D1FFF72CFE4268A54B5A6012221A80FEF71BFF3FE1FC
:4038C000A04BDB68022B14D19E4B9868C0B2FFF749FD002800D118E143689B4A53605368DB781B02516889780B431380FEF702FF26E1944BDB68032B05D027E011785218DA
:403900000133DBB201E00023904A8E498968994202D911780029F1D18A4B9B68002B0AD0884B99688A4B1B7C994204D1894C2000FFF780FC22001378002B00D1E7E01378C7
:4039400081490B804A60FEF7D5FEF9E002F07CFAF6E00322134017D0022B00D0D9E07A490B80784B1B697C3213405A00D3189A00794B9A189278D2B2784B1A7000225A70A2
:403980004B60FEF7B7FEDBE06F4902230B80744B1A78D2B2714B1A7000225A704B60FEF7A9FECDE0684B01221A806E4A5A60FEF7A1FEC5E0644A01231380624B19696A4B30
:4039C000CB185360FEF796FEBAE05E4A52680B2A00D9A0E0920065498A589746594B9B68DBB2634A1370FEF743FDA9E0554B9C68002C03D0601EC0B2FFF7B4FC002C01D0C7
:403A0000002802D1002C00D087E0564B1B78DBB29C4208D0E4B2534B1C700122554B1A700120FFF791FDFEF723FD89E0FFF7FAFE002874D0434B19691B69DBB24E4A1370EB
:403A40004E4B5A5CD2B2484B5B5CDBB29A4204D00122484B1A70FFF799FCFEF709FD6FE003221340012B16D0002B08D0022B58D1344B9B68002B56D1FFF77CFE60E0314BF4
:403A80009B68012B51D1364A137802218B431370FEF7EEFC54E02B4B1B69032B47D8294B98681A6936498B5C83438B54FEF7E0FC46E003221340012B17D0002B08D0022B28
:403AC00037D1204B9B68002B35D1FFF71DFE37E01C4B9B68012B30D1214A117802230B43DBB21370FEF7C4FC2AE0164B1B69032B25D8144B98681A6921498B5C83438B5442
:403B0000FEF7B6FC1CE000201AE0002018E0002016E0002014E0002012E0002010E000200EE000200CE000200AE0002008E0002006E0002004E0002002E0002000E000200C
:403B400010BDC04600002C40B40F0020B47C0000807E0000C0110020D00F0020F0020020C30F0020C50F0020B00F0020B0790000AC0F0020C40F0020C10F002040100020D7
:403B8000C80F0020034B1B681B0601D5014B5B680020704700002C4010B502F04EF9074A117820230B43DBB2137002F04AF9044A117804230B43DBB2137010BD93000F403B
:403BC00077000F40074B1A7807218A431A701A78D2B21A70044B1A788A431A701A78D2B21A70704787000F4085000F4010B5064B1B78002B04D1FFF7E5FF0122024B1A7046
:403C0000FFF7CAFF10BDC046F202002010B502F014F9074A117810230B43DBB2137002F010F9044A117801230B43DBB2137010BD97000F4077000F4010B5074A137801211F
:403C40008B43137002F0F9F8044A137810218B43137002F0F6F810BD77000F4097000F4010B502F0EAF8064A117803230B43DBB21370137803218B43137002F0E2F810BDCD
:403C800093000F4010B502F0D8F8074A117810230B43DBB2137002F0D4F8044A117802230B43DBB2137010BD95000F4077000F4010B5074A137802218B43137002F0BDF8E5
:403CC000044A137810218B43137002F0BAF810BD77000F4095000F4010B502F0AEF8064A117803230B43DBB21370137803218B43137002F0A6F810BD94000F4010B50D4A38
:403D0000137804218B43137002F097F80A4A137820218B43137002F094F80022074B1A70FFF78AFFFFF79CFFFFF7C2FFFFF7D4FF10BDC04677000F4093000F4073000F4047
:403D4000034A117880235B420B43DBB21370704771000F40014B18707047C04680000F40014B1878C0B2704760000F40014B18707047C04620000F40014B1878C0B270473F
:403D800040000F40014B18707047C04600000F40024B1B78024B1878C0B2704700000F4040000F4010B501E0FFF7E6FFFFF7D8FF0307F9D410BDC04610B5FF20FFF7D6FF29
:403DC000FF20FFF7DFFF02F038F8074A117810230B43DBB2137002F034F8FFF7E3FF0020FFF7B8FF10BDC04690000F4010B5064B1B78002B04D1FFF7DFFF0122024B1A7057
:403E0000FFF79EFF10BDC046F302002010B502F014F8044A136801218B43136002F011F810BDC046000020400004000C014B18607047C046080120400004000C014B18601C
:403E40007047C0461401204070B504000D0001F0F4FFAC40024B1C6001F0F3FF70BDC0460800204010B501F0E8FF064A116801230B43136001F0E5FF18210120FFF7E4FF70
:403E800010BDC04600002040014B18607047C0463801204010B580229204074B1A600022064B1A600120FFF7EFFF8F20FFF7C4FF0020FFF7B9FF10BD000120402401204011
:403EC0000022034B1A60034B034999609A61704780101040001810407F048001014B98647047C0460000002010B5040001F0A5FF044A1168044B0B40A4051C43146001F0F6
:403F0000A0FF10BD00E400E0FFFF3FFF0422014B1A60704700E100E00422014B1A60704780E100E010B50400FFF7F6FF2000FFF7D5FF0020FFF7D8FFFFF7E8FF10BDC04692
:403F400010B501F07AFF044A136802218B43136001F077FF10BDC046000020400004000C014B18607047C046480120400004000C014B18607047C0465401204070B50400A2
:403F80000D0001F05AFFAC40024B1C6001F059FF70BDC0460800204010B501F04EFF064A116802230B43136001F04BFF18210220FFF7E4FF10BDC04600002040014B1860F9
:403FC0007047C0467801204010B580229204074B1A600022064B1A600120FFF7EFFF8F20FFF7C4FF0020FFF7B9FF10BD4001204064012040014B58647047C0460000002022
:4040000010B5040001F019FF044A1168044B0B40A4031C43146001F014FF10BD00E400E0FF3FFFFF0222014B1A60704700E100E00222014B1A60704780E100E010B50400F5
:40404000FFF7F6FF2000FFF7D5FF0020FFF7D8FFFFF7E8FF10BDC0460022034B5A60034B034999629A63704780101040001810407F042001C0229205054BDA60054B064ACC
:404080009A669A67054A116808230B43136070478010104000181040BB00A058F817104070B516480368DBB2154A13700F24A3431900144D2B780F2213400B43E1329343EC
:4040C0002A78A243134303600F4A104B1A60104A104B1A60104A1168104B0B40C021C9000B431360122001F0E9F90D49122001F011FA0321122001F01FFA70BD00FF2840C2
:404100005410002062F2FF0F00020001080028400008A0010400284000040240FFF0FFFF894A000010B501F081F801F055F80021002001F05DF80021002001F083F8FF204B
:4041400001F03CF8402001F063F8044A136804490B431360122001F0A7F910BD0400284000100880024B1878012318407047C046F40200204000024B181880887047C04655
:40418000F4020020F8B5104F3E5C3818037C5D005D19EDB29B00DCB201F04FFEB300FB181E6A32680F21A1408A4311000422A2400A435C6D23680721A9408B432360326027
:4041C00001F03FFEF8BDC046F4790000F8B51A4A145C13181F7CB900C9B27D007D19EDB2164B185CA300D3181E6A33680F228A4093433360022800D10020012801D1002616
:4042000000E0062601F019FEA4000B4B1B19596D0B680722AA4093431A003300AB4013430B6001F00EFE064B1C19A1680B680122BA4093430B60F8BDF479000090100020E2
:40424000747A000010B5002403E02000FFF7BEFF01340C2CF9D910BD044A11684002C023DB001840084310607047C04604002840CA0807231940063B8B40825C134201D03D
:40428000012000E00020704710B504000134E4B20D2C06D0210004481830FFF7E9FF0028F4D0200010BDC046FC000020F8B50400394B1B183C229D5CAA00384BD6580100DA
:4042C0003748FFF7D5FF374B9E4203D88640FF231B041E4300F0AAFF00F07EFF324B185D013880B2002100F083FF304B185D013880B2002100F0A6FFFF2000F05FFF4020FC
:4043000000F086FF2A4BDB7F002B1CD0122001F0D5F8284B196880239943403B0B43234A105D214A175D0203121A1004AD001B4AAA587A43904201D2C0230B431D4A136077
:40434000122001F0B1F8122001F0B8F81A4801681A4B19401A4B1B5D1A4A125D120413430B430360134F3D68174B1D40174B1D43122001F099F82000FFF704FF01F05DFDA8
:4043800004003D60002001F04FFD114B1E60200001F057FDF8BDC046747A0000FC00002058100020FFFFFEFFA010002060100020F4020020040028400800284000FF80FFA8
:4043C0007010002080100020FF1FDFFF20E020000C00284010B5054B00221A70C2B29A7781221A70FFF762FF10BDC046F402002010B50C4C00232370FF33A377A07FC0B27A
:40440000FFF742FFA077A37FDBB20C2B08D8217801230B43DBB22370A07FC0B2FFF746FF10BDC046F402002070B50500184B1C68A4B24300174AD3189C80174B1B183C2283
:404440009B5C9B00154A9A58154B9A4208D801001448FFF70DFF6B000E4AD31804419C802800FFF7B3FE122001F028F80E4A11680E4B0B40A02109020B4313600C4A1168EC
:404480000C4B0B401360122001F00EF870BDC0460C002840F4020020747A0000FC000020FFFFFEFF5810002004002840FF1FDFFF0800284000FF80FF10B5CC080723194002
:4044C000063B8B40DBB2002A04D0041922781343237003E0041922789A43227010BDC04670B50600002400250BE03000FFF772FFFFF738FE0128FBD03000FFF73BFE2418F8
:404500000135002DF1D0A0B270BDC046014B19547047C0469010002010B5002404E000212000FFF7F3FF01340C2CF8D9FFF7B8FD0020FFF791FEFFF785FE10BD10B52023CA
:404540000C4AD35C002B05D1FFF7E6FF01212023084AD154FFF7E6FD00F03AFB01212123044AD154044A13688021C9030B43136010BDC046F402002004002840F0B500270F
:4045800014E00C4BDE5D0C4BDB5DF6181A00002404E08D5CAC4200D22C000132B242F8D301E0CC540133B342FBD301378742E8D3F0BDC046FC7A0000F47A000030B50C4B68
:4045C0001A5C44000B4BE15A0B4BE1521B1800241C772C255C55002A06D0531E074CA45C054AD3183C229C544000054BC15230BDB07A0000F8020020180300204C01002033
:40460000D010002010B50400FFF7E4FEFFF7AAFD0028FBD12000FFF7D1FF10BD10B5002403E02000FFF7EEFF01340C2CF9D910BD024B18182C23C05C7047C04618030020DA
:40464000F0B5474680B40500294B1B5C294AD118097A88462849CE5CD75C002B05D10122264B3C335A71052401E0013BDCB2290022484430FFF7FCFD002812D01F4B5B19E8
:404680002C229A5C43469B1B9A4226DA1B4E3000443000222900FFF70FFF34193C23E7541BE0164B5B192C229A5C330043449A420FDB3C21114B1C19625C013AD2B26254A3
:4046C000002A0AD10132290018004430FFF7F4FE03E00A4B1C193C23E754290007484430FFF7C6FD002800D0012004BC9046F0BDB07A00004C010020EC10002018030020EF
:4047000070B5084B1C5C1818057A651900262000FFF796FF002800D001260134A542F6D8300070BDF47A000070B50025002406E02000FFF7E5FF002800D001250134052CE5
:40474000F6D9280070BDC04670B5094D2C352D180026FF20002308E0EC5C944203D9A64201D2260018000133DBB28B42F4D370BD18030020F0B583B004001600019308ABB5
:404780001878344A13002C335B181D5D48325570002C09D19A19013A17782E4A4821575448325B78937017E0721E94420BD11B19013B1F78274B48229F5459181C3A8A5C32
:4047C00048339A7008E01B195A1E1778214A482157545B784832937048231E4AD35C834204D91B1A48221B498B5403E000214823184AD154174A483253781B1ADBB253709B
:404800009278904204D2101A124A4832907003E00021104A483291700E490A00483292784820095C501AC9188918000201F0D2FE2402041901D53602A4196B460420185E33
:404840004443FE23DB019C466444240CE0B203B0F0BDC04618030020884202D9030008001900914200D91100031C884200D20B1C98B27047F0B5474680B484B00500234B51
:404880001B1820229F5C224A145C1218167A1A7A31002000FFF758FFFF282DD01D4B5B5D0093C8235B0132002100FFF763FF040080B27D1CEDB2154BDB1920229B5C002BD1
:4048C00009D1124B59198C5401355D19AC54DF190123BB5416E00D4B20265F19BA5D90466946CA81C98901355D19AA5DFFF7B4FF4346AB55BC5505E0044BDF19002220238C
:40490000FA54054804B004BC9046F0BD4C010020F47A0000B0100020FFFF0000401849004018800880B27047F0B5474680B482B004003F4B1E5C3F4B9B5D019342003E4B41
:40494000D75A24233D4AD35C002B09D03C4D43009846595B3800FFF7E1FF070043465853E1B2354A374801F02DFD6300364A9A5A974207D30021354B1955BD1AADB20123BF
:40498000984603E0D51BADB2002398464346002B15D12F4B9B5D9D4211D92C4B1B5D274A1219127C934206D32000FFF707FE0022264B1A551EE00133244A13551AE06B467A
:4049C0009B889D4206D9224B9B5D9D4212D24346002B0FD113029C461B4801190B7F66463343FF18BF1A3A0A6300C2520F770022164B1A556B469E88B5420FD94346002B6D
:404A00000CD0FF2D05D9104B1C19FF222C23E25409E00D4B1C192C23E55404E00A4B1C1900222C23E25402B004BC9046F0BDC046B07A0000B0100020F80200204C010020BB
:404A4000D01000207811002018030020B8100020C810002010B5040000F064F82000FFF763FF10BD10B5002409E021000548FFF7FFFB002802D02000FFF7ECFF01340C2C80
:404A8000F3D910BD1401002010B5122000F016FD01221E4B1A601E4B1878C0B2FFF7C4FC1C4B1B785BB2002B05DA1A4A137801218B43137026E0164C2078C0B2FFF7E4FB4D
:404AC00020702378DBB20C2B05D8114B1878C0B2FFF7ECFB16E00F4B1A7801218A431A701B785B060ED500220B4B1A7006E00B4AD15C0B4AD1540133074A1370064B1B78AD
:404B0000012BF4D9122000F0CFFC10BD1400284012030020F4020020630300205C10002014010020064B1B5C064AD25C51080648C1540648C154D2080549CA547047C0464C
:404B4000B07A000054010020B0100020C8100020EC100020024A136840218B431360704704002840044A1168044B0B40802189000B4313607047C04608002840FFFCFFFCA7
:404B800070B5002208E00D498B5C5D080C4CA55401335B088B54013203789A42F3D3122000F08CFC074A1168074B0B4007490B431360122000F078FC70BDC0467010002082
:404BC0008010002008002840FFFCFFFC0002000170B5274B0D221A70062159709A702332DA80244A9A80244A9A60FFF7B3FF002304E099002148224A885001331C4A52785A
:404C00009342F6D3002306E010211E4AD1540C391D4AD15401330C2BF6D9FFF7A3FF1B4E134C3100200001F02DFB194D29000620FFF7A4FC200001F036FB0122154B1A70A0
:404C40003100200001F01EFB29000620FFF796FC200001F049FB2000FFF792FF002403E02000FFF75FFF01340C2CF9D970BDC04678110020CC040000047B00000000FF0F13
:404C8000FC00002060100020A01000209A0D0000701000201303002010B500F08BF810BD10B500F033F810BD10B5044A1368802109060B431360FFF7EFFF10BD0000254034
:404CC00010B5064B1B78002B04D1FFF7E9FF0122024B1A70FFF7E8FF10BDC04664030020044B1B681F221340082BF9D0024B18607047C0460802254040022540024B1B6832
:404D00001F2018407047C04608022540154A164B1A600023154A13601549164A1160072215490A6015490A60154A13600121154A11601549154A1160154A13600421154A51
:404D40001160154A1360154A1360154A1360154A1360154A1360154A13601268144B1A807047C0460B000002000025404000254001000A0048002540000325400403254003
:404D8000100325404400254007000080000225400402254050002540880E2540C80E2540480F2540080F2540C80F2540880F25406603002005490B68F0229343603A1343FC
:404DC0000B60034B1A88034B1A6070470003024066030020880F254070B50500002402E0FFF77EFF0134285D0028F9D170BDC04610B5092000F058FB10BDC04610B500F0D4
:404E00001DF810BD10B5044A1368802109060B431360FFF7EDFF10BD0000244010B5064B1B78002B04D1FFF7E9FF0122024B1A70FFF7E8FF10BDC0466803002010B50024D9
:404E4000184B1C60184A194B1A60194B194A1360194A1460194A1460194A1360194B1C60092000F02BFB0321092000F065FB1649092000F04FFB154B1C60154B1C60154BBF
:404E80001C60154B1C60154B1C60154B1C601022144B1A70144B1C80144B1C60144B1C6010BDC04600002440C70800806000244007010080000324400403244010032440FB
:404EC0000002244004022440B15E0000C80E2440880E2440480F2440080F2440C80F2440880F244091110020A4110020A8110020A011002010B50E4A13685B005B08136029
:404F000000230C490B600C490B600C4804680C49214001600B490B600B490B6010210B4B19701368802109060B43136010BDC04600002440680024406C00244060002440E6
:404F4000FF5CFFFF880F2440C80F24409111002010B504000368002B09D0012000F0B4FB2368013B2360002B03D0002003E0002001E08020000610BD10B5002839DBC02345
:404F8000034208D00022284B1A601032274B1A70002310243DE0C3070FD5244B1B781B072BD5234B1B685B0001D5002300E0012310211E4A117001242BE0C30520D4830768
:404FC00022D4C30605D51022184B1A70002300241FE0164B1B781B0719D5144B1B78DB0701D5252200E02422104B1A70002300240FE00123802424060BE00123012408E06F
:4050000001238024640004E00023022401E000230024012B02D1FFF76DFF02E0054A064B1A60200010BDC04668002440911100206000244017030000000F244070B582B069
:4050400004000D001600244B1B78102B40D1092000F034FA214B1B68DB0734D4FA239B005E43019600221E4B1A601E4A1E4B1A601E4A1F4B1A606400FF231C40002D03D12C
:405080002422154B1A7004E02522134B1A7001231C43184B1C600222174B1A60124B1C680823FF3320001840144B1B68C02423401843040001A8FFF74BFF2043EED0FFF70D
:4050C0005BFF040000E00824092000F0EDF900E00424200002B070BD9111002064002440080F244017030000000F2440ED0F0000C00F24404002244068002440400F24405A
:4051000010B582B0104B1B789B061AD5FA239B00584301900D4B1B689B0601D5182200E010220B4B1A600B4B18681223FF331840040001A8FFF70CFF2043F4D0FFF71CFF2D
:4051400000E0042002B010BD911100206400244068002440000F244010B582B00D4B1B789B0613D5FA239B00594301910A4B18600A4B18680823FF331840040001A8FFF798
:40518000E7FE2043F4D0FFF7F7FE00E0042002B010BDC0469111002040022440000F2440014B18707047C04670000F40024A10680123184010607047100D0440044B1B68AA
:4051C000002BFBDB0002034B1843014B186070470000014040000080034B1B68002BFBDB024A014B1A607047000001404000004010B5064A13680724234000021843CB00E5
:40520000FF2119400143116010BDC04600030140044B1B68002BFBDB0002034B1843014B186070470000014041000080034B1B68002BFBDB024A014B1A6070470000014052
:405240004100004010B5064A13680724234000021843CB00FF2119400143116010BDC04604030140024A1168024B0B401360704700002240FFFFFFBF034B18688023DB0528
:40528000184000D0012070470000224030B52D4B1A783F231340042B01D9012000E0002000230AE0284A12683F210A402749C95C8A4201D1033303E001332D2BF2D9032352
:4052C00023490A680124A2430A60224A126822490A6000280FD021490D681F4C65601F24A2431F4C247822431A4C22601D4A1278D2B20A6005E01F218A4317390A43154943
:405300000A60302B0BD1002803D0174B1B78DBB202E0164B1B78DBB2154A13600CE0182B0AD1002803D0134B1B78DBB202E0124B1B78DBB20E4A1360104A116802230B4327
:40534000136030BD00F3FF0F2CFF0B40707B000050000C4034FF0B407003002020FF0B40C0F1FF0FC1F1FF0FC3F1FF0F3FF3FF0F28FF0B40C2F1FF0F3EF3FF0F24002C40D1
:4053800030B51A4B1A783F231340042B01D9012000E0002000230AE0154A12683F210A401449C95C8A4201D1033303E001332D2BF2D9032310490A680224A2430A600F4C51
:4053C00021681F2291430E4D2D682A400A432260002803D00A4A51680A4A11600A4A944663441B78DBB2094A136030BD00F3FF0F2CFF0B40707B000024002C4034FF0B4001
:405400007003002020FF0B404DF3FF0F28FF0B40034B1B680220184000D001207047C04624002C40034B1B680120184043425841C0B270470C000C4070B5040001280CD807
:4054400000F0FBFC054A61000D19AB009B589B009B08A9008B5000F0F4FC70BD14000C4070B5040000F0E9FC61000A199300084A944663449D68102215409B681A430C19A9
:40548000A30063449A6000F0DCFC280070BDC04614000C4002001920024002490B6818400A60704700030B401F2318401E3B8340014A13607047C04600E100E01F23184097
:4054C0001E3B8340014A13607047C04680E100E001BE704770B50400012802D90020FFF7F7FF00F0AAFC620012199300084A944663445B6801251D4006D063001C19A30045
:4055000063445B6801251D4000F09BFC280070BD14000C4070B504000D001F2802D90020FFF7D6FF1034A40080239B059C4664442068256070BDC04670B504000E000329A7
:4055400002D90020FFF7C4FF1F2C02D90020FFF7BFFF03252540ED00063500F06EFCA408A400074B9C46644421680323AB4099430B003100A9401943216000F062FC70BD4F
:4055800000E400E0034A13681B041B0C02490B43136070470CED00E00400FA0510B5040006E0084B586800F03FFC074B9C46644480231B029C42F4D8024B9868604300F067
:4055C00033FC10BD840100200080FFFF30B583B000F082FB00285FD000F02FFC04002F4A116801230B43136000230AE02C4A12683F210A402B49C95C8A4201D1033303E0C3
:4056000001332D2BF2D90323274A1268D20606D1254802681F218A4313390A430260234A1168234A0A40234959438020C00184466144C90B01394905490D0A43A0214903F3
:4056400011430800192B02D81B4B1A430EE01B4A9A1812781A3B1349C9183023CB5CD318FF2B00D9FF239B0502001A430F4B1A60134D2B680193302000F0BAFD114A13681B
:405680008021C9050B4313601420FFF787FF019B2B60200000F0D5FB03B030BD50000C402CFF0B40707B000034FF0B400800224000F800C040420F000000D43F4DF3FF0FD4
:4056C000300010400000224010B5034B1B7B584300F0AAFB10BDC04684010020F0B55F4656464D464446F0B483B0040000F0A5FB0190FFF7C1FD002804D0FFF7B3FD0123FE
:405700009A4601E000239A46182C01D0302C04D1FFF736FE01239B4601E000239B46E61E2D2E74D8454B1B78DBB29C4208D8444B1B78DBB29946434B1B78DBB2984631E007
:40574000414B1B78DBB29C4208D8404B1B78DBB299463F4B1B78DBB2984623E03D4B1B78DBB29C4208D83C4B1B78DBB299463B4B1B78DBB2984615E0394B1B78DBB29C42C3
:4057800008D8384B1B78DBB29946374B1B78DBB2984607E0354B1B78DBB29946344B1B78DBB29846334B9F5D2F2F09D92A2C07D91922314B1A60052000F036FB192503E09C
:4057C0002D4B1D683F231D40BD4206D9294B9A5D294B1A60052000F027FB254B9C4664442378DBB2254A1360254B4A461A60254B42461A600520FFF767FFBD420AD21D4BCB
:405800009A5D1D4B1A60052000F00EFB02E00020FFF75EFE5346012B01D1FFF7D7FE5B46012B01D1FFF732FD019800F00AFB03B03CBC90469946A246AB46F0BD40F3FF0F42
:4058400041F3FF0F42F3FF0F43F3FF0F44F3FF0F45F3FF0F46F3FF0F47F3FF0F48F3FF0F49F3FF0F4AF3FF0F4BF3FF0F4CF3FF0F4DF3FF0F707B00002CFF0B4028FF0B40AD
:405880001CFF0B4020FF0B4070B504000F4D2B688022120613432B600A20FFF715FF2A68012313432B60002C09D100200CE00120FFF70AFFFFF7B6FD002804D1013C002C59
:4058C000F5D1102000E0002070BDC04608000C40F8B504000D0001283FD801293FD800F0ACFA204F660032199300DA591E4B134031198A001100D351CB5980221206134377
:4059000031198A00D35100F09CFA0520FFF7DCFE00F093FA32199300DB598022D20513433619B200D35100F08CFA002D10D1002016E02000FFF7CEFD002804D02000FFF7E4
:405940008FFD00200CE00120FFF7BEFE013D00E0FF25002DEDD1102002E0012000E00120F8BDC04614000C40FFFFFFBF134B1B78DAB20260124B1B781B0213430360114A84
:4059800012781204134303600F4A12781206134303600E4B1B78DAB242600D4B1B781B02134343600B4A12781204134343600A4A12781206134343607047C04678F2FF0FAD
:4059C00079F2FF0F7AF2FF0F7BF2FF0F7CF2FF0F7DF2FF0F7EF2FF0F7FF2FF0F70B5084B1C68084B1C60002507E0E30703D5AB00054A9B58984764080135002CF5D170BD1D
:405A0000FC171040F01710409801002010B50020FFF75EFD10BDC04610B501000E20FFF779FD10BD10B5094B1B78002B09D10848FFF7F2FF03210E20FFF77EFD0122034BA1
:405A40001A7080221206034B1A6010BD90030020DD5900000010104070B504000D001F2802D90020FFF734FD024BA400E058E55070BDC0469801002010B504001F2802D930
:405A80000020FFF725FD044AA400A358802109060B43A35010BDC0468010104010B504001F2802D90020FFF713FD034AA400A3585B005B08A35010BD8010104010B50400F9
:405AC0001F2802D90020FFF703FDE3089B00044A9B58072214401C43024B1C6010BDC046B87B00000006014070B505000C001F2802D90020FFF7ECFC012C02D90020FFF741
:405B0000E7FC044AAD00A958034B0B40A4071C43AC5070BD80101040FFFFFFBF70B505000C001F2802D90020FFF7D2FC012C02D90020FFF7CDFC6D002C192401034B9C46F4
:405B4000644480231B06E36070BDC0460018104070B505000C0016001F2802D90020FFF7B7FC012C02D90020FFF7B2FC6D002C192401014BE65070BD0018104070B50500C0
:405B80000C0016001F2802D90020FFF7A1FC012C02D90020FFF79CFC6D002C192401024B9C466444666070BD0018104070B506000C0015001F2802D90020FFF789FC012CF9
:405BC00002D90020FFF784FC6B1E094A934202D90020FFF77DFC013D760034192401054B9C466444A3681B0C1B041D43A56070BDFFFF00000018104070B506000C00150084
:405C00001F2802D90020FFF763FC012C02D90020FFF75EFCAB0002D00020FFF759FC760034192401044B9C466444A268920092082A43A26070BDC0460018104070B5050042
:405C40000C0016001F2802D90020FFF741FC012C02D90020FFF73CFC084B1E4202D00020FFF736FC6D002C192401054B9C466444A268024B1A403243A26070BDFFFFFFD394
:405C800000181040034B1868C0231B02184000D00120704700010B4010B50D4B1A6801218A431A601A68022082431A60094A10683024A043203C204310601068093CA043A6
:405CC000014311601A68802109060A431A6010BD00002240000F2240034B1B68002B01DA012000E0002070470000224010B500F0A4F8044A1368C02109020B43136000F08E
:405D0000A0F810BD00010B4010B500F096F808490A68084B1A408024E40122430A600A6813408022120213430B6000F08AF810BD00010B40FF3FFFFF70B5050000F07DF815
:405D40000400FFF79FFF002803D0FFF7DDFF012100E0002108482840084A1568084B2B40184310601368012901D1FFF7BFFF200000F067F870BDC0460404040010020B4055
:405D8000FBFBFBFF10B5244B1B685B0715D5234B5B685B070ED5224B596A042001401F4C62688A4362605A6A82435A629B69002B00D098470420FFF7BFFF174B1B685B05E1
:405DC00018D5164B5B685B0510D5154B596A8022D2001140114842688A434260596A114A0A405A62DB69002B00D098478020C000FFF7A2FF084B1B685B030CD5074B5B6890
:405E00005B0304D5064B1B6A002B00D098478020C002FFF791FF10BD10020B401C02002094030020FFFBFFFF0230800803D00138FDD1C046C046C0467047EFF3108072B685
:405E4000704780F31088704710B5164B1B6803221340012B02D0022B04D00FE0114B1B69DBB20CE00F4B1B697F2213405A00D3189A000D4B9A18937ADBB200E00023042BBA
:405E80000CD80A4A1268D35C012B04D0032B07D1FDF706F905E0FCF777F902E0002000E0002010BD00002C40D00F0020CC0F002010B5AF4B1B68002B00D09847AD4B1B68F4
:405EC000DB0702D50022AC4B1A60AC4B1B789B0628D5AB4B1B68DB0507D5AA4A1188C0239B000B431380012300E00023A44A1268D20706D5A34A118890239B000B43138015
:405F00000123002B0FD09D4A1278D20701D5012200E002229B49088802430A800021974A117000E00023954A1278920600D417E1934A1268D20611D51022934B1A608F4BDD
:405F40001B78DB0701D5012300E002238D4A11880B4313801022894B1A7007E1874A1278120720D5864A126892070AD50222864B1A60844A118888239B000B431380012398
:405F800011E07E4A1278D20703D525217B4A117009E02421794A11707C4A1268002A02D014397B4A1160754A1278520700D4AEE0724A1278D20749D5764A1268120727D5A0
:405FC000754A1268754909681F240C40744909686418141B082C09D8002C16D1714A1168714B0B401360012308340EE008240CE06B4A11686D48006841186D480068C0B262
:406000000870116801311160013C002CF0D119E0604A1268520715D5614A116863480068411863480068C0B208701168013111601168594A1268914203D204215D4A11601E
:4060400000E001235C495D4A116060E04C4A1268920726D502224C4B1A6059490B681D321A40096880231B020B4000D001239B18544A1168CB1A13601268534B1A60414AD9
:40608000118884239B000B431380504B1A68802149020A431A6019684D4A0A401A60012335E04C4A1268D2061ED427E0454A1168364A126891421DD2344A1268013A4149DD
:4060C00009688A4204D1402243490A6030490A603C4A11684148006841180978C9B240480160116801311160354A12681F210A40082ADBD11021384A116008E0354A1268A3
:40610000520604D52F4B1A682F4B1A600123002B2CD0244A1168244B0B4013600023314A13601B4A1360304B1B789B070ED5134B1B78DB0701D5092300E00A23114A11888D
:406140000B43138060220D4B1A700FE0274B1B689B0601D5182200E01022164B1A6005E0064B1B78DB0601D4FEF7C4FE10BDC0466C0300208C0E2440880E24409111002006
:406180000C0F2440A4110020000F244098110020880F2440CC0F2440B411002008032440A811002060002440FFFEFFFFAC1100204003244068002440ED0F0000C00F2440AA
:4061C000080224409C110020A011002004022440FFFFFEFF8C0F2440800F24409411002040022440C80F2440B01100206400244070B50400FFF721FE0500102C05D8104A37
:40620000136803218B43136016E0202C07D80C490B6803229343023A13430B600CE0302C07D807490B6803229343013A13430B6002E00020FFF74CF92800FFF702FE70BD34
:4062400030001040F7B59C180023071C08268025019100922370237800982B432370BB689B6C9847019B984202D22378AB432370013E6D08002EEED12378F82B01D9F82377
:406280002370F7BD70B5051C0E1C00242B789C4208D2AB68221C281C311C1B68FFF7D2FF0134F3E770BD38B5051C00242B789C4219D2AA6813681B5DDB080F2B00D90F2375
:4062C000D16BD268C95C1155AA68042B04D9936D906B211C012203E0936D906B211C002298470134E2E738BDF0B5041C002687B063789E4262D2A3685A6C925D0392002A85
:4063000001D1013203921A6C925D019201992278914251D29A689B69515C0F221140B2000492002205910499019D5A50019B5B000293039B019A9B189D423DD2A768E38897
:40634000A0885843FB68595D00F044F93B68595D00F0B6F8059B5843194B40005A2802D95B084008FAE7BA6904991B0C1B045350A36882085B6B01215855A368C008DB696B
:40638000029F5A550F22A36849421B6A5855A3685B6A5A55A368986AC1530021D86AC153186B9B68C1535B19197801350A401A703B1C02330293BCE7013699E707B0F0BDF5
:4063C0000000FFFFF0B585684E002B6B925B9B191C8887B0141B0094AC6A1A80A45B6B6A0294EC6A5F5CA45B2B6A03946C6B7F00645C5B180494AC680193645C1B780594DF
:40640000009CE40FA4460F24251C6744009C3D40AC46E51764196C409C4203D2012B05D0013B00E00133FF273F2B00D89F00019D2B7065460F2D29D0002D24D0BC4225D854
:40644000059C029F24090094974200D9171C039D954200D2151C009A092A01D8141C01343A1C0A2C14D1EA1B934206D9049A92089A42924152429B1A00E001338268D2691C
:4064800053543A1C04E0151C644601E0151C00246746836824015B6A5F5483689F6ABA53DA6A9B6895530F225B181D782A401A7083689B6859180B781C430C7007B0F0BD37
:4064C000002243088B4274D303098B425FD3030A8B4244D3030B8B4228D3030C8B420DD3FF22090212BA030C8B4202D31212090265D0030B8B4219D300E0090AC30B8B422B
:4065000001D3CB03C01A5241830B8B4201D38B03C01A5241430B8B4201D34B03C01A5241030B8B4201D30B03C01A5241C30A8B4201D3CB02C01A5241830A8B4201D38B02EB
:40654000C01A5241430A8B4201D34B02C01A5241030A8B4201D30B02C01A5241CDD2C3098B4201D3CB01C01A524183098B4201D38B01C01A524143098B4201D34B01C01A60
:40658000524103098B4201D30B01C01A5241C3088B4201D3CB00C01A524183088B4201D38B00C01A524143088B4201D34B00C01A5241411A00D20146524110467047FFE7BC
:4065C00001B5002000F0F0F802BDC0460029F7D076E7704703460B437FD4002243088B4274D303098B425FD3030A8B4244D3030B8B4228D3030C8B420DD3FF22090212BA33
:40660000030C8B4202D31212090265D0030B8B4219D300E0090AC30B8B4201D3CB03C01A5241830B8B4201D38B03C01A5241430B8B4201D34B03C01A5241030B8B4201D35E
:406640000B03C01A5241C30A8B4201D3CB02C01A5241830A8B4201D38B02C01A5241430A8B4201D34B02C01A5241030A8B4201D30B02C01A5241CDD2C3098B4201D3CB0127
:40668000C01A524183098B4201D38B01C01A524143098B4201D34B01C01A524103098B4201D30B01C01A5241C3088B4201D3CB00C01A524183088B4201D38B00C01A5241B3
:4066C00043088B4201D34B00C01A5241411A00D201465241104670475DE0CA0F00D04942031000D34042534000229C4603098B422DD3030A8B4212D3FC22890112BA030A59
:406700008B420CD3890192118B4208D3890192118B4204D389013AD0921100E08909C3098B4201D3CB01C01A524183098B4201D38B01C01A524143098B4201D34B01C01A7F
:40674000524103098B4201D30B01C01A5241C3088B4201D3CB00C01A524183088B4201D38B00C01A5241D9D243088B4201D34B00C01A5241411A00D20146634652415B102E
:40678000104601D34042002B00D54942704763465B1000D3404201B5002000F005F802BD0029F8D016E770477047C046014B18687047C046840200200E4B70B500251E00AE
:4067C0000D4CE41AA410A54204D0AB00F35898470135F8E701F078FB084B00251E00084CE41AA410A54204D0AB00F35898470135F8E770BDD47E0000D47E0000D47E000021
:40680000DC7E0000002310B59A4203D0CC5CC4540133F9E710BD03008218934202D019700133FAE7704700000EB410B59DB002A9029008610B488224886048610120404206
:406840001FABC881084804CBA400006801938C8100F06EF80023029A13701DB010BC08BC03B01847FFFFFF7F84020020F0B58E6885B007000C00039201939E4243D8902356
:406880008A89DB001A423ED003250969236801985B1A029363695D43EB0F5D19029B6D1001331B18AB4200D91D00530510D52900380000F037FB061E14D0029A2169FFF794
:4068C000A1FFA289194B134080221343A38112E02A00380000F086FB061E0CD12169380000F0D4FA0C23402201203B60A38940421343A38117E0029B2661F61826606561CA
:40690000019EED1AA560019BB34200D21E0032000399206800F0A5FA0020A3689B1BA36023689E19266005B0F0BDC0467FFBFFFFF0B59FB0029005938B890F0016001B0642
:4069400010D50B69002B0DD1402100F0EBFA38603861002804D10C23029A01381360D8E040237B61002306AD6B6120336B761033AB7634002378002B03D1A31B049312D0A4
:4069800003E0252BF9D00134F4E7A31B320039000298FFF76BFF431C00D1B4E06A69049B944663446B612378002B00D1ABE00122002352426A6002A95432521801342B6004
:4069C000EB60AB601370AB65534E21780522300000F03CFA002807D00123801B83402A68013413432B60EFE72B68DA0604D55322202102A8121811701A0704D553222B21E6
:406A000002A81218117022782A2A03D0099B00200A210EE0059A111D12680591002A01DB099204E05242EA60022213432B6001340BE02278303A092A04D84B4301349B1875
:406A40000120F6E7002800D0099323782E2B1ED163782A2B0AD1059B02341A1D1B680592002B01DA01235B42079310E000230A201A0001346B6021783039092904D8424322
:406A8000013452180123F6E7002B00D00792234E21780322300000F0D9F9002806D04023801B83402A68013413432B60217806221B48661C297600F0C9F9002812D0194BB5
:406AC000002B06D10722059B073393430833059314E005AB00933A00134B2900029800E000BF07E005AB00933A000F4B2900029800F08AF80390039B013304D06B69039A1A
:406B00009B186B6135E7BB890B985B0601D5012040421FB0F0BDC046947E00009A7E00009E7E0000000000006D680000F7B5170001938A680B6900900C00934200DA130041
:406B400022003B6043321278002A01D001333B6023689B0602D53B6802333B60062523681D401ED0230043331B785A1E9341226892061CD53020E1184331087021005A1CC1
:406B800045310978A2184332023311700FE022000123193201990098089EB047431C0ED00135E3683A689B1A9D42F0DBDAE72200019943320098089DA847431C02D101207A
:406BC000404220E006232068E1683A6803400025042B03D18D1AEB43DB171D40A3682269934201DD9B1AED180027BD420AD0220001231A3201990098089EB047431CDED077
:406C00000137F2E70020FEBDF0B58BB006920A0043320793059004920A7E0C00109B6E2A00D1ABE011D8632A22D009D8002A00D1B5E0582A00D0C5E045310A70814A4FE0BF
:406C4000642A1DD0692A1BD0BCE0732A00D1AAE009D86F2A29D0702A00D0B3E0202209680A43226037E0752A1FD0782A33D0A9E00E001A684236111D196013683370A4E071
:406C800021681A68080606D4490604D5111D19600023D55E02E0111D19601568002D3BDA2D23049A6D42137036E021681A68080606D4490604D51568111D1960ADB202E0BE
:406CC000111D196015685F4B227E039308276F2A1DD00A271BE022007821453211705A4A19680392081D226818600D68100602D4500600D5ADB2D30702D520231A4322605D
:406D00001027002D03D1202322689A4322602300002243331A7002E00A274A4B03936368A360002B09DB0422216891432160002D05D1049E002B11D07BE0002D79D0049E67
:406D400028003900FFF742FC039B013E5B5C280033703900FFF7B4FB051EF1D1082F09D12368DB0706D563682269934202DC3023013E3370049B9B1B23612BE009681A68EE
:406D8000080607D4490605D5111D19601368A28A1A8004E0111D1960136862691A600023049E236116E01A68111D1960166800216268300000F04AF8002801D0801B606007
:406DC000636803E0260042363270012323610023049A1370079B09AA00932100069B0598FFF7A4FE431C02D10120404227E02369320006990598079DA847431CF4D02368C3
:406E000000259B070FD4099BE068984217DA180015E022000123193206990598079EB047431CE1D00135E368099A9B1A9D42F0DBE9E72600039B42361B7833708EE70BB076
:406E4000F0BDC046A57E0000B67E0000C9B28218904204D003788B4202D00130F8E70020704710B5884202D98B18984201D3002305E09B1A013A08D3995C8154FAE793423E
:406E800003D0CC5CC4540133F9E710BD70B50500002944D00C1F2368002B00DAE418280000F0D8F81E4A13681100002B02D16360146031E0A3420DD92268A018834203D1F8
:406EC00018685B688218226063600C6024E0A24203D813005A68002AF9D11E689819A0420BD12168711858181960824214D110685268411819605A600EE0A04202D90C2347
:406F00002B6009E021686018824203D1106852684118216062605C60280000F09CF870BDC0030020032370B5CD1C9D43083506000C2D01D20C2501E0002D01DBA94202D9BA
:406F40000C23336048E0300000F084F8234B1C681A002100002913D00B685B1B0DD40B2B02D90B60CC181EE08C4202D1636813601AE04B6863600C0016E00C004968E9E74C
:406F8000174C2368002B03D1300000F051F820602900300000F04CF8431C18D00323C41C9C43A0420DD12560300000F054F8200007220B30231D9043C31A0ED05A42E25071
:406FC0000BE0211A300000F033F8431CEBD10C233000336000F03FF8002070BDC0030020BC030020F8B506000C001500002904D11100FFF797FF040018E0002A03D1FFF77E
:4070000045FF2C0012E000F027F885420ED929003000FFF787FF071E07D021002A00FFF7F1FB21003000FFF731FF3C002000F8BD002370B5064C050008002360FAF7F4FCA0
:40704000431C03D12368002B00D02B6070BDC046E4110020704770470B1F1A68101F002A04DA891804390B68D01804387047000000000000496E697441707020436F6D70A3
:407080006C6574650D0A000055534220456E756D65726174696F6E20446F6E650D0A000055534220446973636F6E6E6563746564200D0A00555342205265636F6E6E656376
:4070C000746564202D205357207265736574200D0A000000640600000C0600001E060000640600003006000064060000640600006406000042060000640600006406000028
:40710000640600006406000064060000640600006406000054060000720600008406000096060000C2060000040700000407000004070000EE060000EE06000050726576D7
:4071400020547261636B0A0D000000004E65787420547261636B0A0D000000004D7574650A0D000053746F70200A0D00506C61792F50617573650A0D000000004C65667424
:40718000205377697065202D205072657620547261636B0A0D0000005269676874205377697065202D204E65787420547261636B0A0D00005570205377697065202D205663
:4071C0006F6C2055700A0D00446F776E205377697065202D20566F6C20446F776E0A0D00436F64656320766F6C2073657420746F202564200D0A00004D757465640D0A00D7
:40720000556E6D757465202D20436F64656320766F6C2073657420746F202564200D0A000D0A41707020537461727465642E2E2E0D0A00000D0A417070205265737461722C
