:400000000080002011000000190600001906000010B500F009FBC04610B51222304B1A6002F0CCF82F4802F093F9302001F0D0FF2D4C8023DB05236000222C4B1A602C4B60
:400040002C4A1A60FE2212022B490A602B4919602B490A602B4919602B490A602B4919602B490A602B4A1A60A021C9002A4A11602A4A1A6080221206294B1A608022D202B3
:40008000284B1A604023284A1360284A1360284A13604322274B1A600132274B1A60033A264B1A600132264B1A600332254B1A602549082001F0B4FE082001F09BFE234A14
:4000C000234B1A60234B23600822234B1A60224B1B681B07FBD401221F4B1A6010BDC04630001040001BB7000C020B40000301400000014040FF00800C03014043FF008059
:400100001003014044FF00800403014041FF00800803014042FF00801403014045FF008008010B4000010B4044010140400101402C01014024010140200101401C0101403B
:400140001801014008010140A92200008D02000008020B400500004010020B4010B572B600240FE033486200131959000B00411889881A5AC31858880004104300F012FA31
:400180000134E4B2012CEDD92A4801000C31483000F0EEF9EE221202274B1A60EE22274B1A60274A274B1A6099231B04264A136081210904254A1160254A1360254A136008
:4001C0008A21C903244A1160244A136024490B783C22934314221343DBB20B70214A117816230B43DBB2137040231F4A13601F4A1360D82212011E4B1A60F7221D4B1A607F
:40020000D33A1D4B1A60D0321C4B1A60D73A1C4B1A60DB22D2011B4B1A6001221A4B1A6010231A4A13601A4A1360FFF7F5FE00F0DFF910BDDC290000000302400004024059
:40024000003808000005024000500F4008500F4040500F4050500F4058500F4070500F4001700F4000700F4000000440180004400803044000040440080404401804044077
:40028000000504400805044018050440000904401809044010B5064C2378002B07D1054B002B02D0044800E000BF0123237010BDC00100200000000094290000084B10B56A
:4002C000002B03D00749084800E000BF07480368002B00D110BD064B002BFBD09847F9E700000000C401002094290000C000002000000000F8B55F4656464D464446F0B407
:4003000007001C4B1E780023984629E00123424693409A46994633421FD0551C1BE00124AC40344216D0274202D053469E4314E04B461F4201D0A6430CE0404600F058FC29
:400340008346280000F054FC834502D253469E4303E0A6430135042DE1D901239C46E0444346032BD2D930003CBC90469946A246AB46F8BD14020020F0B557464646C0B4DA
:4003800083B062B600F0E4FB00F028FC01F0C8F9002001F0B3FA01F037FA00F0D9FE00F04BFF00F0BDFF002000F07EFE002000F0EFFE002000F060FF062000F059FE062045
:4003C00000F04AFE062000F03BFE01F0DFFE00F019FB01F033F9002706239A46053B98460024642600230193002500F0C9F9012856D0E30754D400F015FD00F065FC002821
:400400000CD0584B1B785A421A40934204D02800FFF770FF050002E01D0000E0002501231C43002D3CD02B00019A9343102B37D89B004D4AD3589F46012F31D101239C4659
:40044000E0444346032B20DC2AE0012F28D101235B429C46E0444346002B21DC18E0012F1ED101239C46E2445346062B13DC17E0012F15D101235B429C46E2445346002B64
:400480000EDC0BE001235F400AE00123984607E00323984604E006239A4601E001239A4600F0ACFF01281CD0A3071AD401F0BAFA01F014FA00280BD0012F0BD1002001F0EF
:4004C000ADF94610632E07DD284B9E4206DC06E0642604E0642602E0642600E0234E02231C43032C81D1012F29D14346012B0AD15046704300F0D8FD002000F049FE002077
:4005000000F0BAFE24E04346022B0AD1002000F0CBFD5046704300F03BFE002000F0ACFE16E04346032B13D1002000F0BDFD002000F02EFE5046704300F09EFE08E0002006
:4005400000F0B2FD002000F023FE002000F094FE01F01CFE00F056FA01F070F80195002443E7C046140200209829000055150000F0B50025002711E0BB00C658F3B2FF2299
:40058000964308E06A008A181478A419527822700135013BDBB2002BF4D10137062FEBD9F0BDC04610B50A00002102F0EBF910BD0C4B1B68002803D080221206134301E09D
:4005C0005B005B08074A1360074B1B68002803D080229204134301E0044A1340024A13607047C04680033A4008010B40FFFFFFFD10B50323054A1360054A13600022054BF1
:400600001A600120FFF7D4FF10BDC0463000304030003140000E3F4010B502F087F903680C2B00D1FEE7FEE770B50F4E0F4D13E029686B68AC68002202E001C901C3043230
:40064000A242FAD1E868002202E0002102C304328242FAD11035013E002EE9D102F06CF9FFF78AFEFEE7C04601000000A02C000010B50E4A136801218B43136000230AE0CB
:40068000032B03D89A000A49505800E009489900094A885001332F2BF2D9FFF75FFD034A116801230B43136010BDC0460000104000000000190600000000002070B516486C
:4006C0000368DBB2154A13700F24A3431900144D2B780F2213400B43E13293432A78A243134303600F4A104B1A60104A104B1A60104A1168104B0B40C021C9000B431360AE
:40070000122001F081FB0D49122001F089FB0321122001F097FB70BD00FF2840A902002062F2FF0F00020001080028400008A0010400284000040240FFF0FFFF490E000071
:4007400010B501F007FA01F0DBF90021002001F0E3F90021002001F009FAFF2001F0C2F9412001F0E9F9044A136804490B431360122001F03FFB10BD0400284000100880B6
:40078000024B1878012318407047C046DC0100204000024B181880887047C046DC010020F8B5104F3E5C3818037A5D005D19EDB29B00DCB201F0D5FDB300FB181E693268EF
:4007C0000F21A1408A4311000422A2400A435C6C23680721A9408B432360326001F0C5FDF8BDC046402A0000F8B5194A145C13181F7AB900C9B27D007D19EDB2154B185C98
:40080000A300D3181E6933680F228A4093433360022800D10020012801D1002600E0062601F09FFDA4000A4B1C19616C0B680722AA4093431A003300AB4013430B6001F08E
:4008400094FDA16F0B680122BA4093430B60F8BD402A0000AC02002010B5002403E02000FFF7C2FF0134042CF9D910BD044A11684002C023DB001840084310607047C046DB
:4008800004002840CA0807231940063B8B40825C134201D0012000E00020704710B504000134E4B2052C06D0210004481430FFF7E9FF0028F4D0200010BDC046C4000020A2
:4008C000F8B50400394B1B182C229D5CAA00384BD65801003748FFF7D5FF374B9E4203D88640FF231B041E4301F034F901F008F9324B185D013880B2002101F00DF9304BFF
:40090000185D013880B2002101F030F9FF2001F0E9F8412001F010F92A4BDB7B002B1CD0122001F071FA284B196880239943403B0B43234A105D214A175D0203121A1004A6
:40094000AD001B4AAA587A43904201D2C0230B431D4A1360122001F04DFA122001F054FA1A4801681A4B19401A4B1B5D1A4A125D120413430B430360134F3D68174B1D40FF
:40098000174B1D43122001F035FA2000FFF708FF01F0E7FC04003D60002001F0D9FC114B1E60200001F0E1FCF8BDC046C02A0000C40000209C020020FFFFFEFF84020020FB
:4009C000A0020020DC010020040028400800284000FF80FF940200208C020020FF1FDFFF20E020000C00284010B5054B00221A70C2B29A7381221A70FFF762FF10BDC04651
:400A0000DC01002010B50C4C00232370FF33A373A07BC0B2FFF742FFA073A37BDBB2042B08D8217801230B43DBB22370A07BC0B2FFF746FF10BDC046DC01002070B5050020
:400A4000184B1C68A4B24300174AD3189C80174B1B182C229B5C9B00154A9A58154B9A4208D801001448FFF70DFF6B000E4AD31804419C802800FFF7B7FE122001F0C4F98B
:400A80000E4A11680E4B0B40A02109020B4313600C4A11680C4B0B401360122001F0AAF970BDC0460C002840DC010020C02A0000C4000020FFFFFEFF9C02002004002840F3
:400AC000FF1FDFFF0800284000FF80FF10B5CC0807231940063B8B40DBB2002A04D0041922781343237003E0041922789A43227010BDC04670B50600002400250BE030004E
:400B0000FFF772FFFFF73CFE0128FBD03000FFF73FFE24180135002DF1D0A0B270BDC046014B19547047C046AC02002010B5002404E000212000FFF7F3FF0134042CF8D972
:400B4000FFF7BCFD0020FFF791FEFFF785FE10BD10B50B4B1B7C002B04D1FFF7E7FF0122074B1A74FFF7ECFD00F012FA0122044B5A74044A13688021C9030B43136010BD6B
:400B8000DC0100200400284030B5094B1B5C42000849545A0849545208180025057305750648C05CCB181877054BD45230BDC046EC2A0000E0010020F0010020F000002030
:400BC000D402002010B50400FFF70EFFFFF7D8FD0028FBD12000FFF7D7FF10BD10B5002403E02000FFF7EEFF0134042CF9D910BD014B1818007D7047F0010020F0B54746F5
:400C000080B40400224B1D5C224B5A19177A224A565D5B5D9846010020482430FFF732FE002810D01D4B1B191B7DBE1BB34223DA1A4E3000243000222100FFF747FF75198D
:400C400043462B7718E0154B1B191B7DBE19B3420EDB124B5D192B7F013BDBB22B77002B0AD1012221000D482430FFF72FFF03E00A4B5D1943462B77210008482430FFF7DD
:400C800001FE002800D0012004BC9046F0BDC046EC2A0000F0000020BC020020F001002070B5084B1C5C1818057A651900262000FFF7A4FF002800D001260134A542F6D8B9
:400CC000300070BD082B000070B50025002406E02000FFF7E5FF002800D001250134042CF6D9280070BDC046401849004018800880B27047F0B5474680B482B004003C4BDC
:400D00001E5C3C4B9B5D019342003B4BD75A3B4B5B7D002B08D03A4D9046515B3800FFF7E3FF070043465853E1B2334A354801F009FC6300344A9A5A974207D30021334BCE
:400D40001955BD1AADB20123984603E0D51BADB2002398464346002B15D12D4B9B5D9D4211D92A4B1B5D254A1219127C934206D32000FFF709FF0022244B1A551EE00133B4
:400D8000224A13551AE06B469B889D4206D9204B9B5D9D4212D24346002B0FD113029C46194801190B7B66463343FF18BF1A3A0A6300C2520F730022144B1A556B469E880B
:400DC000B5420DD94346002B0AD0FF2D04D90E4B1C19FF23237507E00B4B1C19257503E0094B1C190023237502B004BC9046F0BDEC2A0000CC020020E0010020F0000020FA
:400E0000D402002014030020F0010020B4020020C402002010B5040000F064F82000FFF769FF10BD10B5002409E021000548FFF729FD002802D02000FFF7ECFF0134042C9C
:400E4000F3D910BDD800002010B5122000F0DCFF01221E4B1A601E4B1878C0B2FFF7EEFD1C4B1B785BB2002B05DA1A4A137801218B43137026E0164C2078C0B2FFF70EFDE7
:400E800020702378DBB2042B05D8114B1878C0B2FFF716FD16E00F4B1A7801218A431A701B785B060ED500220B4B1A7006E00B4AD15C0B4AD1540133074A1370064B1B7805
:400EC000002BF4D0122000F095FF10BD14002840EA010020DC01002015020020A8020020D8000020064B1B5C064AD25C51080648C1540648C154D2080549CA547047C0469B
:400F0000EC2A0000F8000020CC020020C4020020BC020020024A136840218B431360704704002840044A1168044B0B40802189000B4313607047C04608002840FFFCFFFCD6
:400F400070B5002208E00D498B5C5D080C4CA55401335B088B54013203789A42F3D3122000F052FF074A1168074B0B4007490B431360122000F03EFF70BDC0469402002056
:400F80008C02002008002840FFFCFFFC0002000170B5224B05221A705A709A702B32DA801F4A9A801F4A9A60FFF7B4FF002304E099001D481D4A88500133184A5278934244
:400FC000F6D3002306E01021194AD1540C39194AD1540133042BF6D9FFF7A4FF164D0F4C2900200001F00EFA200001F01CFA0122124B1A702900200001F004FA200001F054
:4010000033FA2000FFF79CFF002403E02000FFF769FF0134042CF9D970BDC04614030020CC040000182B00000000FF0FC4000020A0020020840200209A0D0000EB0100208C
:40104000034A1168034B0B40400218431060704708050440FFF1FFFF034A1168034B0B408001184310607047080504403FFEFFFF034A1168034B0B4000031843106070473C
:4010800008050440FF8FFFFF0004000C014B18607047C046480220400004000C014B18607047C046540220400004000C014B18607047C0464C02204070B504000D0001F06B
:4010C00050F9AC40024B1C6001F04FF970BDC0460800204010B501F044F9064A116820230B43136001F041F918212020FFF7E4FF10BDC04600002040014B18607047C0462D
:401100007802204010B50D4C8223DB042360236823600020FFF7B8FF236823600C22084B1A600020FFF7E8FF3122064B1A600648FFF7B2FF0548FFF7B7FF10BD4002204054
:401140006402204068022040FFFF0000FF7F000010B5064B1B78002B04D1FFF7D3FF0122024B1A70FFF7B6FF10BDC046160200200004000C014B18607047C0460801204048
:401180000004000C014B18607047C046140120400004000C014B18607047C0460C01204070B504000D0001F0DCF8AC40024B1C6001F0DBF870BDC0460800204010B501F066
:4011C000D0F8064A116801230B43136001F0CDF818210120FFF7E4FF10BDC04600002040014B18607047C0463801204010B50D4C8223DB042360236823600020FFF7B8FF43
:40120000236823600C22084B1A600020FFF7E8FF3122064B1A600648FFF7B2FF0548FFF7B7FF10BD000120402401204028012040FFFF0000FF7F000010B5064B1B78002B10
:4012400004D1FFF7D3FF0122024B1A70FFF7B6FF10BDC046170200200004000C014B18607047C046880220400004000C014B18607047C046940220400004000C014B18604A
:401280007047C0468C02204070B504000D0001F068F8AC40024B1C6001F067F870BDC0460800204010B501F05CF8064A116840230B43136001F059F818214020FFF7E4FFB1
:4012C00010BDC04600002040014B18607047C046B802204010B50D4C8223DB042360236823600020FFF7B8FF236823600C22084B1A600020FFF7E8FF3122064B1A600648AE
:40130000FFF7B2FF0548FFF7B7FF10BD80022040A4022040A8022040FFFF0000FF7F000010B5064B1B78002B04D1FFF7D3FF0122024B1A70FFF7B6FF10BDC04618020020AF
:4013400070B5154C2368DBB2144A13700F2083431900134D2B780F2213400B43E13293432A788243134323600E4A0F4B1A600F4A0F4B1A600F490B688343062213430B600F
:40138000043000F041FD0C49132000F049FD0321132000F057FD70BD00FF29403103002082F2FF0F0002000108002940C008A0010400294000050240491A000010B500F05E
:4013C0001DFC00F0F1FB0021002000F0F9FB0021002000F01FFCFF2000F0D8FB432000F0FFFB044A136804490B431360132000F001FD10BD0400294000100880024B1878B1
:40140000012318407047C0461C0200204000024B181880887047C0461C02002070B500F0A0FF08490A68084B13408022D2021343064C2568064A2A4022600B6000F095FF82
:4014400070BDC04600090240FFFFF0FF08090440FF8FFFFF10B5104B1A5C10490868104B03400B60022A00D10022012A01D1002400E0062400F075FF0A490A680A4B13409D
:40148000220313430B6000F070FF084A136810218B43136010BDC0463003002000090240FFFFF0FF08090440FF8FFFFF0009044010B5002403E02000FFF7CCFF0134002C0E
:4014C000F9D010BDF8B50400244D2F6800F096FB00F06AFB2D192879013880B2002100F06FFB287A013880B2002100F093FBFF2000F04CFB432000F073FB132000F084FC94
:40150000174E3268402313433360132000F072FC132000F079FC13480168134B19402B7B2A7C120413430B43036035680F4B1D400F4B1D43132000F05DFC2000FFF76EFF46
:4015400000F00FFF04003560002000F001FF094B1F60200000F009FFF8BDC04610010020040029400800294000FF80FFFF1FDFFF200020000C00294010B5054B00221A701F
:40158000C2B29A7181221A70FFF79CFF10BDC0461C02002010B50E4B1A6843000D49CB189A80FFF757FF132000F02EFC0A4A11680A4B0B40A02109020B431360084A116849
:4015C000084B0B401360132000F014FC10BDC0460C0029401C02002004002940FF1FDFFF0800294000FF80FF044A11684002C023DB001840084310607047C04604002940C5
:40160000CA0807231940063B8B40825C134201D0012000E00020704710B504000134E4B2012C06D0210004480830FFF7E9FF0028F4D0200010BDC0461C02002010B50B4C1A
:4016400000232370FF33A371A079C0B2FFF7E4FFA071A379002B08D1217801230B43DBB22370A079C0B2FFF72DFF10BD1C02002010B5CC0807231940063B8B40DBB2002A17
:4016800004D0041922781343237003E0041922789A43227010BDC04670B50600002400250BE03000FFF768FFFFF7A8FE0128FBD03000FFF7ABFE24180135002DF1D0A0B2DD
:4016C00070BDC046F8B505000F0016180023337080243378234333702800FFF7DDFFB84202D23378A34333706408F2D1F8BDC046014B19547047C0463003002010B5002412
:4017000004E000212000FFF7F3FF0134002CF8D0FFF716FE0020FFF767FFFFF7C9FE10BD70B51F4B5B7A002B04D1FFF7E7FF01221B4B5A72FFF742FE1A4A11681A4B0B400B
:40174000136000240FE0194D6B889800C0180301C018642100F074FF01002A000C322000FFF7B0FF0134002CEDD0002208E00F4989180B7B5808087401335B080B7301325D
:40178000002AF4D0074A1368802149040B431360074A13688021C9030B43136070BDC0461C02002008002940FFFFFFFC100100200400294030B5094B1A5C430008495C5A54
:4017C00008495C52081800250571C81805810648805C8A181073054A9C5230BD202C00002002002028020020280100203803002010B50400FFF7C0FEFFF700FE0028FBD16F
:401800002000FFF7D7FF10BD10B5002403E02000FFF7EEFF0134002CF9D010BD4000024B181800897047C04628020020F0B5474680B40400224B1D5C224A6B00D3189988A9
:4018400088469E89575D01001F481030FFF7D8FE002811D063001C4AD3181B894246961BB34221DA184E3000103000222100FFF7FFFE75192F7317E06300134AD3181B893F
:401880004644B3420DDB55192B7B013BDBB22B73002B09D1012221000B481030FFF7E8FE02E0094B5D192F73210007481030FFF7A7FE002800D0012004BC9046F0BDC04693
:4018C000202C0000280100202802002010B50020FFF7ACFF002800D0012010BD70B50025002406E02000FFF7F1FF002800D001250134002CF6D0280070BDC04610B50122BB
:4019000000210248FFF7B4FE10BDC04624020020401849004018800880B27047F8B54F464646C0B40400374B1E5C374A7300D3181F894100354BC85A537D002B06D0344D13
:401940008846495BFFF7E4FF424650536300314A9A5A904207D300212F4B1955851AADB20123984603E0151AADB2002398464346002B16D173002449CB181B8A9D4210D92D
:40198000254B1B5D0A19127D934206D32000FFF711FF0022204B1A5520E001331E4A13551CE0BD4208D97600174B9E19338A9D4214D24346002B11D113029C46154B994600
:4019C00019190B7966463343C018801A020A63004E46F252087100220F4B1A55BD4207D94346002B04D064000A4B1C19258104E06400084B1C19002323810CBC90469946E3
:401A0000F8BDC046202C0000280100202002002038030020280200203C03002010B5FFF77DFF10BD10B5002409E021000548FFF7E7FD002802D02000FFF7F0FF0134002C92
:401A4000F3D010BD2402002010B5132000F0DCF901221E4B1A601E4B1878C0B2FFF79AFD1C4B1B785BB2002B05DA1A4A137801218B43137025E0164C2078C0B2FFF7CCFD32
:401A800020702378002B05D1114B1878C0B2FFF719FD16E00F4B1A7801218A431A701B785B060ED500220C4B1A7006E00B4AD15C0B4AD1540133084A1370074B1B78002B60
:401AC000F4D0132000F096F910BDC04614002940220200201C020020390200203403002024020020044B1B68002BFBDB0002034B1843014B186070470000014041000080AB
:401B0000034B1B68002BFBDB024A014B1A607047000001404100004010B5064A13680724234000021843CB00FF2119400143116010BDC04604030140044B1B68002BFBDBE6
:401B40000002034B1843014B186070470000014042000080034B1B68002BFBDB024A014B1A607047000001404200004010B5064A13680724234000021843CB00FF2119401F
:401B80000143116010BDC04608030140044B1B68002BFBDB0002034B1843014B186070470000014043000080034B1B68002BFBDB024A014B1A6070470000014043000040F5
:401BC00010B5064A13680724234000021843CB00FF2119400143116010BDC0460C030140044B1B68002BFBDB0002034B1843014B186070470000014044000080034B1B687F
:401C0000002BFBDB024A014B1A607047000001404400004010B5064A13680724234000021843CB00FF2119400143116010BDC04610030140024A1168024B0B4013607047F3
:401C400000002240FFFFFFBF034B18688023DB05184000D0012070470000224030B52D4B1A783F231340042B01D9012000E0002000230AE0284A12683F210A402749C95C8D
:401C80008A4201D1033303E001332D2BF2D9032323490A680124A2430A60224A126822490A6000280FD021490D681F4C65601F24A2431F4C247822431A4C22601D4A127860
:401CC000D2B20A6005E01F218A4317390A4315490A60302B0BD1002803D0174B1B78DBB202E0164B1B78DBB2154A13600CE0182B0AD1002803D0134B1B78DBB202E0124BF4
:401D00001B78DBB20E4A1360104A116802230B43136030BD00F3FF0F2CFF0B40302C000050000C4034FF0B403C02002020FF0B40C0F1FF0FC1F1FF0FC3F1FF0F3FF3FF0FDC
:401D400028FF0B40C2F1FF0F3EF3FF0F24002C4030B51A4B1A783F231340042B01D9012000E0002000230AE0154A12683F210A401449C95C8A4201D1033303E001332D2B51
:401D8000F2D9032310490A680224A2430A600F4C21681F2291430E4D2D682A400A432260002803D00A4A51680A4A11600A4A944663441B78DBB2094A136030BD00F3FF0F5A
:401DC0002CFF0B40302C000024002C4034FF0B403C02002020FF0B404DF3FF0F28FF0B40034B1B680220184000D001207047C04624002C401F2318401E3B8340014A13607E
:401E00007047C04600E100E01F2318401E3B8340014A13607047C04680E100E001BE704770B504000D001F2802D90020FFF7F6FF1034A40080239B059C4664442068256017
:401E400070BDC04670B504000E00032902D90020FFF7E4FF1F2C02D90020FFF7DFFF03252540ED00063500F07CFAA408A400074B9C46644421680323AB4099430B003100E5
:401E8000A9401943216000F070FA70BD00E400E010B5040006E0084B586800F059FA074B9C46644480231B029C42F4D8024B9868604300F04DFA10BD400100200080FFFFF3
:401EC00030B583B000F09AF900285FD000F049FA04002F4A116801230B43136000230AE02C4A12683F210A402B49C95C8A4201D1033303E001332D2BF2D90323274A126883
:401F0000D20606D1254802681F218A4313390A430260234A1168234A0A40234959438020C00184466144C90B01394905490D0A43A021490311430800192B02D81B4B1A4355
:401F40000EE01B4A9A1812781A3B1349C9183023CB5CD318FF2B00D9FF239B0502001A430F4B1A60134D2B680193302000F000FA114A13688021C9050B4313601420FFF7F2
:401F800087FF019B2B60200000F0EFF903B030BD50000C402CFF0B40302C000034FF0B400800224000F800C040420F000000D43F4DF3FF0F300010400000224010B5034BE7
:401FC0001B7B584300F0C4F910BDC04640010020F0B55F4656464D464446F0B483B0040000F0BFF90190FFF72FFE002804D0FFF721FE01239A4601E000239A46FFF7F0FEB8
:40200000002808D0182C01D0302C07D1FFF7A0FE01239B4604E000239B4601E000239B46E61E2D2E74D8464B1B78DBB29C4208D8444B1B78DBB29946434B1B78DBB29846BD
:4020400031E0424B1B78DBB29C4208D8404B1B78DBB299463F4B1B78DBB2984623E03E4B1B78DBB29C4208D83C4B1B78DBB299463B4B1B78DBB2984615E03A4B1B78DBB2C4
:402080009C4208D8384B1B78DBB29946374B1B78DBB2984607E0364B1B78DBB29946354B1B78DBB29846344B9F5D2F2F09D92A2C07D91922314B1A60052000F049F91925C4
:4020C00003E02E4B1D683F231D40BD4206D92A4B9A5D2A4B1A60052000F03AF9254B9C4664442378DBB2264A1360264B4A461A60254B42461A600520FFF760FFBD420AD278
:402100001D4B9A5D1D4B1A60052000F021F902E00020FFF783FE5346012B01D1FFF7D0FE5B46012B01D1FFF799FD019800F01DF903B03CBC90469946A246AB46F0BDC046A5
:4021400040F3FF0F41F3FF0F42F3FF0F43F3FF0F44F3FF0F45F3FF0F46F3FF0F47F3FF0F48F3FF0F49F3FF0F4AF3FF0F4BF3FF0F4CF3FF0F4DF3FF0F302C00002CFF0B40A4
:4021800028FF0B401CFF0B4020FF0B4010B500F0E8F8044A136804218B43136030BF00F0E4F810BD10ED00E0034B1868C0231B02184000D00120704700010B4010B50D4B7D
:4021C0001A6801218A431A601A68022082431A60094A10683024A043203C204310601068093CA043014311601A68802109060A431A6010BD00002240000F2240034B1B6821
:40220000002B01DA012000E0002070470000224010B500F0A6F8044A1368C02109020B43136000F0A2F810BD00010B4010B500F098F808490A68084B1A408024E40122434F
:402240000A600A6813408022120213430B6000F08CF810BD00010B40FF3FFFFF70B5050000F07FF80400FFF79FFF002803D0FFF7DDFF012100E0002108482840084A15684F
:40228000084B2B40184310601368012901D1FFF7BFFF200000F069F870BDC0460404040010020B40FBFBFBFF10B5244B1B685B0715D5234B5B685B070ED5224B596A0420A0
:4022C00001401F4C62688A4362605A6A82435A629B69002B00D098470420FFF7BFFF174B1B685B0518D5164B5B685B0510D5154B596A8022D2001140114842688A434260E9
:40230000596A114A0A405A62DB69002B00D098478020C000FFF7A2FF084B1B685B030CD5074B5B685B0304D5064B1B6A002B00D098478020C002FFF791FF10BD10020B4041
:40234000540100205C020020FFFBFFFF000000000230800803D00138FDD1C046C046C0467047EFF3108072B6704780F31088704770B50400FFF7F5FF0500102C05D8104A77
:40238000136803218B43136016E0202C07D80C490B6803229343023A13430B600CE0302C07D807490B6803229343013A13430B6002E00020FFF732FD2800FFF7D6FF70BD34
:4023C00030001040F7B59C180023071C08268025019100922370237800982B432370BB689B6C9847019B984202D22378AB432370013E6D08002EEED12378F82B01D9F82336
:402400002370F7BD70B5051C0E1C00242B789C4208D2AB68221C281C311C1B68FFF7D2FF0134F3E770BD38B5051C00242B789C4219D2AA6813681B5DDB080F2B00D90F2333
:40244000D16BD268C95C1155AA68042B04D9936D906B211C012203E0936D906B211C002298470134E2E738BDF0B5041C002687B063789E4262D2A3685A6C925D0392002A43
:4024800001D1013203921A6C925D019201992278914251D29A689B69515C0F221140B2000492002205910499019D5A50019B5B000293039B019A9B189D423DD2A768E38856
:4024C000A0885843FB68595D00F044F93B68595D00F0B6F8059B5843194B40005A2802D95B084008FAE7BA6904991B0C1B045350A36882085B6B01215855A368C008DB692A
:40250000029F5A550F22A36849421B6A5855A3685B6A5A55A368986AC1530021D86AC153186B9B68C1535B19197801350A401A703B1C02330293BCE7013699E707B0F0BDB3
:402540000000FFFFF0B585684E002B6B925B9B191C8887B0141B0094AC6A1A80A45B6B6A0294EC6A5F5CA45B2B6A03946C6B7F00645C5B180494AC680193645C1B7805949D
:40258000009CE40FA4460F24251C6744009C3D40AC46E51764196C409C4203D2012B05D0013B00E00133FF273F2B00D89F00019D2B7065460F2D29D0002D24D0BC4225D813
:4025C000059C029F24090094974200D9171C039D954200D2151C009A092A01D8141C01343A1C0A2C14D1EA1B934206D9049A92089A42924152429B1A00E001338268D269DB
:4026000053543A1C04E0151C644601E0151C00246746836824015B6A5F5483689F6ABA53DA6A9B6895530F225B181D782A401A7083689B6859180B781C430C7007B0F0BDF5
:40264000002243088B4274D303098B425FD3030A8B4244D3030B8B4228D3030C8B420DD3FF22090212BA030C8B4202D31212090265D0030B8B4219D300E0090AC30B8B42E9
:4026800001D3CB03C01A5241830B8B4201D38B03C01A5241430B8B4201D34B03C01A5241030B8B4201D30B03C01A5241C30A8B4201D3CB02C01A5241830A8B4201D38B02AA
:4026C000C01A5241430A8B4201D34B02C01A5241030A8B4201D30B02C01A5241CDD2C3098B4201D3CB01C01A524183098B4201D38B01C01A524143098B4201D34B01C01A1F
:40270000524103098B4201D30B01C01A5241C3088B4201D3CB00C01A524183088B4201D38B00C01A524143088B4201D34B00C01A5241411A00D20146524110467047FFE77A
:4027400001B5002000F0F0F802BDC0460029F7D076E7704703460B437FD4002243088B4274D303098B425FD3030A8B4244D3030B8B4228D3030C8B420DD3FF22090212BAF1
:40278000030C8B4202D31212090265D0030B8B4219D300E0090AC30B8B4201D3CB03C01A5241830B8B4201D38B03C01A5241430B8B4201D34B03C01A5241030B8B4201D31D
:4027C0000B03C01A5241C30A8B4201D3CB02C01A5241830A8B4201D38B02C01A5241430A8B4201D34B02C01A5241030A8B4201D30B02C01A5241CDD2C3098B4201D3CB01E6
:40280000C01A524183098B4201D38B01C01A524143098B4201D34B01C01A524103098B4201D30B01C01A5241C3088B4201D3CB00C01A524183088B4201D38B00C01A524171
:4028400043088B4201D34B00C01A5241411A00D201465241104670475DE0CA0F00D04942031000D34042534000229C4603098B422DD3030A8B4212D3FC22890112BA030A17
:402880008B420CD3890192118B4208D3890192118B4204D389013AD0921100E08909C3098B4201D3CB01C01A524183098B4201D38B01C01A524143098B4201D34B01C01A3E
:4028C000524103098B4201D30B01C01A5241C3088B4201D3CB00C01A524183088B4201D38B00C01A5241D9D243088B4201D34B00C01A5241411A00D20146634652415B10ED
:40290000104601D34042002B00D54942704763465B1000D3404201B5002000F005F802BD0029F8D016E770477047C046014B18687047C046BC0100200E4B70B500251E0035
:402940000D4CE41AA410A54204D0AB00F35898470135F8E700F092F9084B00251E00084CE41AA410A54204D0AB00F35898470135F8E770BD882C0000882C0000882C0000A2
:40298000902C000003008218934202D019700133FAE7704700000000A0040000380400004A040000A00400005E040000A0040000A0040000A004000070040000A00400008A
:4029C000A0040000A0040000A0040000A0040000A0040000A00400008404000000300F40000800400F400008B820BE10D804DF011B108310E40157085810D4C083089C10C2
:402A0000A708E68010109C10C41038043C045220600462208220CE03D40438043C049004CE03000004320F4003330F4003400F4004410F4003420F4008450F4004460F40E8
:402A40000404040400000000050704060600000000000240000102400002024000030240000402400005024000060240000702400008024000090240000A0240000B0240D0
:402A8000000C024008000440080104400802044008030440080404400805044008060440080704400808044008090440080A0440080B0440080C0440000004400001044015
:402AC0000002044000030440000404400005044000060440000704400008044000090440000A0440000B0440000C04400001020304000000200000008000000010000000E3
:402B0000400000004000000000010203040000000101010101000000940200208C02002008010020A002002084020020EC2A0000C4000020E0020020280300200C0300209B
:402B4000F402002000030020E8020020200300209C020020742B0000082B0000102B0000F50A0000C10800009107000085080000CD0A0000040404080808081010101010C4
:402B80001010101008000440080104400802044008030440080404400805044008060440080704400808044008090440080A0440080B0440080C0440000002400001024026
:402BC0000002024000030240000402400005024000060240000702400008024000090240000A0240000B0240000C0240000004400001044000020440000304400004044054
:402C00000005044000060440000704400008044000090440000A0440000B0440000C044000000000040000001000000009000000030405060708090A0B0C0E0F1011121365
:402C40001415161718191B1C1D1E1F2021222325262728292A2B2E2F3031323334350000EEDBC9B9AA9B8E82766B60564D443B332C241D17100A044300000000F8B5C04644
:402C8000F8BC08BC9E467047BD02000071060000F8B5C046F8BC08BC9E46704795020000B02C0000C00000200001000080010000000000000000FF0F0000FF0F0000FF0F06
:402CC0000000FF0F0000FF0F1F00000008040440080404400804044008040440080004400303030303000000C8C8C8C8640000001E1E1E1E1E0100000808080808000000BB
:402D00000000FFFF0800000008000000190000001900000008090440020000006E0000003C0000000B0000001400000005010000010000000000C05D80BB000030000000A4
:402D4000006CDC02F0000000040404000000000000000000000000000000000000000000000000000000000000000000772C0000000000000000000000000000000000006A
:402D800000000000000000000000000000000000000000000000000000000000000000000000000000000000000000005C0100200000000000000000000000000000000096
:402DC00000000000000000000000000000000000000000000000000000000000000000000000000000000000000000000000000000000000000000000000000000000000D3
:402E00000000000000000000000000000000000000000000000000000000000000000000000000000000000000000000000000000000000000000000000000000000000092
:402E40000000000000000000000000000000000000000000000000000000000000000000000000000000000000000000000000000000000000000000000000000000000052
:402E80000000000000000000000000000000000000000000000000000000000000000000000000000000000000000000000000000000000000000000000000000000000012
:020000040003F7
:0200000490303A
:020000005B5C47
:0200000490402A
:4000000000000000000000000000000000000000000000000000000000000000000000000000000000000000000000000000000000000000000000000000000000000000C0
:400040000000000000000000000000000000000000000000000000000000000000000000000000000000000000000000000000000000000000000000000000000000000080
:0200000490501A
:0C0000000002101311A0000110216CFC84
:0200000490600A
:0100000001FE
:00000001FF