:400000000080002011000000450400004504000010B500F01FFAC04610B51222274B1A6001F024FA264801F043FB302001F0FCF8244C8023DB052360C0229200224B1A6012
:40004000224B234A1A60FE22120222490A602249196022490A60224A1A60A021C900214A1160214A1A6080221206204B1A608022D2021F4B1A6042221E4B1A60023A1E4B54
:400080001A6001321D4B1A6002321D4B1A601D49082000F0F1FF082000F0D8FF1A4A1B4B1A601B4B236008221A4B1A60194B1B681B07FBD40122174B1A6010BD30001040E4
:4000C000001BB7000C020B40080301400000014042FF00800003014040FF00800403014041FF00800C03014043FF008008010B4000010B404401014024010140200101407C
:400100000801014009160000BF03000008020B400500004010020B4010B572B600240FE02D486200131959000B00411889881A5AC31858880004104300F04AF90134E4B248
:40014000012CEDD9244801000C31303000F026F9EE221202214B1A60EE22214B1A6080221203204B1A6099231B041F4A1360A821C9031E4A11601E4A13601E4A13601E4995
:400180000B783C22934314221343DBB20B701B4A117816230B43DBB21370D8221201184B1A600322174B1A602132174B1A60133A164B1A60C022D201154B1A600122154B1B
:4001C0001A601023144A1360144A1360FFF724FF00F024F910BDC046A818000000030240000402400005024000500F4008500F4050500F4070500F4001700F4000700F4062
:40020000080304400004044008040440000504400805044018050440000904401809044010B5064C2378002B07D1054B002B02D0044800E000BF0123237010BD7801002020
:4002400000000000A4180000084B10B5002B03D00749084800E000BF07480368002B00D110BD064B002BFBD09847F9E7000000007C010020A4180000C000002000000000AB
:4002800010B500F0F9FB002000F088FD00F0AAF901F0B6F800F0BAF9062000F07FFD00F003FC10BD70B50C00002810D0002000F03DFC0500002000F041FC281A201A322338
:4002C0005843F530FF30064B984202D802E0002000E003480004000C00F024F970BDC046FF7F000010B504000100002001F00EF9002001F035F90004000CA04202D90820F9
:4003000001F072F97D2000F085FF10BD10B562B600F05CFB002000F0F5FB00F053F9062000F03CFD00210020FFF7BCFFC8200001FFF7D8FF0024002000F0DEFC002000F00E
:400340008BFA01E001F04EF800F0C8F90028F9D100F0FCFB00280ED0002000F0DFFB01000120FFF79FFFF0208000FFF7BBFF01F039F80024DFE700210020FFF793FF013466
:40038000E4B2642C03D1C8200001FFF7ABFF642C00D96424FFF774FFCDE7C046F0B50025002711E0BB00C658F3B2FF22964308E06A008A181478A419527822700135013B41
:4003C000DBB2002BF4D10137072FEBD9F0BDC04610B50A00002101F05DFA10BD0C4B1B68002803D080221206134301E05B005B08074A1360074B1B68002803D08022920446
:40040000134301E0044A1340024A13607047C04680033A4008010B40FFFFFFFD10B50323054A1360054A13600022054B1A600120FFF7D4FF10BDC0463000304030003140C4
:40044000000E3F4010B501F0F9F903680C2B00D1FEE7FEE770B50F4E0F4D13E029686B68AC68002202E001C901C30432A242FAD1E868002202E0002102C304328242FAD14B
:400480001035013E002EE9D101F0DEF9FFF73EFFFEE7C04601000000141A000010B50E4A136801218B43136000230AE0032B03D89A000A49505800E009489900094A885020
:4004C00001332F2BF2D9FFF727FE034A116801230B43136010BDC0460000104000000000450400000000002010B501F0EAF8044A136840218B43136001F0E7F810BDC046AB
:40050000000020400004000C014B18607047C046880220400004000C014B18607047C046940220400004000C014B18607047C0468C02204070B504000D0001F0C2F8AC400D
:40054000024B1C6001F0C1F870BDC0460800204010B501F0B6F8064A116840230B43136001F0B3F818214020FFF7E4FF10BDC04600002040014B18607047C046B802204040
:4005800010B50C4BC222D2041A601A681A600120FFF7B8FF0C22084B1A600020FFF7EAFF3F22064B1A600648FFF7B4FF0120FFF7B9FF10BD80022040A4022040A802204076
:4005C000FFFF000010B5064B1B78002B04D1FFF7D7FF0122024B1A70FFF7BAFF10BDC0469401002010B5074B1B685B0603D50122054B1A7002E00022034B1A70FFF774FF42
:4006000010BDC046000020409801002010B5034B1B78002B01D0FFF79BFF10BD9801002070B5154C2368DBB2144A13700F2083431900134D2B780F2213400B43E1329343CB
:400640002A788243134323600E4A0F4B1A600F4A0F4B1A600F490B688343062213430B60043000F0FDFC0C49132000F005FD0321132000F013FD70BD00FF294008020020BA
:4006800082F2FF0F0002000108002940C008A0010400294000050240010D000010B500F0C1FB00F095FB0021002000F09DFB0021002000F0C3FBFF2000F07CFB402000F09A
:4006C000A3FB044A136804490B431360132000F0BDFC10BD0400294000100880024B1878012318407047C0469C0100204000024B181880887047C0469C01002070B500F0B0
:40070000E0FF08490A68084B13408022D2021343064C2568064A2A4022600B6000F0D5FF70BDC04600090240FFFFF0FF08090440FF8FFFFF10B5104B1A5C10490868104B55
:4007400003400B60022A00D10022012A01D1002400E0062400F0B5FF0A490A680A4B1340220313430B6000F0B0FF084A136810218B43136010BDC04610020020000902405C
:40078000FFFFF0FF08090440FF8FFFFF0009044010B5002403E02000FFF7CCFF0134002CF9D010BDF8B50400244D2F6800F03AFB00F00EFB2D192879013880B2002100F040
:4007C00013FB287A013880B2002100F037FBFF2000F0F0FA402000F017FB132000F040FC174E3268402313433360132000F02EFC132000F035FC13480168134B19402B7BD4
:400800002A7C120413430B43036035680F4B1D400F4B1D43132000F019FC2000FFF76EFF00F04FFF04003560002000F041FF094B1F60200000F049FFF8BDC046C40000203B
:40084000040029400800294000FF80FFFF1FDFFF200020000C00294010B5054B00221A70C2B29A7181221A70FFF79CFF10BDC0469C01002010B50E4B1A6843000D49CB18C1
:400880009A80FFF757FF132000F0EAFB0A4A11680A4B0B40A02109020B431360084A1168084B0B401360132000F0D0FB10BDC0460C0029409C01002004002940FF1FDFFF98
:4008C0000800294000FF80FF044A11684002C023DB001840084310607047C04604002940CA0807231940063B8B40825C134201D0012000E00020704710B504000134E4B234
:40090000012C06D0210004480830FFF7E9FF0028F4D0200010BDC0469C01002010B5CC0807231940063B8B40DBB2002A04D0041922781343237003E0041922789A43227039
:4009400010BDC04670B50600002400250BE03000FFF782FFFFF7C2FE0128FBD03000FFF7C5FE24180135002DF1D0A0B270BDC046F8B505000F001618002333708024337822
:40098000234333702800FFF7DDFFB84202D23378A34333706408F2D1F8BDC046014B19547047C0461002002010B5002404E000212000FFF7F3FF0134002CF8D0FFF730FE5D
:4009C0000020FFF781FFFFF7E3FE10BD70B51F4B5B7A002B04D1FFF7E7FF01221B4B5A72FFF75CFE1A4A11681A4B0B40136000240FE0194D6B889800C0180301C01864219B
:400A000000F090FE01002A000C322000FFF7B0FF0134002CEDD0002208E00F4989180B7B5808087401335B080B730132002AF4D0074A1368802149040B431360074A13680A
:400A40008021C9030B43136070BDC0469C01002008002940FFFFFFFCC400002004002940034B1B68002B02DA0122024B1A70704704002940A801002010B5FFF7F1FF132000
:400A800000F0EEFA064A1168064B0B40136013685B005B08136000F0C5F900F099F910BD04002940FFEFF7FF10B5FF2000F0ACF9FF2000F07FF9034B1B78002B01D0FFF7B9
:400AC000EDFD10BDA801002030B5094B1A5C430008495C5A08495C52081800250571C81805810648805C8A181073054A9C5230BD94190000A0010020AC010020DC000020AD
:400B00001802002010B50400FFF7A6FEFFF7E6FD0028FBD12000FFF7D7FF10BD4000024B181800897047C046AC0100204000024B181880887047C046DC0000204000024BB7
:400B4000181880897047C046DC000020F0B5474680B40400224B1D5C224A6B00D318998888469E89575D01001F481030FFF7B8FE002811D063001C4AD3181B894246961BB9
:400B8000B34221DA184E3000103000222100FFF7C5FE75192F7317E06300134AD3181B894644B3420DDB55192B7B013BDBB22B73002B09D1012221000B481030FFF7AEFE9D
:400BC00002E0094B5D192F73210007481030FFF787FE002800D0012004BC9046F0BDC04694190000DC000020AC010020401849004018800880B27047F8B54F464646C0B4F8
:400C00000400374B1E5C374A7300D3181F894100354BC85A537D002B06D0344D8846495BFFF7E4FF424650536300314A9A5A904207D300212F4B1955851AADB201239846FB
:400C400003E0151AADB2002398464346002B16D173002449CB181B8A9D4210D9254B1B5D0A19127D934206D32000FFF72DFF0022204B1A5520E001331E4A13551CE0BD42B2
:400C800008D97600174B9E19338A9D4214D24346002B11D113029C46154B994619190B7966463343C018801A020A63004E46F252087100220F4B1A55BD4207D94346002BEE
:400CC00004D064000A4B1C19258104E06400084B1C19002323810CBC90469946F8BDC04694190000DC000020A001002018020020AC0100201402002010B5FFF77DFF10BD12
:400D000010B5132000F0ACF901221E4B1A601E4B1878C0B2FFF7AEFD1C4B1B785BB2002B05DA1A4A137801218B43137025E0164C2078C0B2FFF7E0FD20702378002B05D131
:400D4000114B1878C0B2FFF72DFD16E00F4B1A7801218A431A701B785B060ED500220C4B1A7006E00B4AD15C0B4AD1540133084A1370074B1B78002BF4D0132000F066F97F
:400D800010BDC04614002940A20100209C010020BD0100200C020020A4010020034A1168034B0B40000318431060704708050440FF8FFFFF044B1B68002BFBDB0002034BAE
:400DC0001843014B186070470000014040000080034B1B68002BFBDB024A014B1A607047000001404000004010B5064A13680724234000021843CB00FF211940014311604C
:400E000010BDC04600030140044B1B68002BFBDB0002034B1843014B186070470000014041000080034B1B68002BFBDB024A014B1A607047000001404100004010B5064A2E
:400E400013680724234000021843CB00FF2119400143116010BDC04604030140024A1168024B0B401360704700002240FFFFFFBF034B18688023DB05184000D00120704702
:400E80000000224030B52D4B1A783F231340042B01D9012000E0002000230AE0284A12683F210A402749C95C8A4201D1033303E001332D2BF2D9032323490A680124A243AE
:400EC0000A60224A126822490A6000280FD021490D681F4C65601F24A2431F4C247822431A4C22601D4A1278D2B20A6005E01F218A4317390A4315490A60302B0BD10028A6
:400F000003D0174B1B78DBB202E0164B1B78DBB2154A13600CE0182B0AD1002803D0134B1B78DBB202E0124B1B78DBB20E4A1360104A116802230B43136030BD00F3FF0FD3
:400F40002CFF0B40A419000050000C4034FF0B40C001002020FF0B40C0F1FF0FC1F1FF0FC3F1FF0F3FF3FF0F28FF0B40C2F1FF0F3EF3FF0F24002C4030B51A4B1A783F2318
:400F80001340042B01D9012000E0002000230AE0154A12683F210A401449C95C8A4201D1033303E001332D2BF2D9032310490A680224A2430A600F4C21681F2291430E4DDA
:400FC0002D682A400A432260002803D00A4A51680A4A11600A4A944663441B78DBB2094A136030BD00F3FF0F2CFF0B40A419000024002C4034FF0B40C001002020FF0B4021
:401000004DF3FF0F28FF0B40034B1B680220184000D001207047C04624002C4010B5040000F04FFBE304E022920313401900054C2368054A1A400B001343236000F045FBE1
:4010400010BDC04600010B40FFFFC7FF1F2318401E3B8340014A13607047C04600E100E01F2318401E3B8340014A13607047C04680E100E001BE704770B504000D001F2836
:4010800002D90020FFF7F6FF1034A40080239B059C4664442068256070BDC04670B504000E00032902D90020FFF7E4FF1F2C02D90020FFF7DFFF03252540ED00063500F05F
:4010C00000FBA408A400074B9C46644421680323AB4099430B003100A9401943216000F0F4FA70BD00E400E010B5040006E0084B586800F0DDFA074B9C46644480231B025D
:401100009C42F4D8024B9868604300F0D1FA10BDF40000200080FFFF30B583B000F0C6F900285FD000F0CDFA04002F4A116801230B43136000230AE02C4A12683F210A40A4
:401140002B49C95C8A4201D1033303E001332D2BF2D90323274A1268D20606D1254802681F218A4313390A430260234A1168234A0A40234959438020C00184466144C90BE0
:4011800001394905490D0A43A021490311430800192B02D81B4B1A430EE01B4A9A1812781A3B1349C9183023CB5CD318FF2B00D9FF239B0502001A430F4B1A60134D2B6849
:4011C0000193302000F084FA114A13688021C9050B4313601420FFF787FF019B2B60200000F073FA03B030BD50000C402CFF0B40A419000034FF0B400800224000F800C034
:4012000040420F000000D43F4DF3FF0F300010400000224010B5034B1B7B584300F048FA10BDC046F4000020F0B55F4656464D464446F0B483B0040000F043FA0190FFF7EB
:4012400017FE002804D0FFF709FE01239A4601E000239A46FFF7D8FE002808D0182C01D0302C07D1FFF788FE01239B4604E000239B4601E000239B46E61E2D2E74D8464BD9
:401280001B78DBB29C4208D8444B1B78DBB29946434B1B78DBB2984631E0424B1B78DBB29C4208D8404B1B78DBB299463F4B1B78DBB2984623E03E4B1B78DBB29C4208D83E
:4012C0003C4B1B78DBB299463B4B1B78DBB2984615E03A4B1B78DBB29C4208D8384B1B78DBB29946374B1B78DBB2984607E0364B1B78DBB29946354B1B78DBB29846344B26
:401300009F5D2F2F09D92A2C07D91922314B1A60052000F0CDF9192503E02E4B1D683F231D40BD4206D92A4B9A5D2A4B1A60052000F0BEF9254B9C4664442378DBB2264ABA
:401340001360264B4A461A60254B42461A600520FFF760FFBD420AD21D4B9A5D1D4B1A60052000F0A5F902E00020FFF783FE5346012B01D1FFF7D0FE5B46012B01D1FFF75B
:4013800081FD019800F0A1F903B03CBC90469946A246AB46F0BDC04640F3FF0F41F3FF0F42F3FF0F43F3FF0F44F3FF0F45F3FF0F46F3FF0F47F3FF0F48F3FF0F49F3FF0FE9
:4013C0004AF3FF0F4BF3FF0F4CF3FF0F4DF3FF0FA41900002CFF0B4028FF0B401CFF0B4020FF0B4010B500F06CF9044A136804218B43136030BF00F068F910BD10ED00E013
:4014000030B583B000F05DF904000E4A13685B005B0813600C4B1B889BB20C4A13600C4A116804230B4313600A4D2B6801930220FFF7F4FD30BF019B2B60200000F045F994
:4014400003B030BD00000B4052F2FF0F0C000B4010ED00E000010B40034B1868C0231B02184000D00120704700010B4010B50D4B1A6801218A431A601A68022082431A60AA
:40148000094A10683024A043203C204310601068093CA043014311601A68802109060A431A6010BD00002240000F2240034B1B68002B01DA012000E00020704700002240FC
:4014C00010B500F0FEF8044A1368C02109020B43136000F0FAF810BD00010B4010B500F0F0F808490A68084B1A408024E40122430A600A6813408022120213430B6000F03F
:40150000E4F810BD00010B40FF3FFFFF70B505000C00012802D90020FFF7ACFD0D4B1B689B0F01D1C92000E05D20FFF773FE0A490B682D01094AAA409343AC401C430C60BF
:40154000044B1B689B0F01D1432000E01F20FFF761FE70BD0C020B4008020B40FFFF000010B5012809D0002802D0022809D00BE0084B18680004000C0AE0064B1868000C14
:4015800006E0054B186803E00020FFF773FD002010BDC04600020B4004020B4070B5050000F08FF80400FFF757FF002803D0FFF795FF012100E0002108482840084A15685B
:4015C000084B2B40184310601368012901D1FFF777FF200000F079F870BDC0460404040010020B40FBFBFBFF054A1168054B184008431060024B1A68024B1A42FAD170474D
:4016000010020B400808080010B5244B1B685B0715D5234B5B685B070ED5224B596A042001401F4C62688A4362605A6A82435A629B69002B00D098470420FFF7AFFF174B16
:401640001B685B0518D5164B5B685B0510D5154B596A8022D2001140114842688A434260596A114A0A405A62DB69002B00D098478020C000FFF792FF084B1B685B030CD599
:40168000074B5B685B0304D5064B1B6A002B00D098478020C002FFF781FF10BD10020B4008010020E0010020FFFBFFFF000000000230800803D00138FDD1C046C046C04664
:4016C0007047EFF3108072B6704780F31088704770B50400FFF7F5FF0500102C05D8104A136803218B43136016E0202C07D80C490B6803229343023A13430B600CE0302C8C
:4017000007D807490B6803229343013A13430B6002E00020FFF7AEFC2800FFF7D6FF70BD30001040002243088B4274D303098B425FD3030A8B4244D3030B8B4228D3030C6C
:401740008B420DD3FF22090212BA030C8B4202D31212090265D0030B8B4219D300E0090AC30B8B4201D3CB03C01A5241830B8B4201D38B03C01A5241430B8B4201D34B03E4
:40178000C01A5241030B8B4201D30B03C01A5241C30A8B4201D3CB02C01A5241830A8B4201D38B02C01A5241430A8B4201D34B02C01A5241030A8B4201D30B02C01A5241F2
:4017C000CDD2C3098B4201D3CB01C01A524183098B4201D38B01C01A524143098B4201D34B01C01A524103098B4201D30B01C01A5241C3088B4201D3CB00C01A5241830883
:401800008B4201D38B00C01A524143088B4201D34B00C01A5241411A00D20146524110467047FFE701B5002000F006F802BDC0460029F7D076E770477047C046014B18685B
:401840007047C046700100200E4B70B500251E000D4CE41AA410A54204D0AB00F35898470135F8E700F0C4F8084B00251E00084CE41AA410A54204D0AB00F358984701359B
:40188000F8E770BDFC190000FC190000FC190000041A000003008218934202D019700133FAE770470000000000300F40000800400F400008B802BE01D804DF0118801B011F
:4018C000AF01B4405380D420A780AF80EE1038013C01CE03B401EC0804320F4002330F4002350F4002400F4001410F4002420F4003450F4002460F4008000440080104402E
:401900000802044008030440080404400805044008060440080704400808044008090440080A0440080B0440080C04400000024000010240000202400003024000040240C2
:401940000005024000060240000702400008024000090240000A0240000B0240000C02400000044000010440000204400003044000040440000504400006044000070440D7
:401980000008044000090440000A0440000B0440000C044000000000040000001000000009000000030405060708090A0B0C0E0F101112131415161718191B1C1D1E1F209E
:4019C00021222325262728292A2B2E2F3031323334350000EEDBC9B9AA9B8E82766B60564D443B332C241D17100A044300000000F8B5C046F8BC08BC9E46704749020000B1
:401A00009D040000F8B5C046F8BC08BC9E46704721020000281A0000C0000020B8000000A800000000000000000000000000FFFF080000000800000019000000190000005A
:401A400008090440020000006E0000003C0000000B0000001400000005010000010000000000C05D80BB000030000000006CDC02F000000004040400000000000000000071
:401A8000000000000000000000000000000000000000000000000000EB19000000000000000000000000000000000000000000000000000000000000000000000000000022
:401AC00000000000000000000000000000000000000000000000000010010020000000000000000000000000000000000000000000000000000000000000000000000000B5
:401B000000000000000000000000000000000000000000000000000000000000000000000000000000000000000000000000000000000000000000000000000000000000A5
:401B40000000000000000000000000000000000000000000000000000000000000000000000000000000000000000000000000000000000000000000000000000000000065
:401B80000000000000000000000000000000000000000000000000000000000000000000000000000000000000000000000000000000000000000000000000000000000025
:401BC00000000000000000000000000000000000000000000000000000000000000000000000000000000000000000000000000000000000000000000000000000000000E5
:020000040003F7
:0200000490303A
:020000007CF78B
:0200000490402A
:4000000000000000000000000000000000000000000000000000000000000000000000000000000000000000000000000000000000000000000000000000000000000000C0
:400040000000000000000000000000000000000000000000000000000000000000000000000000000000000000000000000000000000000000000000000000000000000080
:0200000490501A
:0C0000000002101311A00001101B8E97CD
:0200000490600A
:0100000001FE
:00000001FF